50710                  000DEBITOS - CREDITOS                                M. T.                                                  5000    200604019999123100999999980
5071001                000AFILIADO NO FIGURA EN PADRON                      CORDOBA                                                5000    200604019999123100999999990
5071001                001AFILIADO CAPITA MENSUAL                           CORDOBA                                                5000    200604019999123100999999970
507100005972           000LLARENS PABLO ALBERTO                             RODOLFO MARTINEZ 5972                                  5000    200406019999123100000059720
507100772366           000GIL SILVANA DE MARTINEZ                           URIBURU 337                                            5000    200304019999123100007723660
507100921687           000CORREA ANA                                        DEAN FUNES 1478   8                                    5000    200604019999123100009216870
507103374182           000BONARDI BETTY OLGA                                TRAFUL 970                                             5000    200604019999123100033741820
507103729702           000CHIOTTI CATALINA                                  RIVADAVIA 825                                          5000    200406019999123100037297020
507103783761           000PALAZZI YOLANDA ROMANA                            FLORENCIO SANCHEZ                                      5000    200001019999123100037837610
507103885730           000FERNANDEZ ROSA LEONOR                             SARMIENTO                                              5000    200604019999123100038857300
507103885849           000OVIEDO IRMA                                       CABANA 3385                                            5000    200406019999123100038858490
507104279503           000SCHEURER FRIDA                                    MARIA OLGUIN 435                                       5000    200604019999123100042795030
507104447830           000LEGUIZAMON MARTHA TERES                           URQUIZA 71                                             5000    200001019999123100044478300
507104447830           001ROSMARI OMAR JUAN                                 URQUIZA 71                                             5000    200001019999123100064267410
507104500080           000SILVA MARTHA                                      ESTEBAN BONORINO 5856                                  5000    200408019999123100045000800
507104529482           000DOMINGUEZ RICARDO OSCA                            OBISPO BUSTOS 73                                       5000    200001019999123100045294820
507104529482           001RYBAK ANA DORA                                    OBISPO BUSTOS 73                                       5000    200001019999123100051646290
507104529482           002DOMINGUEZ VIRGINIA LAU                            OBISPO BUSTOS 73                                       5000    200001019999123100250425480
507104562866           000FERNANDEZ NORMA TERESA                            ENFERMERA CLERMONT 5                                   5000    200604019999123100045628660
507104562866           001BLASCO ROBERTO EMILIO                             ENFERMERA CLERMONT 5                                   5000    200604019999123100079689950
507104594067           000AVILA BEATRIZ OLGA                                CHORROARIN 2247                                        5000    200408019999123100045940670
507104594067           001BARRERA LUIS ROBERTO                              CHORROARIN 2247                                        5000    200408019999123100065156510
507104622718           000SOLIS ANA NAVARRO DE                              MARTEL DE CABRERA                                      5000    200604019999123100046227180
507104628565           000OTERO ADELA RAMONA DEL VALLE                      CATAMARCA 1419                                         5000    200406019999123100046285650
507104668644           000BERNABEI ROSA ZULEMA                              AV VELEZ SARFIELD S/N 335   SIN BARRIO                 5823    200210259999123100046686440
507104668644           001ARIAS EDUARDO MAXIMILIANO                         AV VELEZ SARFIELD S/N    SIN BARRIO                    5823    200210259999123100278052660
507104675301           000MARIN CARMEN ALICIA                               BOULEV.CHACABUCO CAS 130                               5000    200001019999123100046753010
507104675301           001KRIEGER EIANT                                     BOULEV.CHACABUCO CAS 130                               5000    200001019999123100079844620
507104675301           002KRIEGER JOSE EZEQUIE                              BOULEV.CHACABUCO CAS 130                               5000    200001019999123100293394040
507104732384           000ORLANDI MARIA ELIA                                SAN JUAN    SIN BARRIO                                 5141    200011279999123100047323840
507104732392           000STRAUSS NELLY TERESI                              JOSE INGENIEROS 295                                    5000    200001019999123100047323920
507104732392           001CHIARETTA OMAR                                    JOSE INGENIEROS 295                                    5000    200001019999123100064426310
507104732392           002CHIARETTA LUCIANA                                 JOSE INGENIEROS 295                                    5000    200001019999123100306237290
507104839895           000OLIVIERI NORMA OFELIA                             MANUEL OCAMPO 1216                                     5000    200312019999123100048398950
507104839895           001DESTEFANIS JUAN B                                 MANUEL OCAMPO 1216                                     5000    200312019999123100084390950
507104855237           000TRUCCO BEATRIZ ISABEL                             LIBERTAD 264 DPTO 1                                    5000    200406019999123100048552370
507104974678           000MORENO GRACIELA MAR                               LATINOAMERICA 606                                      5000    200001019999123100049746780
507104981806           000BIZONARD RITA ORTENCI                             FLORENTINO AMEGHINO 165                                5000    200001019999123100049818060
507104981806           001GABRIELLONOI DANIELA MAR                          FLORENTINO AMEGHINO 165                                5000    200001019999123100296937830
507104981806           002GABRIELLONI ROMINA ROSAN                          FLORENTINO AMEGHINO 165                                5000    200001019999123100256333890
507104981865           000PASERO SUSANA DEL V                               ZONA RURAL S/N                                         5000    200001019999123100049818650
507104981865           001FERRER OSCAR ARNOLD                               ZONA RURAL S/N                                         5000    200001019999123100064372490
507104981865           002FERRER MAURICIO OSC                               ZONA RURAL S/N                                         5000    200001019999123100266550650
507104981865           003FERRER MARIANO ANDR                               ZONA RURAL S/N                                         5000    200001019999123100278690690
507105070800           000CANELLO HECTOR FRANC                              RIVADAVIA 574                                          5000    200001019999123100050708000
507105070800           001BERRA ANA MARIA                                   RIVADAVIA 574                                          5000    200001019999123100054779840
507105070800           002CANELLO CAROLINA CLA                              RIVADAVIA 574                                          5000    200001019999123100276738870
507105070800           003CANELLO PAULA AMELIA                              RIVADAVIA 574                                          5000    200001019999123100266828020
507105070800           004CANELLO NICOLAS ANTO                              RIVADAVIA 574                                          5000    200001019999123100249151150
507105074831           000RAMIREZ FELIX DANIEL                              ESTRADA E/J.B.JUSTO/ 204                               5000    200001019999123100050748310
507105074831           001RIZOS JUANA                                       ESTRADA E/J.B.JUSTO/ 204                               5000    200001019999123100100547090
507105074831           002RAMIREZ CRISTINA DAN                              ESTRADA E/J.B.JUSTO/ 204                               5000    200001019999123100303104120
507105074831           003RAMIREZ CRISTIAN ALB                              ESTRADA E/J.B.JUSTO/ 204                               5000    200001019999123100264231760
507105075307           000DADEZ LUIS ALBERTO                                AV.SUQUIA                                              5000    200604019999123100050753070
507105075307           001ÑAÑEZ CESAR NICOLAS                               AV.SUQUIA                                              5000    200604019999123100295147480
507105075307           002MONGIANO TERESA DEL CARMEN                        AV.SUQUIA                                              5000    200604019999123100118189060
507105075307           003ÑAÑEZ MARIA SOLEDAD                               AV.SUQUIA                                              5000    200604019999123100326461200
507105075307           004ÑAÑEZ MARIA CELESTE                               AV.SUQUIA                                              5000    200604019999123100326461190
507105075895           000ROSSI RUBEN ARMAND                                AVDA.JOSE HERNANDEZ 593                                5000    200001019999123100050758950
507105075895           001LIENDO ANASTACIA S                                AVDA.JOSE HERNANDEZ 593                                5000    200001019999123100106247960
507105075895           002ROSSI GISELA VANES                                AVDA.JOSE HERNANDEZ 593                                5000    200001019999123100249645640
507105075895           003ROSSI RUBEN EDUARD                                AVDA.JOSE HERNANDEZ 593                                5000    200001019999123100305040740
507105194670           000MOLINA OLGA TERESA                                LORENZO SUAREZ 723                                     5000    200001019999123100051946700
507105194670           001VILLAGRA MIGUEL ANGEL                             LORENZO SUAREZ 723                                     5000    200001019999123100259170890
507105194670           002VILLAGRA EDGAR GABRIE                             LORENZO SUAREZ 723                                     5000    200001019999123100234402070
507105210105           000ROMANO DE LEYRIA SUSANA                           CAMPILLO 1099                                          5000    200001019999123100052101050
507105210105           001SOSA LUCAS ALEJANDRO                              CAMPILLO 1099                                          5000    200001019999123100414397370
507105215316           000GRIZUTTI MANUEL SINFOROSO                         SANTANDER 2549                                         5000    200406019999123100052153160
507105215316           001ABDENOR ROSA                                      SANTANDER 2549                                         5000    200406019999123100064926140
507105264425           000PATIÑO LUCIA EDITH E                              JOSE BARELA BERRO 3608                                 5000    200406019999123100052644250
507105270766           000CRISTIN LUIS ALBERTO                              CASEROS 503                                            5000    200001019999123100052707660
507105270766           001ISSOLIO AMANDA BEATR                              CASEROS 503                                            5000    200001019999123100111032140
507105270766           002CRISTIN DIANA ELISA                               CASEROS 503                                            5000    200001019999123100285809010
507105270766           003CRISTIN ILEANA ERICA                              CASEROS 503                                            5000    200001019999123100320848420
507105270766           004CRISTIN MARIANO ROMA                              CASEROS 503                                            5000    200001019999123100296169030
507105270920           000CEJAS HUGO CASIMIRO                               SALTA 3   HOSPITAL                                     5817    200212269999123100052709200
507105270920           001ALVARES NILDA AURORA                              SALTA    HOSPITAL                                      5817    200212269999123100100547120
507105270920           002CEJAS WALTER SEBASTIAN                            SALTA 3   HOSPITAL                                     5000    200304019999123100289289980
507105338763           000BONEU ELSA ESTHER                                                                                        5000    200309019999123100053387630
507105338763           001ASTESANO EDGAR ARIEL                                                                                     5000    200309019999123100260145650
507105389547           000LUDUE#A MARTA YOLAND                              DR. NIETO PE#A 56                                      5000    200001019999123100053895470
507105389547           001CACERES EDUARDO HUMBERTO                          SAN JOSE    SIN BARRIO                                 5141    200005019999123100064356890
507105389547           002CACERES MARIA JULIAN                              DR. NIETO PE#A 56                                      5000    200001019999123100275508240
507105389547           003CACERES MARIA FERNAN                              DR. NIETO PE#A 56                                      5000    200001019999123100248831150
507105389547           004CACERES MARIA GABRIE                              DR. NIETO PE#A 56                                      5000    200001019999123100240358220
507105389547           005CACERES MARIA GABRIELA                            DR. NIETO PE#A 56                                      5000    200001019999123100240378220
507105389547           006CACERES MARIA DE LOS                              DR. NIETO PE#A 56                                      5000    200001019999123100395438210
507105411616           000BARRALE NESTOR H.                                 NICANOR CARRANZA 386                                   5000    200001019999123100054116160
507105411616           001BARRALE MARIA E.                                  NICANOR CARRANZA 386                                   5000    200001019999123100292071320
507105411616           002BARRALE FRANCO DAVID                              NICANOR CARRANZA 386                                   5000    200001019999123100385022590
507105411616           003BARRALE AGUSTIN                                   NICANOR CARRANZA 386                                   5000    200001019999123100317695660
507105436072           000BOLOGNESI MARTA DEL ROSA                          SAN JOSE 16                                            5000    200001019999123100054360720
507105452188           000LINKE MARIA CRISTI                                NORBERTO CARO 2875                                     5000    200001019999123100054521880
507105455536           000VENENCIA LAURA EVA                                FLEMING 2861                                           5000    200001019999123100054555360
507105455536           001PALMA LAURA TRINIDIDAD                            FLEMING 2861                                           5000    200001019999123100326831110
507105455536           002PALMA JUAN FRANCISCO                              FLEMING 2861                                           5000    200001019999123100049814470
507105487212           000MELONI MARIA TERESA                               LA POSTA 3212 Bø ALTO VE                               5000    200011019999123100054872120
507105487212           001GONZALEZ ROBERTO                                  LA POSTA 3212 B> ALTO VE                               5000    200011019999123100079964610
507105487212           002GONZALEZ FACUNDO                                  LA POSTA 3212 B> ALTO VE                               5000    200011019999123100250815240
507105487212           003GONZALEZ MARIA V.                                 LA POSTA 3212 B> ALTO VE                               5000    200011019999123100270133300
507105487212           004GONZALEZ IGNACIO                                  LA POSTA 3212 B> ALTO VE                               5000    200011019999123100319214770
507105487212           005GONZALEZ MARIA J.                                 LA POSTA 3212 B> ALTO VE                               5000    200011019999123100371956890
507105489992           000CORDERO LIDIA DEL VALLE                           PEREDO 1475                                            5000    200406019999123100054899920
507105636146           000GENTILETTI SULLY NATALIA                          MONTEMAYOR 1930 YOFR                                   5000    200604019999123100056361460
507105636146           001SCORCIONE HECTOR TITO                             MONTEMAYOR 1930 YOFR                                   5000    200604019999123100065544310
507105738428           000MOLINENGO NELY MARIA                              DR.AMADEO BERTINI 678                                  5000    200012019999123100057384280
507105738428           001FERNANDEZ ALFREDO ISMAEL                          DR.AMADEO BERTINI 678                                  5000    200012019999123100064526850
507105738428           002FERNANDEZ HORACIO MANUEL                          DR.AMADEO BERTINI 678                                  5000    200012019999123100251704580
507105817655           000MAGLIANO MARIA ESTHER                             LAMADRID 436                                           5000    200604019999123100058176550
507105817655           001BLASER LUCAS PABLO                                LAMADRID 436                                           5000    200604019999123100306237150
507105817655           002BLASER EDGARDO OMAR                               LAMADRID 436                                           5000    200604019999123100064209790
507105817655           003BLASER CARLA DESIRE                               LAMADRID 436                                           5000    200604019999123100329856930
507105881739           000GOMEZ MIRTA EDITH                                 ESPERANZA 3093                                         5000    200010019999123100058817390
507105908632           000BOCCO MIRTHA CATAL                                ALMIRANTE BROWN 116   0                                5000    200001019999123100059086320
507105908632           001BERGIA MIGUEL ANGEL                               ALMIRANTE BROWN 116   0                                5000    200001019999123100064434460
507105908632           002BERGIA PAMELA NOELI                               ALMIRANTE BROWN 116   0                                5000    200001019999123100326496460
507105908632           003BERGIA LUCAS MIGUEL                               ALMIRANTE BROWN 116   0                                5000    200001019999123100254945940
507105948214           000BALBO NORA ELSA                                   ISLAS ORGADAS 310                                      5000    200312019999123100059482140
507105948214           001MAI EDGARDO ALBERTO                               ISLAS ORGADAS 310                                      5000    200312019999123100066478790
507105948229           000MARISCOTTI DIEGO JOSE                             BOEDO    SIN BARRIO                                    5800    200305159999123100306650150
507105948367           000LEMME OLGA ESTHER                                 ROSARIO DE SANTA FE    SAN ANTONIO DE PADUA            5800    200407239999123100059483670
507105985527           000GALLO MARIA TERESA                                VELEZ SARSFIELD 958                                    5000    200305019999123100059855270
507105995264           000GOMEZ TERESA ANITA                                GUAYAQUIL 1229                                         5000    200508019999123100059952640
507105995264           001LACOMCIK NORBERTO                                 GUAYAQUIL 1229                                         5000    200508019999123100104624750
507106021976           000TURZA JOSE RODOLFO                                ANGEL PACHECO 373                                      5000    200406019999123100060219760
507106041878           000BARROS DE NIEVA MARGARITA TERESA                  AV COLON 1893 TRABAJO DEAN FUNES 85                    5000    200312019999123100060418780
507106059870           000MENICHETTI EVA DEL CARMEN                         LEON 13    IPV SUR                                     5933    200404199999123100060598700
507106086037           000MORENO HECTOR DANIEL                              PALERMO 2912                                           5000    200604019999123100060860370
507106086037           001SUAREZ LUCIA P.                                   PALERMO 2912                                           5000    200604019999123100143668950
507106132393           000NORMA DEL VALLE GOMEZ                             AV LOS PATANOS 680                                     5000    200308019999123100061323930
507106132780           000MARTINEZ NORMA GLADIS                             CALLAO 1345                                            5000    200305019999123100061327800
507106132780           001VILLEGAS JUAN FERNANDO                            CALLAO 1345                                            5000    200305019999123100308443740
507106204186           000ALONSO MARIA DEL CARMEN                           BOULEV.CHACABUCO CAS 130                               5000    200001019999123100062041860
507106227205           000SOSA ELENA NATIVIDAD                              TUCUMAN 126   ALBERDI                                  5800    200408099999123100062272050
507106268969           000TOLEDO MARIA ROSA                                 ESPAÑA 520                                             5000    200406019999123100062689690
507106269704           000GIUBERGIA RAQUEL NILDA                            SANTA ROSA 31 TORRE 1 8 PISO "B"                       5000    200404019999123100062697040
507106299097           000COLOMBO ELVIO ANTONI                              LOS COCOS 460                                          5000    200001019999123100062990970
507106299097           001GUEVARA BRAVO GRACIELA D                          LOS COCOS 460                                          5000    200001019999123100056812420
507106299097           002COLOMBO MARIA CELEST                              LOS COCOS 460                                          5000    200001019999123100279216790
507106299097           003COLOMBO MARINA SOLED                              LOS COCOS 460                                          5000    200001019999123100288505070
507106358981           000ESCUDERO CRISTINA CLE                             CHILE 936                                              5000    200001019999123100063589810
507106358981           001GOBELET OSVALDO JOSE                              CHILE 936                                              5000    200001019999123100050709820
507106358981           002GOBELET JUAN ALBERTO                              CHILE 936                                              5000    200001019999123100248573320
507106358981           003GOBELET MAURO NORBER                              CHILE 936                                              5000    200001019999123100259294690
507106383224           000VERA ANASTACIO EU                                 GABRIELA MISTRAL 565                                   5000    200001019999123100063832240
507106383224           001MANSILLA FILOMENA                                 GABRIELA MISTRAL 565                                   5000    200001019999123100052605820
507106385020           000GARCIA ANTONIO CARL                               TEODORO FELS 5863                                      5000    200001019999123100063850200
507106385020           001VENENCIA MICAELA SOFI                             TEODORO FELS 5863                                      5000    200001019999123100046756750
507106391962           000VELEZ FRANCISCO                                   AUQUINCO 802                                           5000    199912019999123100063919620
507106394193           000ABACCA DANIEL ANDRE                               FALUCHO 1021                                           5000    200001019999123100063941930
507106394193           001GIACOMONI ANA MARIA                               FALUCHO 1021                                           5000    200001019999123100063798900
507106394193           002ABACCA GERARDO GABR                               FALUCHO 1021                                           5000    200001019999123100327647580
507106397423           000ROBLEDO OFELIA                                    E. MARQUINA 3365                                       5000    200001019999123100063974230
507106417461           000DELGADO CARLOS TEOBA                              VILLA EL DIQUECITO S/N                                 5000    200001019999123100064174610
507106417461           001MEDINA ETELVINA YOL                               VILLA EL DIQUECITO S/N                                 5000    200001019999123100058699750
507106417461           002DELGADO HUGO DARIO                                VILLA EL DIQUECITO S/N                                 5000    200001019999123100287084200
507106427843           000PAEZ JUAN CARLOS                                  ALBERTO SUCHWETZER 3006                                5000    200408019999123100064278430
507106427843           001BAZAN OLGA JOSEFA                                 ALBERTO SUCHWETZER 3006                                5000    200408019999123100048325060
507106427843           002PAEZ GABRIEL A                                    ALBERTO SUCHWETZER 3006                                5000    200408019999123100321570090
507106434365           000VALDEMARIN CARLOS ALBER                           E.F.OLMOS 124                                          5000    200001019999123100064343650
507106434365           001ALBERTENGO ANA MARIA JO                           E.F.OLMOS 124                                          5000    200001019999123100107387800
507106434365           002VALDEMARIN MARIANA ALEJ                           E.F.OLMOS 124                                          5000    200001019999123100296937810
507106434365           003VALDEMARIN GUILLERMO AL                           E.F.OLMOS 124                                          5000    200001019999123100273889950
507106434365           004VALDEMARIN MARCOS ARIEL                           E.F.OLMOS 124                                          5000    200001019999123100248831500
507106434365           005VALDEMARIN PABLO DANIEL                           E.F.OLMOS 124                                          5000    200001019999123100261299440
507106442636           000MEURZET OSCAR                                     RAFAEL NU EZ 236                                       5000    200001019999123100064426360
507106442636           001GARDELA LAURA DEL RO                              RAFAEL NU EZ 236                                       5000    200001019999123100107387440
507106442636           002MEURZET NADIA PATRIC                              RAFAEL NU EZ 236                                       5000    200001019999123100299217530
507106442636           003MEURZET DANIELA SILV                              RAFAEL NU EZ 236                                       5000    200001019999123100256333150
507106442636           004MEURZET MARIA JOSE                                RAFAEL NU EZ 236                                       5000    200001019999123100261299550
507106442636           005MEURZET NATHALIE BEL                              RAFAEL NU EZ 236                                       5000    200001019999123100356753120
507106442636           006MEURZET NICOLAS ANIB                              RAFAEL NU EZ 236                                       5000    200001019999123100312681420
507106442649           000NEGRETTE LUIS ADOLFO                              ITALIA 447                                             5000    200001019999123100064426490
507106442649           001NEGRETE EZEQUIEL CAR                              ITALIA 447                                             5000    200001019999123100204020560
507106443544           000PERALTA JOSE MARTIN                               GRAL PAZ CHACABUCO                                     5000    200308019999123100064435440
507106447165           000CAVALLO RICARDO PEDRO                             CRISTOBAL DE AGUILAR 1793                              5000    200001019999123100064471650
507106447165           001CEBALLOS MARIA CRISTI                             CRISTOBAL DE AGUILAR 1793                              5000    200001019999123100107703030
507106447165           002CAVALLO MARIA LAURA                               CRISTOBAL DE AGUILAR 1793                              5000    200001019999123100309705640
507106447165           003CAVALLO CAROLINA INE                              CRISTOBAL DE AGUILAR 1793                              5000    200001019999123100338090340
507106497016           000CALVETTI ALDO JORGE                               LAPRIDA 468 3 F                                        5000    200001019999123100064970160
507106500790           000MARTINEZ MANUEL HUMBE                             FELIX PAZ 1535                                         5000    200001019999123100065007900
507106500790           001LASCANO GRACIELA SUS                              FELIX PAZ 1535                                         5000    200001019999123100055874720
507106500790           002MARTINEZ MARIA BELEN                              FELIX PAZ 1535                                         5000    200001019999123100269059660
507106500790           003MARTINEZ HORACIO RAFA                             FELIX PAZ 1535                                         5000    200001019999123100238220350
507106501483           000PANIAGUA HECTOR ABEL                              12 DE OCTUBRE 1220                                     5000    200001019999123100065014830
507106501483           001RUIZ MARCELINA                                    12 DE OCTUBRE 1220                                     5000    200001019999123100023583440
507106501483           002PANIAGUA MARIA MERCED                             12 DE OCTUBRE 1220                                     5000    200001019999123100246158980
507106501483           003PANIAGUA MARIA DEL C MAR                          12 DE OCTUBRE 1220                                     5000    200001019999123100246158970
507106501791           000LOPEZ MONICA VIVIA                                                                                       5000    200001019999123100238236820
507106501791           001LOPEZ LEONARDO                                                                                           5000    200001019999123100259219460
507106501791           002LOPEZ CARLOS MATIA                                JULIAN AGUIRRE 2083                                    5000    200001019999123100297157320
507106503077           000TABORDA HECTOR                                    PASAJE MENDOZA 2751                                    5000    200308019999123100065030770
507106503077           001IRMA MERCEDES BUSTAMANTE                          PASAJE MENDOZA 2751                                    5000    200308019999123100036920620
507106503119           000MILLER JUAN CARLOS                                CUYUPAN 917                                            5000    200604019999123100065031190
507106503119           001MONTA¥A PRAXEDES                                  CUYUPAN 917                                            5000    200604019999123100047988380
507106507909           000GONZALEZ FELIX HORACI                             EDUARDO MARQUINA 2345                                  5000    200001019999123100065079090
507106508583           000CREMBIL MARIA SOLEDAD                             LIBERTAD 94                                            5000    200409019999123100065085830
507106510762           000DOMINGUEZ NORBERTO RAF                            PARANA 364 1                                           5000    200001019999123100065107620
507106511277           000MIRANDA OSCAR                                     SOTO 1986                                              5000    200001019999123100065112770
507106511277           001CUELLO ANTONIA YOLA                               SOTO 1986                                              5000    200001019999123100036779300
507106511277           002MIRANDA MARIA VERONI                              SOTO 1986                                              5000    200001019999123100231080800
507106511277           003MIRANDA HUGO PANTALE                              SOTO 1986                                              5000    200001019999123100264135310
507106511579           000OLMOS ALFONSO ANIBAL                              B.ROSEDAL ANEXO - F.BOER                               5000    200001019999123100065115790
507106512380           000REYNA PEDRO JUAN                                  VIEYTES 1166                                           5000    200604019999123100065123800
507106512380           001CABRAL MARENGO MIRTA RIT                          VIEYTES 1166                                           5000    200604019999123100050981650
507106512414           000DOMINGUEZ REYNALDO VEN                            VENUS 626                                              5000    200001019999123100065124140
507106512765           000TORRES MANUEL JESUS                               PJE.VICENTE PEÔA 545                                   5000    200001019999123100065127650
507106512765           001VILDOZA RAQUEL NARCI                              PJE.VICENTE PEâA 545                                   5000    200001019999123100041210960
507106515039           000GARCIA DIEGO RAMON                                EDUARDO MALDONADO 920                                  5000    200001019999123100065150390
507106515039           001ROCHA CANDIDA                                     EDUARDO MALDONADO 920                                  5000    200001019999123100041189260
507106515061           000MONTOYA ALFREDO                                   LA TABLADA 3515                                        5000    200407019999123100065150610
507106515061           001MORENO RAMONA                                     LA TABLADA 3515                                        5000    200407019999123100054556450
507106515061           002MONTOYA PEDRO                                     LA TABLADA 3515                                        5000    200407019999123100334145580
507106517305           000ARIAS LORETO RICARDO                              AVIADOR MIRA 2877  BªAATRA                             5000    200307019999123100065173050
507106517305           001GONZALEZ ROSARIO LUCIA                            AVIADOR MIRA 2877                                      5000    200307019999123100041086850
507106517305           002ARIAS MARIA EVA                                   AVIADOR MIRA 2877                                      5000    200307019999123100292033500
507106518195           000ODDONE LUIS                                       OCTAVIANO NAVARRO 2923                                 5000    200001019999123100065181950
507106518195           001CABRAL DELIA MARIA                                NUEVE 2923                                             5000    200001019999123100037429890
507106519339           000LONGO CELESTINO LUIS                              LA RIOJA 3418                                          5000    200404019999123100065193390
507106519339           001SOSA CARMEN DEL VALLE                             LA RIOJA 3418                                          5000    200404019999123100047890460
507106537910           000DAVICINO ISABEL                                   COLON    CENTRO                                        5817    200303059999123100065379100
507106549791           000MASSERA ROBERTO FRANCISCO                         GALANTI    SIN BARRIO                                  2594    200301069999123100065580570
507106549791           001MASSERA MARIA LUZ                                 GALANTI    SIN BARRIO                                  2594    200301069999123100321371690
507106553107           000GALLO RODOLFO RAUL                                CASTRO BARROS 75 TORRE2                                5000    200009019999123100065531070
507106553107           001MORALES MARIA                                     CASTRO BARROS 75 TORRE2                                5000    200009019999123100054893020
507106553107           002GALLO GUILLERMO                                   CASTRO BARROS 75 TORRE2                                5000    200009019999123100227725560
507106553107           003GALLO MARIANO                                     CASTRO BARROS 75 TORRE2                                5000    200009019999123100297156170
507106559288           000RAUL VICENTE CESARE                               BELGRANO 220                                           5000    200402019999123100065592880
507106559288           001CUELLO NILDA BEATRIZ                              BELGRANO 220                                           5000    200402019999123100102355710
507106560963           000BUSTOS ROSA ELENA                                 24 DE SEPTIEMBRE    LORENZO GIANA                      5823    200302019999123100135200970
507106563767           000PERALTA JUAN DANIEL                               SAN LORENZO 674                                        5000    200604019999123100065637670
507106563767           001BUSTOS GRACIELA ROS                               SAN LORENZO 674                                        5000    200604019999123100105956210
507106588878           000GONZALEZ ROSARIO INES                             LAS HERAS 107                                          5815    200212049999123100065888780
507106588878           001VILLAVERDE JUANA RAMONA                           LAS HERAS 107                                          5815    200212049999123100036965450
507106590344           000PERALTA HECTOR RODOLFO                            LISANDRO DE LA TORRE 728                               5000    200307019999123100065903440
507106590344           001BALMACEDA ZULEMA                                  LISANDRO DE LA TORRE 728                               5000    200307019999123100076663080
507106592019           000CARRANZA JOSE IGNACIO                             URQUIZA Y SAN LORENZO    PROGRESO                      5817    200301019999123100065920190
507106592019           001ULLRICH ANA MARIA                                 URQUIZA Y SAN LORENZO    PROGRESO                      5817    200301019999123100042530470
507106592803           000MALDONADO JULIO ANTONIO                           MENDOZA                                                5000    200604019999123100065928030
507106592803           001BAEZ TERESA CLEBE                                 MENDOZA                                                5000    200604019999123100046686910
507106596750           000PEREYRA ALEMANDO ANT                              JUAN MARENGO 313                                       5000    200604019999123100065967500
507106596750           001PEREYRA JORGELINA MA                              JUAN MARENGO 313                                       5000    200604019999123100271244240
507106596750           002PLATIYI YORRIS MAGDA                              JUAN MARENGO 313                                       5000    200604019999123100059287940
507106598072           000NOCETTI JUAN CARLOS                                                                                      5000    200604019999123100065980720
507106598072           001CAPELLO GRACIELA MAB                                                                                     5000    200604019999123100056648200
507106598448           000BARRERA ROBERTO SANTOS                            JOSE INGENIEROS 577                                    5000    200312019999123100065984480
507106598448           001MUNIATEGUI INES ANA                               JOSE INGENIEROS 577                                    5000    200312019999123100042677780
507106598836           000PERALTA HEBER ROLANDO                             GENERAL LAVALLE                                        5000    200604019999123100065988360
507106601534           000LLANES JORGE ARMANDO                              JUAREZ CELMAN    SIN BARRIO                            2670    200309299999123100066015340
507106601534           001IBARRA MARIA DEL CARMEN                           JUAREZ CELMAN    SIN BARRIO                            2670    200309299999123100042800210
507106602356           000FERNANDEZ SOTERO RAMON                            FRANCIA S/N                                            5000    200307019999123100066023560
507106602356           001OVIEDO CARLINA ROSA                               FRANCIA S/N                                            5000    200307019999123100102509430
507106604354           000RAMELLO HUGO VITTALE                              LAMADRID    SIN BARRIO                                 5815    200212109999123100066043540
507106604354           001RAMELLO MARIA CECILIA                             LAMADRID    SIN BARRIO                                 5815    200212109999123100320129620
507106604354           002RODRIGUEZ MARIA BIBIANA                           LAMADRID    SIN BARRIO                                 5815    200212109999123100115781070
507106604354           003RAMELLO MARIA FERNANDA                            LAMADRID    SIN BARRIO                                 5815    200212109999123100387325240
507106604354           004RAMELLO MARIA VIRGINIA                            LAMADRID    SIN BARRIO                                 5000    200212109999123100346285040
507106614839           000BELTRAMINO OSCAR FRANCI                           RIVADAVIA 560                                          5000    200604019999123100066148390
507106614839           001CINGOLANI LILIANA MARI                            RIVADAVIA 560                                          5000    200604019999123100115497020
507106642549           000REMEDI ALBERTO                                    BV.SAN JUAN    CENTRO                                  5800    200407239999123100066425490
507106646936           000SALVAGNO JORGE OMAR                               FRAY QUIRICO PORRECA 377                               5000    200001019999123100066469360
507106646936           001LUCHESOLLI MIRTA ANGELA                           FRAY QUIRICO PORRECA 377                               5000    200001019999123100051306200
507106646936           002SALVAGNO SONIA CECILI                             FRAY QUIRICO PORRECA 377                               5000    200001019999123100239546920
507106653712           000ASTESANO OSVALDO VICTORIO                         SALTA S/N                                              5000    200309019999123100066537120
507106654902           000HAWRYLAK HELENA                                   ROGELIO MARTINEZ    TANQUE                             5817    200401209999123100117578460
507106654928           000RAMIREZ RAUL ANTONIO                              BV GENERAL PAZ 408                                     5000    200307019999123100066549280
507106654928           001OVIEDO HAYDEE APOLINARIA                          BV GENERAL PAZ 408                                     5000    200307019999123100055856710
507106655943           000GUTIERREZ RICARDO JORGE                           LAZO DE LA VEGA 881                                    5000    200312019999123100066559430
507106655943           001BARTORILA NELIDA                                  LAZO DE LA VEGA 881                                    5000    200312019999123100062571980
507106655943           002GUTIERREZ ANA                                     LAZO DE LA VEGA 881                                    5000    200312019999123100304744550
507106656860           000GARCIA LUIS ALFREDO                               SOBREMONTE 1920   GRAL. PAZ                            5800    200309019999123100066568600
507106656860           001FRACHETTI MARCELA TEODORA                         SOBREMONTE    GRAL. PAZ                                5800    200309019999123100177336050
507106656860           002GARCIA GABRIELA NOEMI                             SOBREMONTE    GRAL. PAZ                                5800    200309019999123100279339420
507106656860           003GARCIA GABRIELA                                   SOBREMONTE 1920   GRAL. PAZ                            5000    200312019999123100294023070
507106688906           000CUEVAS MERCEDES                                                                                          5000    200604019999123100066889060
507106688906           001TORRES ISOLINA FIDE                                                                                      5000    200604019999123100068436910
507106699195           000SEYRAL MARCIAL RAMO                               EMILIO MEINKE 26                                       5000    200001019999123100066991950
507106699195           001LAPERIE MATILDE NORM                              EMILIO MEINKE 26                                       5000    200001019999123100057439580
507106699195           002SEYRAL SERGIO JAVIE                               EMILIO MEINKE 26                                       5000    200001019999123100246701220
507107121884           000MAZAN VICTOR                                      PACHECO DE MENDOZA                                     5000    200604019999123100071218840
507107121884           001MAZAN JOHANA MICAELA                              PACHECO DE MENDOZA                                     5000    200604019999123100380006590
507107280739           000NASIF GEDER                                       PADRE LOZANO 1153                                      5000    200001019999123100072807390
507107375182           000TIRABOSCHI OSCAR EGIDIO                           PABLO PESATTI 7471                                     5000    200604019999123100073751820
507107375182           001ALFARO NORMA S.                                   J.NEWBERY 8834                                         5000    200604019999123100111925550
507107375182           002TIRABOSCHI SERGIO                                 J.NEWBERY 8834                                         5000    200604019999123100355251960
507107378682           000ALMIRON VALERIO                                   PJE BELLA VISTA 4651                                   5000    200407019999123100073786820
507107378682           001ROJAS ROSA RAMONA                                 PJE BELLA VISTA 4651                                   5000    200407019999123100106557060
507107378682           002ALMIRON MARIA FERNANDA                            PJE BELLA VISTA 4651                                   5000    200407019999123100355749790
507107630018           000AGUIRRE ERNESTO                                   DERQUI 75 Y SARMIEBTO                                  5019    200001019999123100076300180
507107630018           001GALLARDO CRISTINA DEL                             DERQUI (SARMIENTO Y S/N                                5000    200001019999123100058822480
507107630018           002AGUIRRE GUSTAVO DANI                              DERQUI (SARMIENTO Y S/N                                5000    200001019999123100315802400
507107630672           000NUNEZ  ALBERTO CAL                                ANCONA 4316                                            5000    200001019999123100076306720
507107630672           001SORIA INES MARIA                                  ANCONA 4316                                            5000    200001019999123100104447690
507107630672           002NUNEZ  MARIA JOSE                                 ANCONA 4316                                            5000    200001019999123100261791030
507107630672           003NUNEZ  ZACARIAS JO                                ANCONA 4316                                            5000    200001019999123100344417260
507107630672           004NUNEZ  SANTIAGO AL                                ANCONA 4316                                            5000    200001019999123100292028460
507107630829           000DESPRAT JUAN EDUARDO                              IGUALDAD 2830                                          5000    200001019999123100076308290
507107630829           001DESPRAT DANIELA MARA                              IGUALDAD 2830                                          5000    200001019999123100243689900
507107630829           002DESPRAT MARCELO AUGU                              IGUALDAD 2830                                          5000    200001019999123100279211690
507107635343           000CERF MIGUEL ANGEL                                 GUILLERMO FURLONG 9093                                 5000    200001019999123100076353430
507107645309           000VERA LUIS DOMINGO                                 LOS MATACOS 1272                                       5000    200410019999123100076453090
507107693618           000LAYUNTA BENJAMIN DIEGO                            EMILIO ROVIGNONI 3162                                  5000    200408019999123100076936180
507107693618           001ALTAMIRANO ELBA                                   EMILIO ROVIGNONI 362                                   5000    200408019999123100107710960
507107693879           000CASTELLANOS JORGE SANTOS                          MANUEL CARSET 3830                                     5000    200310019999123100076938790
507107693879           001ASTUDILLO MARIA C                                 MANUEL CARSET 3830                                     5000    200310019999123100059957780
507107693879           002CASTELLANOS CONSTANZA                             MANUEL CARSET 3830                                     5000    200310019999123100283437100
507107693879           003CASTEALLANOS HEIDI C                              MANUEL CARSET 3830                                     5000    200310019999123100223179280
507107693879           004CASTELLANOS DAVID                                 MANUEL CARSET 3830                                     5000    200310019999123100317425930
507107693879           005CASTELLANOS EMANUEL                               MANUEL CARSET 3830                                     5000    200310019999123100329267630
507107799661           000LLENSE RODOLFO ALBE                               FRAY JOSE LEON TORRE 340                               5000    200001019999123100077996610
507107799661           001BOGGETTA ANA MARIA                                FRAY JOSE LEON TORRE 340                               5000    200001019999123100061309710
507107799661           002LLENSE SOLEDAD ANA                                FRAY JOSE LEON TORRE 340                               5000    200001019999123100263142620
507107799661           003LLENSE ANA VERONICA                               FRAY JOSE LEON TORRE 340                               5000    200001019999123100252674010
507107799661           004LLENSE DIEGO RODOLF                               FRAY JOSE LEON TORRE 340                               5000    200001019999123100284269730
507107843841           000CORONDA FERNANDO IGNACIO                          CAMILO ISLE¹O 4518                                     5000    200001019999123100078438410
507107843841           001BIOLATO MAURA DOMENI                              AVENIDA SAN MARTIN 4299                                5000    200001019999123100935976400
507107848660           000VICENTE EDUARDO RENE                                                                                     5000    200312019999123100078486600
507107848660           001DE PUERTA CRISTINA                                                                                       5000    200312019999123100128186550
507107903992           000CECIK ANDRES                                      BELGRANO 357   SIN BARRIO                              5903    200309159999123100079039920
507107903992           001PEREYRA MIRTA SUSANA                              BELGRANO    SIN BARRIO                                 5903    200309159999123100054465540
507107957236           000MIGNINI CARLOS ALBER                              RIVADAVIA 1053                                         5000    200001019999123100079572360
507107957236           001FENOGLIO NORMI LUCIA                              RIVADAVIA 1053                                         5000    200001019999123100058176920
507107957236           002MIGNINI HORACIO SEBA                              RIVADAVIA 1053                                         5000    200001019999123100269790320
507107958654           000LEDESMA ISIDORO                                   RUTA PROVINCIAL 110 S/N                                5000    200001019999123100079586540
507107958654           001SOSA MARIA ANGELI                                 RUTA PROVINCIAL 110 S/N                                5000    200001019999123100129511370
507107958654           002LEDESMA GUSTAVO ADOL                              RUTA PROVINCIAL 110 S/N                                5000    200001019999123100327184260
507107959924           000CORTEZ OSCAR                                      JOSE ENRIQUE RODO 4535                                 5000    200311019999123100079599240
507107959924           001CARNERO MARINA DEL VALLE                          JOSE ENRIQUE RODO                                      5000    200311019999123100136838660
507107959924           002CORTEZ NELSON DAVID                               JOSE ENRIQUE RODO                                      5000    200311019999123100327868470
507107968051           000MESQUIDA JULIO CESAR                              ONCATIVO 2166                                          5000    200001019999123100079680510
507107968051           001TAVERNA REYNA ALICIA                              ONCATIVO 2166                                          5000    200001019999123100050991680
507107968051           002MESQUIDA REYNA SILVIN                             ONCATIVO 2166                                          5000    200001019999123100264896160
507107968350           000AGUIRRE HECTOR ROQUE                              AVIADOR RICHARDSON 2684                                5000    200310019999123100079683500
507107968350           001BLASETTI FERNANDA                                 AVIADOR RICHARDSON 2684                                5000    200310019999123100931642990
507107980213           000ARRIOLA MIGUEL ANGEL                              CABO 2° GONZALEZ 72                                    5000    200406019999123100079802130
507107980213           001BRITO DELIA ROSA                                  CABO 2ø GONZALEZ 72                                    5000    200406019999123100048529700
507107980587           000FOGLINO RUAL ESTEBAN                              AV. LA CORDILLERA 3980 P                               5000    200001019999123100079805870
507107980587           001MONTENEGRO MARIA INES                             AV. LA CORDILLERA 3980 P                               5000    200001019999123100054524010
507107980587           002FOGLINO NATALIA LUCI                              AV. LA CORDILLERA 3980 P                               5000    200001019999123100257559600
507107982316           000CASTELLI JORGE ERNEST                             MONTANA 1680                                           5000    200001019999123100079823160
507107982316           001JUAREZ ANA MARIA                                  MONTANA 162                                            5000    200001019999123100059568790
507107982316           002CASTELLI SILVINA DEL                              MONTANA 162                                            5000    200001019999123100261806880
507107982316           003CASTELLI JORGE LUIS                               MONTANA 162                                            5000    200001019999123100250817050
507107984604           000ROLLE NESTOR ALBER                                                                                       5000    200604019999123100079846040
507107984604           001CARRIZO GRACIELA                                                                                         5000    200604019999123100054098870
507107992576           000BELTRAN JUAN CARLOS                               RIO DE LAS LETANIAS 1449 B° DE LOS OLMOS SUR           5000    200310019999123100079925760
507107992576           001CRIADO MARIA CRISTINA                             RIO DE LAS LETANIAS 1449 Bø DE LOS OLMOS SUR           5000    200310019999123100051944540
507107992978           000BATTAGLIA OSCAR EDUARDO                           TALMA 2367                                             5010    200606299999123100079929780
507107992978           001DIAZ CATALINA RITA                                TALMA 2367                                             5010    200606299999123100049489390
507107993629           000PURZIANI ROBERTO ANDRES                           COMPTON 5607                                           5000    200604019999123100079936290
507107993629           001JUAREZ MARIA                                      COMPTON 5607                                           5000    200604019999123100062579320
507107993629           002PURZIANI RUTH                                     COMPTON 5607                                           5000    200604019999123100317695700
507107993630           000LAYUNTA RUBEN ANGEL                               RICARDO PALMA 4841                                     5000    200110019999123100079936300
507107993630           001BAZAN MARIA E.                                    RICARDO PALMA 4841                                     5000    200110019999123100110516570
507107993630           002LAYUNTA IVANA                                     RICARDO PALMA 4841                                     5000    200110019999123100318689210
507107993630           003LAYUNTA RUBEN                                     RICARDO PALMA 4841                                     5000    200110019999123100329251720
507107993896           000ABRIGO JOSE ANGEL                                 BERNA 3307                                             5000    200001019999123100079938960
507107993896           001CORTESINI SUSANA RAQUE                            BUCAREST 4651                                          5000    200001019999123100133736050
507107993896           002ABRIGO ELIANA VANES                               BUCAREST 4651                                          5000    200001019999123100344405360
507107994980           000MOLINA RAMON HUMBERTO                             FELIPE BELTRAME 5714                                   5000    200406019999123100079949800
507107994980           001CECCHETO ELVA B                                   FELIPE BELTRAME 5714                                   5000    200406019999123100136624070
507107994980           002MOLINA JUAN DARIO                                 FELIPE BELTRAME 5714                                   5000    200406019999123100355253340
507107994980           003MOLINA MAGALI                                     FELIPE BELTRAME 5714                                   5000    200406019999123100369839820
507107995525           000MEZZANOTTE CARLOS ALBER                           NANZANA 42 TORRE 5 DTO 6 MARIANO FRAGUEIRO             5000    200001019999123100079955250
507107995525           001BUDASSI EVELINA INES                              CRAMER AMBROSIO 373                                    5000    200001019999123100104471160
507107998164           000COCCONI JUAN CARLOS                               ALTO DEL TALA 5718                                     5000    200406019999123100079981640
507107998164           001BARONE EDITA E                                    ALTO DEL TALA 5718                                     5000    200406019999123100044090230
507107999116           000CORIA EDUARDO JOSE                                LAS ROSAS 233                                          5000    200001019999123100079991160
507107999116           001PRADOS LIDIA INES                                 AVIADOR CAMILOTTI 2185                                 5000    200001019999123100066790680
507107999748           000BRAUN ALFREDO                                     JOSE GARIBALDI 679                                     5000    200001019999123100079997480
507107999748           001OTERO RIVERO MARIA ANGEL                          JOSE GARIBALDI 679                                     5000    200001019999123100105455810
507107999748           002BRAUN LORENA VERON                                JOSE GARIBALDI 679                                     5000    200001019999123100286536530
507107999748           003BRAUN LEONARDO MAR                                JOSE GARIBALDI 679                                     5000    200001019999123100303284530
507108000610           000SILVA RUBEN ALBERTO                               FOURNIER 2308                                          5000    200605019999123100080006100
507108000610           001SILVA ANGEL GABRIEL                               FOURNIER 2308                                          5000    200610019999123100410334790
507108000610           002SILVA MARIA FLORENCIA                             FOURNIER 2308                                          5000    200605019999123100424398680
507108000610           003SILVA ROCIO PENELOPE                              FOURNIER 2308                                          5000    200605019999123100425850160
507108000652           000GARZON HORACIO ADOLFO                             O.DE OCAMPO 4484                                       5000    200604019999123100080006520
507108000652           001CORDERA MERCEDES                                  O.DE OCAMPO 4484                                       5000    200604019999123100061664780
507108000652           002GARZON EMILIANO R.                                O.DE OCAMPO 4484                                       5000    200604019999123100264139300
507108000842           000ROMERO JOSE RAMON                                 FLORENTINO AMEGUINO 4774 Bº LISEO II                   5000    200310019999123100080008420
507108063439           000MAGUNA PEDRO MIGUEL                               ALDANA Y ORTEGA 3820                                   5000    200001019999123100080634390
507108063439           001LUNA IRMA FRANCIS                                 ALDANA Y ORTEGA 3820                                   5000    200001019999123100100557840
507108063439           002MAGUNA NATALIA ALEJ                               ALDANA Y ORTEGA 3820                                   5000    200001019999123100315566300
507108063439           003MAGUNA MARCOS ARIEL                               ALDANA Y ORTEGA 3820                                   5000    200001019999123100396225680
507108121900           000GALLO HERRERA PABLO HECT                          EDUARDO MALDONADO 13                                   5000    200604019999123100081219000
507108121900           001PATANE SILVIA ROSA                                EDUARDO MALDONADO 13                                   5000    200604019999123100051652250
507108182474           000GIBELLINI MARIO AUGUST                            MZA 21 CASA 1 IPV CAMINO VILLA POSE                    5000    200001019999123100081824740
507108182474           001GUTIERREZ LIDIA                                   TRAFALGAR 1025                                         5000    200001019999123100113442070
507108182474           002GIBELLINI PAOLA YANINA                            TRAFALGAR 1025                                         5000    200001019999123100314492340
507108184992           000GOMEZ JORGE ALBERTO                               DR MIGUEL GORMAN                                       5000    200604019999123100081849920
507108184992           001GOMEZ GUILLERMO RAMON                             DR MIGUEL GORMAN                                       5000    200604019999123100296070220
507108184992           002FERNANDEZ DE GOMEZ MARIA DEL C                    DR MIGUEL GORMAN                                       5000    200604019999123100102180990
507108276873           000DERINCOVSKY JORGE RICARD                          MAYORGA 1504                                           5000    200001019999123100082768730
507108276873           001SALOMONE LAURA CLOTIL                             MAYORGA 1504                                           5000    200001019999123100105458050
507108276873           002DERINCOUSKY ROMINA LAURA                          MAYORGA 1504                                           5000    200001019999123100254579770
507108276873           003DERINCOUSKY RICARDO                               MAYORGA 1504                                           5000    200001019999123100268153450
507108295420           000NATALINI JOSE ALBERTO                             HOUSSAY 2730                                           5000    200001019999123100082954200
507108295420           001PALOMARES ESTELA RENEE                            HOUSSAY 2730                                           5000    200001019999123100111946370
507108313649           000GOMEZ ALBERTO MARTINIANO                          JOSE V. LAGOS 385                                      5000    200604019999123100083136490
507108363929           000RODRIGUEZ PEDRO RUBEN                             JORGE NEWBERY                                          5000    200604019999123100083639290
507108363929           001REARTES MARIA DORA                                JORGE NEWBERY                                          5000    200604019999123100104551690
507108390215           000PASCUAL CARLOS ALBERTO                            RINCóN 1326 DTO 2 - B° GRAL PAZ                        5000    200206019999123100083902150
507108390215           001BALDANI LUC¡A MAR¡A                               RINC¢N 1326 DTO 2 - Bø GRAL PAZ                        5000    200206019999123100046038620
507108390986           000BRACCIAVENTI CARLOS ALBE                          FRANCISCO DEL CARRIL 390                               5000    200001019999123100083909860
507108390986           001PORTUGAL ANA CRISTINA                             FRANCISCO DEL CARRIL 390                               5000    200001019999123100133702520
507108391060           000BAZAN RAMON HUGO                                  PABLO NERUDA 186                                       5000    200001019999123100083910600
507108391060           001GIMENEZ MARTA                                     PABLO NERUDA 186                                       5000    200001019999123100054126750
507108391060           002GIMENEZ MARTA DEL VA                              PABLO NERUDA 186                                       5000    200001019999123100005416750
507108391060           003BAZAN DANIEL MAXIM                                PABLO NERUDA 186                                       5000    200001019999123100287086170
507108391060           004BAZAN CARLOS ALBER                                PABLO NERUDA 186                                       5000    200001019999123100271889580
507108391618           000MONTENEGRO HUGO RAMON                             CALLE 4 ESQUINA 3 S/N BO. ARENALES                     5000    200308019999123100083916180
507108391682           000FISSORE EDITA JUANA                               SARMIENTO    CENTRO                                    2424    200406019999123100118212570
507108391682           001BERTINETTI MARIA EMILSE                           SARMIENTO    CENTRO                                    2424    200406019999123100322204210
507108401883           000BONAVERI HECTOR LEONA                             MANZANA 1 CASA 1 S/N                                   5000    200001019999123100084018830
507108401883           001BONAVERI SALAS MARIA ABR                          MANZANA 1 CASA 1 S/N                                   5000    200001019999123100418463800
507108410264           000ROMERO FRANCISCO HE                               DUBLIN 3322                                            5000    200001019999123100084102640
507108410264           001CASTILLO ELSA                                     DUBLIN 3322                                            5000    200001019999123100117453380
507108410264           002ROMERO IVANNA EDIT                                DUBLIN 3322                                            5000    200001019999123100249926590
507108410264           003ROMERO PAOLA DEL RO                               DUBLIN 3322                                            5000    200001019999123100283443800
507108410264           004ROMERO HECTOR CESAR                               DUBLIN 3322                                            5000    200001019999123100257572440
507108410416           000BALBOA CRISTOBAL SE                               JOSE TERRY S/N                                         5000    200001019999123100084104160
507108410416           001ZAPATA MARIA EVA                                  JOSE TERRY S/N                                         5000    200001019999123100110511710
507108410416           002BALBOA JONATHAN GAS                               JOSE TERRY S/N                                         5000    200001019999123100361447660
507108410627           000ROMERO ANGEL OSVALD                               EMILIO ACHAVAL 1154                                    5000    200001019999123100084106270
507108410627           001GARAY RAFAELA AMAN                                EMILIO ACHAVAL 1154                                    5000    200001019999123100037341390
507108410830           000PERALTA MIGUEL BERNA                              OLIVARES 2630                                          5000    200001019999123100084108300
507108410830           001BUSTOS ROSA RAMONA                                OLIVARES 2630                                          5000    200001019999123100119714660
507108410830           002PERALTA ALEJANDRA SO                              OLIVARES 2630                                          5000    200001019999123100299686790
507108410830           003PERALTA MARIELA SOFI                              OLIVARES 2630                                          5000    200001019999123100359634580
507108411673           000CAPPELLETTI JULIO HECTOR                          MANUEL ORIBE 2966                                      5000    200001019999123100084116730
507108411673           001DMYTRUK ALEJANDRA                                 MANUEL ORIBE 2966                                      5000    200001019999123100104470430
507108411673           002CAPPELLETTI GABRIELA LAU                          MANUEL ORIBE 2966                                      5000    200001019999123100257565640
507108411673           003CAPPELLETTI PAOLA ALEJAN                          MANUEL ORIBE 2966                                      5000    200001019999123100281140640
507108411673           004CAPPELLETTI ARIEL LEONAR                          MANUEL ORIBE 2966                                      5000    200001019999123100323144010
507108424543           000BULA VICTOR ADOLF                                 OSCARIZ Y BEAUMONT 2396                                5000    200001019999123100084245430
507108424543           001PALACIOS NERIA                                    OSCARIZ Y BEAUMONT 2396                                5000    200001019999123100059808200
507108424543           002BULA LUCIANA INES                                 OSCARIZ Y BEAUMONT 2396                                5000    200001019999123100322804850
507108429459           000CORRO JUAN CARLOS                                 TALA CAÑADA 3076 1° A AMPL SAN CARLOS                  5000    200406019999123100084294590
507108429459           001APARICIO SILVIA SUSANA                            TALA CA¥ADA 3076 1ø A AMPL SAN CARLOS                  5000    200406019999123100136805310
507108429459           002CORRO MICAELA ANDREA                              TALA CA¥ADA 3076 1ø A AMPL SAN CARLOS                  5000    200406019999123100329259910
507108439177           000RAINAUDO MIGUEL ANGEL                                                                                    5000    200604019999123100084391770
507108439177           001RAINAUDO JOAQUIN JESU                                                                                    5000    200604019999123100314037380
507108439177           002RAINAUDO FEDERICO ROM                                                                                    5000    200604019999123100338814950
507108439177           003COLMENARES ELSA DEL VAL                                                                                  5000    200604019999123100135410200
507108439177           004RAINAUDO LUIS MIGUEL                                                                                     5000    200604019999123100330451870
507108439275           000GODOY ALEJANDRO ALBERTO                           20 DE JUNIO                                            5000    200604019999123100084392750
507108439275           001BUSTOS ADA NELI                                   20 DE JUNIO                                            5000    200604019999123100063876750
507108454246           000VELAZQUEZ ANGEL RENE                              BV MITRE 3556 BG S M                                   5000    200001019999123100084542460
507108454246           001VELAZQUEZ MARIA LAURA                             BV MITRE 3556 BG S M                                   5000    200001019999123100257592320
507108454246           002VELAZQUEZ JUAN MANUEL                             BV MITRE 3556 BG S M                                   5000    200001019999123100296082360
507108454246           003VELAZQUEZ MARIA EUGENI                            BV MITRE 3556 BG S M                                   5000    200001019999123100222226600
507108454246           004LUCERO ROSA DEL VAL                               BV MITRE 3556 BG S M                                   5000    200001019999123100100461380
507108473098           000SALAS HUGO MANUEL                                 CUBA 965   BANDA NORTE                                 5800    200503229999123100084730980
507108473098           001MANA MARIA GLADYS                                 CUBA    BANDA NORTE                                    5800    200503229999123100057948810
507108473297           000PAISIO LUIS ALBERTO                               PUEYRREDON 169   SIN BARRIO                            5980    199810019999123100084732970
507108473297           001SECCHINO MIRTA DELIA                              PUEYRREDON    SIN BARRIO                               5980    199810019999123100121458480
507108473297           002PAISIO ALEJANDRA                                  PUEYRREDON    SIN BARRIO                               5980    199810019999123100134037590
507108473297           003PAISIO EZEQUIEL                                   PUEYRREDON 169   SIN BARRIO                            5000    200001019999123100271244710
507108473865           000ODDINO ALBERTO CECILIO                            25 DE MAYO 817   SIN BARRIO                            2645    200403299999123100084738650
507108473865           001ZAMPROGNO OLGA MABEL                              25 DE MAYO    SIN BARRIO                               2645    200403299999123100103664430
507108473865           002ODDINO MARIANA MABEL                              25 DE MAYO    SIN BARRIO                               2645    200403299999123100293615200
507108498475           000CUNNINGHAN MARIO REINALD                          CALLE 15 N 6570 INAU                                   5000    200001019999123100084984750
507108498475           001MANSILLA NORMA SOFIA                              CALLE 15 N 6570 INAU                                   5000    200001019999123100050977280
507108498571           000SARASATE CARLOS RAMON                             FELIX DE ZUNIGA 4208                                   5000    200605019999123100084985710
507108498571           001ALTAMIRANDA MARIA                                 FELIX ZUNIGA 4208                                      5000    200605019999123100135379720
507108518811           000VEGA ENRIQUE OSCAR                                JOSE HERNANDEZ 4885                                    5000    200404019999123100085188110
507108518811           001SALINAS ROSA IRMA                                 JOSE HERNANDEZ 4885                                    5000    200404019999123100105523510
507108518811           002VEGA CRISTIAN DANTE                               JOSE HERNANDEZ 4885                                    5000    200404019999123100319971270
507108518811           003VEGA MARIANA DEL VALLE                            JOSE HERNANDEZ 4885                                    5000    200404019999123100331179130
507108556403           000FERNANDEZ VICTOR MARCI                            COLON E/SGO.DEL ESTE 754                               5000    200001019999123100085564030
507108578336           000LOPEZ VICTOR HUGO                                 CATAMARCA    CENTRO                                    5825    200410019999123100085783360
507108598176           000GONZALEZ CARLOS JAVIE                             ENTRE RIOS 386                                         5000    200001019999123100085981760
507108598176           001CAMOLETTO ANA MARIA                               ENTRE RIOS 386                                         5000    200001019999123100121457380
507108598176           002GONZALEZ FLORENCIA                                ENTRE RIOS 386                                         5000    200001019999123100358692790
507108598176           003GONZALEZ JULIETA                                  ENTRE RIOS 386                                         5000    200001019999123100230872030
507108598933           000JIMENEZ RUBEN ANTONIO                             A.ROQUE ARIAS 2370                                     5000    200604019999123100085989330
507108598933           001ABREGO ELIDA                                      A.ROQUE ARIAS 2370                                     5000    200604019999123100122989420
507108598933           002JIMENEZ GUSTAVO                                   A.ROQUE ARIAS 2370                                     5000    200604019999123100318689000
507108620615           000GUZMAN JORGE OMAR                                 DEAN FUNES 3371                                        5000    200408019999123100086206150
507108620615           001FONTANELLA ALICIA                                 DEAN FUNES 3371                                        5000    200408019999123100165076420
507108620615           002GUZMAN GUADALUPE                                  DEAN FUNES 3371 2¦ PISO DEPTO. D                       5000    200408019999123100423366440
507108620865           000PARINO VICTOR HUGO                                27 DE ABRIL 1797 4 C                                   5000    200001019999123100086208650
507108620865           001MORICONI MARIA CRISTI                             27 DE ABRIL 1797 4 C                                   5000    200001019999123100111957430
507108620865           002PARINO VERONICA AND                               27 DE ABRIL 1797 4 C                                   5000    200001019999123100271722170
507108620865           003PARINO DIEGO EXEQUI                               27 DE ABRIL 1797 4 C                                   5000    200001019999123100304749200
507108625189           000BELTRAMINO MIGUEL ANGEL                           LAVALLE 24                                             5000    200604019999123100086251890
507110029523           000ALLENDE HECTOR FRANC                              ALDO F. VERGARA 471 LAS DALIAS                         5000    200001019999123100100295230
507110029523           001AGUERO EUDOSIA NICO                               "PUBLICA ""A""" 771                                    5000    200001019999123100065556010
507110038229           000MARQUEZ OSCAR ALFRED                              PASCUAL DE ROGATIS 3441                                5000    200001019999123100100382290
507110046893           000TOBARES CLEMENTE VICTOR                           CONSEJAL PENALOZA 410                                  5000    200408019999123100100468930
507110046893           001ESCALANTE ELBA N                                  CONSEJAL PENALOZA 410                                  5000    200408019999123100120234450
507110046893           002TOBARES ALEJANDRA                                 CONSEJAL PENALOZA 410                                  5000    200408019999123100296084410
507110046893           003TOBARES MELINA                                    CONSEJAL PENALOZA 410                                  5000    200408019999123100309716180
507110046893           004TOBARES NICOLAS                                   CONSEJAL PENALOZA 410                                  5000    200408019999123100378206650
507110047044           000MARTINO JOSE LUIS                                 BOULEV.CHACABUCO CAS 130                               5000    200001019999123100100470440
507110050787           000BIANCO CARLOS ALBERTO                             RUTA 9 ILM 657                                         5000    200308019999123100100507870
507110050787           001BUSTILLO ELSA BEATRIZ                             RUTA 9 ILM 657                                         5000    200308019999123100112440720
507110050787           002BIANCO ADRIANA DEL V.                             RUTA 9 ILM 657                                         5000    200308019999123100280837280
507110050787           003BIANCO FRANCO E.                                  RUTA 9 ILM 657                                         5000    200308019999123100385034520
507110050900           000COPPARI GRACIELA DEL VALLE                        FLORIDA 930   SAN JUAN BAUTISTA                        5000    200604019999123100116171170
507110050900           001MONTECHIARI LUCA OMAR                             FLORIDA    SAN JUAN BAUTISTA                           5000    200604019999123100355561820
507110050900           002MONTECHIARI DIEGO DAVID                           FLORIDA    SAN JUAN BAUTISTA                           5000    200604019999123100313002630
507110050900           003MONTECHIARI JOSE OMAR                             FLORIDA    SAN JUAN BAUTISTA                           5000    200604019999123100313002630
507110053620           000TORRES JONATHAN JULIO                             SAN LUIS    SARMIENTO                                                  9999123100452457800
507110053650           000RAMIREZ JUAN CARLOS                               BUENOS  AIRES 1201   SAN ANTONIO                       5000    200604019999123100269139180
507110053650           001RAMIREZ MATIAS ROMAN                              BUENOS  AIRES    SAN ANTONIO                           5000    200604019999123100455923580
507110053650           002BELTRAMO DANIELA SOLEDAD                          BUENOS  AIRES    SAN ANTONIO                           5000    200604019999123100299957330
507110054466           000BRACAMONTE PEDRO HIGINIO                          ALEJANDRO AGUADO    BIMACO                             5800    200410019999123100100544660
507110054466           001SORIA VALENTINA LUDOVINA                          ALEJANDRO AGUADO    BIMACO                             5800    200410019999123100062595880
507110056633           000GOMEZ SABINA LUCIA                                LONCOCHE 8330                                          5000    200406019999123100100566330
507110056633           001SOSA ANGEL                                        LONCOCHE 8330                                          5000    200406019999123100079538660
507110067580           000WIESNER GRACIELA SUSANA                           BERNARDO BAUDINO 283   SIN BARRIO                      5000    200604019999123100136888640
507110067600           000SZMULA MARIA FERNANDA                             LAVALLE 379   SIN BARRIO                               5000    200604019999123100236795830
507110067980           000PASCUALONE OSCAR CESAR                            CHUBUT 1234   BANDA NORTE                              5000    200604019999123100124306200
507110067980           001FERNANDEZ RITA LUCRECIA                           CHUBUT    BANDA NORTE                                  5000    200604019999123100184484250
507110067980           002PASCUALONE GISELA ELIZABETH                       CHUBUT    BANDA NORTE                                  5000    200604019999123100329333580
507110067980           003PASCUALONE JULIETA LUCIANA                        CHUBUT    BANDA NORTE                                  5000    200604019999123100393254680
507110067980           004PASCUALONE TOMAS LUCIANO                          CHUBUT    BANDA NORTE                                  5000    200604019999123100436064300
507110071190           000CASTIGLIANO ANDRES HORACIO                        HIPOLITO IRIGOYEN    CENTRO EMPLEADOS DE COME          5000    200604019999123100256571400
507110071190           001STABLUN MARIA LINA VERONICA                       HIPOLITO IRIGOYEN    CENTRO EMPLEADOS DE COME          5000    200604019999123100256164070
507110071190           002CASTIGLIANO MARTINA                               HIPOLITO IRIGOYEN    CENTRO EMPLEADOS DE COME          5000    200604019999123100431335560
507110105760           000MARTINEZ CARLOS ARIEL                             PARAGUAY    CENTRO                                     5000    200604019999123100247248530
507110106430           000PEREZ ESTEBAN MATIAS                              PJE PUBLICO CASA N°9 85   SANTA CATALINA               5000    200604019999123100286450080
507110129830           000MENENDEZ ELSA DEL VALLE                           BELGRANO  S/N    CENTRO                                5000    200604019999123100067275110
507110130800           000SGRAZZUTTI ALEJANDRO MARCELO                      VELEZ SARFIELD    CENTRO                               5000    200604019999123100284464330
507110134170           000GONZALEZ MATEO NICOLAS                            JUAN JOSE CASTELLI    BIMACO                                           9999123100463093280
507110135960           000MOINE RICARDO GERMAN                              CERVANTES    VILLA DALCAR                              5000    200604019999123100216944960
507110135960           001MOINE BIANCA DEL ROSARIO                          CERVANTES    VILLA DALCAR                              5000    200604019999123100434768950
507110135960           002EMILIANI GABRIELA DELIA                           CERVANTES    VILLA DALCAR                              5000    200604019999123100219982720
507110145680           000SALGADO FRANCO                                    SARMIENTO 1698  8 SAN JUSTO                            5000    200604019999123100284556830
507110149650           000OTONELLI MARIA VERENA                             CUATRO   10 VILLA GOLF                                 5000    200604019999123100232269730
507110149650           001OTTONELLI ROCIO                                   CUATRO    VILLA GOLF                                   5000    200604019999123100450891520
507110153210           000PERETTI DANIEL ALEJANDRO                          MISIONES 563   B.IPV                                   5000    200604019999123100253682570
507110153210           001PERETTI ESTEFANIA MAGALI                          MISIONES    B.IPV                                      5000    200604019999123100454054260
507110154810           000FERNANDEZ LAUTARO                                 9 DE JULIO    CENTRO                                                   9999123100463778210
507110157920           000GENNERO ROMINA ELIZABETH                          INTENDENTE DAGUERRE 750   SIN BARRIO                   5000    200604019999123100300302580
507110171570           000CASTRO MIGUEL ANGEL                               ESTRADA    CASANOVAS                                   5000    200604019999123100084732140
507110172426           000BIALET ZARAZAGA ROBERTO                           ESTEBAN PAGLIERI 7084                                  5000    200001019999123100101724260
507110172426           001PERALTA AMAYA SANDRA NOR                          ESTEBAN PAGLIERI 7084                                  5000    200001019999123100160838990
507110172426           002BIALET ZARAZAGA RODRIGO                           ESTEBAN PAGLIERI 7084                                  5000    200001019999123100334149300
507110172426           003BIALET ZARAZAGA RAMIRO L                          ESTEBAN PAGLIERI 7084                                  5000    200001019999123100355789460
507110172808           000MELER EULALIA ANA                                 MANUEL PADILLA 4443                                    5000    200502019999123100101728080
507110173009           000MAURIZI LEONARDO SERGIO                           LA PAMPA 1380                                          5000    200607109999123100101730090
507110173009           001ALEM NELIDA SUSANA                                LA PAMPA 1380                                          5000    200607109999123100064925860
507110234400           000RUBIOLO HECTOR JOSE                               C. PELLEGRINI 96                                       5000    200604019999123100102344000
507110234400           001CERUTTI GILDA SILVIA                              C. PELLEGRINI 96                                       5000    200604019999123100135078160
507110234400           002RUBIOLO MANUEL                                    C. PELLEGRINI 96                                       5000    200604019999123100298391790
507110235401           000DEKIMPE RENE ALBERTO                              BELGRANO 602   CENTRO                                  5000    200401139999123100102354010
507110235401           001BOCCONI NILDA ROSA                                BELGRANO    CENTRO                                     5000    200401139999123100120700010
507110235401           002DEKIMPE CARLA MERCEDES                            BELGRANO    CENTRO                                     5000    200401139999123100307795130
507110235567           000RAMIREZ RICARDO OSCAR                             MARCOS JUAREZ    SIN BARRIO                            5903    200309159999123100102355670
507110235567           001TORRES MARIA HERCILIA                             MARCOS JUAREZ    SIN BARRIO                            5903    200309159999123100124889440
507110251174           000AVOLEDO IRMA BEATRIZ                              LAVALLE 54   CENTRO                                    5850    200506249999123100102511740
507110366326           000BAROTTO NORMA ESTER                               NAVARRA Nº 1987 Bº MAIPU                               5000    200406019999123100103663260
507110366326           001BAROTTO JOAQUIN IGNACIO                           NAVARRA N§ 1987 B§ MAIPU                               5000    200406019999123100373147540
507110376035           000CUELLO DANTE ROBERT                               SANCHEZ ARIÑO 3650 DTO 1 PLANTA BAJA                   5000    200001019999123100103760350
507110376035           001RAMIREZ STELLA MARIS                              JUAN GHERRA-MZA 19-L S/N                               5000    200001019999123100133747760
507110376035           002CUELLO DAYANA AYELE                               JUAN GHERRA-MZA 19-L S/N                               5000    200001019999123100355786640
507110376035           003CUELLO GISELA YANET                               JUAN GHERRA-MZA 19-L S/N                               5000    200001019999123100335981020
507110376656           000CECCONELLO ERNESTO RAMON                          AV PATRIA 1430                                         5000    200409019999123100103766560
507110376656           001CECCONELLO MAURO J                                AV PATRIA 1430                                         5000    200409019999123100304732670
507110376656           002CECCONELLO ROMINA                                 AV PATRIA 1430                                         5000    200409019999123100338927020
507110376971           000BUSTOS JOSE ALFREDO                               AGUSTIN GARZON 3236                                    5000    200501019999123100103769710
507110376971           001CASAS RITA YOLANDA                                AGUSTIN GARZON 3236                                    5000    200501019999123100128072460
507110377951           000VACA LEPOLDO RICA                                 JUAN MANUEL LA SERNA 188                               5000    200001019999123100103779510
507110377951           001ZAMORA SELMIRA SUSA                               JUAN MANUEL LA SERNA 188                               5000    200001019999123100067287600
507110377951           002VACA IVANNA ELIZA                                 JUAN MANUEL LA SERNA 188                               5000    200001019999123100252466820
507110377951           003VACA ALEJANDRA NO                                 JUAN MANUEL LA SERNA 188                               5000    200001019999123100275499540
507110421066           000SALVADOR ANA MARIA                                FRANCISCO MIRANDA 845                                  5000    200408019999123100104210660
507110421066           001RONCO JULIO FRANCISCO                             FRANCISCO MIRANDA 845                                  5000    200408019999123100144098810
507110421066           002RONCO SOFIA PAULA                                 FRANCISCO MIRANDA 845                                  5000    200408019999123100395421710
507110421177           000ABBA HUGO EDUARDO                                 JULIO A. ROCA 357                                      5000    200001019999123100104211770
507110421177           001RATKEVICH NORMA NOEMI                             JULIO A. ROCA 357                                      5000    200001019999123100133506970
507110421177           002ABBA ANALIA VERON                                 JULIO A. ROCA 357                                      5000    200001019999123100276950110
507110421177           003ABBA LORENA ESTEF                                 JULIO A. ROCA 357                                      5000    200001019999123100320799310
507110421177           004ABBA ANTONELLA RO                                 JULIO A. ROCA 357                                      5000    200001019999123100394476480
507110444838           000VILLARREAL MARIA DEL CARMEN                       FLORENTINO AMEGUINO 4774 Bº LISEO II                   5000    200310019999123100104448380
507110449300           000ROSA DEL VALLE FANER                              MERCANTIL Y PATRIA                                     5000    200312019999123100104493000
507110449300           001MALDONADO JOSE ROBERTO                            MERCANTIL Y PATRIA                                     5000    200312019999123100130152550
507110542523           000BAIGORRIA FRANCISCO                               9 DE SEPTIEMBRE 3795   SIN BARRIO                      2400    200308139999123100105425230
507110543425           000SALVINI EDUARDO FRANCISCO                         JUNCAL (O) 273 DTO 12                                  5152    200606139999123100104534250
507110543425           001MERCADO LUCIA DEL VALLE                           JUNCAL (O) 273 DTO 12                                  5152    200606139999123100126142340
507110543425           002SALVINI ELIZABETH RITA                            JUNCAL (O) 273 DTO 12                                  5152    200606139999123100336001710
507110543425           003SALVINI LOURDES ANAHI                             JUNCAL (O) 273 DTO 12                                  5152    200606139999123100389852930
507110543626           000DE LUCA ELSA SUSANA                               SAN CAYETANO 3316                                      5000    200001019999123100105436260
507110544177           000PEREYRA MELE CARLOS ALBE                          BALCARCE 541 1øA NUEVA C                               5000    200101019999123100105441770
507110595666           000SALVATORI ODEL ANDRES                             HIPOLITO IRIGOYEN 630                                  5000    200001019999123100105956660
507110595666           001FARRONI INES DEL VAL                              HIPOLITO IRIGOYEN 630                                  5000    200001019999123100166524470
507110595666           002SALVATORI ANA BELEN                               HIPOLITO IRIGOYEN 630                                  5000    200001019999123100371229460
507110595666           003SALVATORI ANDRES                                  HIPOLITO IRIGOYEN 630                                  5000    200001019999123100330451990
507110682235           000GARCIA OSCAR ALBERTO                              CORRIENTES 1591                                        5000    200406019999123100106822350
507110682235           001BOSSA MIRTHA                                      CORRIENTES 1591                                        5000    200406019999123100149215030
507110682235           002GARCIA SILVANA                                    CORRIENTES 1591                                        5000    200406019999123100318447640
507110682235           003GARCIA FABIO ARIEL                                CORRIENTES 1591                                        5000    200406019999123100341313540
507110683623           000ALGARBE LUIS ALBERTO                              MONTES DE OCA Y DIEGO DE TORRES 2557                   5000    200311019999123100106836230
507110683623           001MOYA MARIA                                        17 DE JULIO 3807                                       5000    200311019999123100062585880
507110700846           000FARIAS ELVIO ANTONIO                              FRANCISCO DE ARTEAGA 1761                              5003    200606139999123100107008460
