202011280810001300000000000000000235                8000000000027231248531BELCAGUY MARIA LUCIANA        000000000565001000000000000000000000000000000000000000000000000000000000000000000000000000000000000000000000000000000000PES00010000001 00000000000000000000000000000000000000000                              000000000000000
202009140010033100000000000000293469                8000000000030579939008TRANSPORTE LA SEVILLANITA SRL 000000000082422000000000000000000000000000000000000000000000000000000000000000000000000000000000000000000000000000000000PES00010000001 00000000000000000000000000000000000000000                              000000000000000
202009150010033500000000000000170441                8000000000030579939008TRANSPORTE LA SEVILLANITA SRL 000000000149347000000000000000000000000000000000000000000000000000000000000000000000000000000000000000000000000000000000PES00010000001 00000000000000000000000000000000000000000                              000000000000000
202010210010000400000000000000007549                8000000000020144761627DROGUERIA FRANACOR            000000000807151000000000000000000000000386400000000000000000000000000000000000000000000000000000000000000000000000000000PES00010000001 00000000000000000000000000000000000000000                              000000000000000
202011110010000400000000000000007681                8000000000020144761627DROGUERIA FRANACOR            000000000236286000000000000000000000000173400000000000000000000000000000000000000000000000000000000000000000000000000000PES00010000001 00000000000000000000000000000000000000000                              000000000000000
202011190010000400000000000000007739                8000000000020144761627DROGUERIA FRANACOR            000000001212080000000000000000000000001141900000000000000000000000000000000000000000000000000000000000000000000000000000PES00010000002 00000000000000000000000000000000000000000                              000000000000000
202011260010000400000000000000007777                8000000000020144761627DROGUERIA FRANACOR            000000000893222000000000000000000000000893222000000000000000000000000000000000000000000000000000000000000000000000000000PES00010000000 00000000000000000000000000000000000000000                              000000000000000
202011170010820200000000000021242439                8000000000030639453738TELECOM ARGENTINA S.A.(FARMAC)000000000099386000000000000000000000000000000000000000000000000000000000000000000000000000000000000000000000000000000000PES00010000001 00000000000000000000000000000000000000000                              000000000000000
202011170010820400000000000021174383                8000000000030639453738TELECOM ARGENTINA S.A.(FARMAC)000000000095352000000000000000000000000000000000000000000000000000000000000000000000000000000000000000000000000000000000PES00010000001 00000000000000000000000000000000000000000                              000000000000000
202011170010820400000000000021174402                8000000000030639453738TELECOM ARGENTINA S.A.(FARMAC)000000000078075000000000000000000000000000000000000000000000000000000000000000000000000000000000000000000000000000000000PES00010000001 00000000000000000000000000000000000000000                              000000000000000
202011170010820500000000000021152914                8000000000030639453738TELECOM ARGENTINA S.A.(FARMAC)000000000147444000000000000000000000000000000000000000000000000000000000000000000000000000000000000000000000000000000000PES00010000001 00000000000000000000000000000000000000000                              000000000000000
202011190010000100000000000000008851                8000000000020255014626CAPSA SANTIAGO                000000001681900000000000000000000000000000000000000000000000000000000000000000000000000000000000000000000000000000000000PES00010000001 00000000000000000000000000000000000000000                              000000000000000
202011120010001000000000000000006737                8000000000030658127094LAB.PANALAB DE PANALAB SA ARGE000000013618037000000000000000000000000000000000000000000000000000000000000000000000000000000000000000000000000000000000PES00010000001 00000000000000000000000000000000000000000                              000000000000000
202011120010001000000000000000006738                8000000000030658127094LAB.PANALAB DE PANALAB SA ARGE000000000866667000000000000000000000000000000000000000000000000000000000000000000000000000000000000000000000000000000000PES00010000001 00000000000000000000000000000000000000000                              000000000000000
202011240010001300000000000000010530                8000000000030658127094LAB.PANALAB DE PANALAB SA ARGE000000000407794000000000000000000000000000000000000000000000000000000000000000000000000000000000000000000000000000000000PES00010000001 00000000000000000000000000000000000000000                              000000000000000
202011170010011100000000000001204648                8000000000030682519416FARMANET S.A.                 000000004648900000000000000000000000000000000000000000112473000000000000000000000000000000000000000000000000000000000000PES00010000002 00000000000000000000000000000000000000000                              000000000000000
202011170010011100000000000001204657                8000000000030682519416FARMANET S.A.                 000000003946785000000000000000000000003516665000000000010405000000000000000000000000000000000000000000000000000000000000PES00010000003 00000000000000000000000000000000000000000                              000000000000000
202011170010011100000000000001204659                8000000000030682519416FARMANET S.A.                 000000000618887000000000000000000000000618887000000000000000000000000000000000000000000000000000000000000000000000000000PES00010000000 00000000000000000000000000000000000000000                              000000000000000
202011130820000800000000000000016674                8000000000030715678450MULTIENVASES SRL              000000000340000000000000340000000000000000000000000000000000000000000000000000000000000000000000000000000000000000000000PES00010000000 00000000000000000000000000000000000000000                              000000000000000
202011130820000800000000000000016675                8000000000030715678450MULTIENVASES SRL              000000000065000000000000065000000000000000000000000000000000000000000000000000000000000000000000000000000000000000000000PES00010000000 00000000000000000000000000000000000000000                              000000000000000
