202011060010004100000000000000002050                8000000000030708065036EL PINTAO PINTURERIA DE REKA S000000003820662000000000000000000000000000000000000000000000000000000000000000000000000000000000000000000000000000000000PES00010000001 00000000000000000000000000000000000000000                              000000000000000
202011130010004100000000000000002066                8000000000030708065036EL PINTAO PINTURERIA DE REKA S000000001829581000000000000000000000000000000000000000000000000000000000000000000000000000000000000000000000000000000000PES00010000001 00000000000000000000000000000000000000000                              000000000000000
202011200110000200000000000000000027                8000000000020081210552EPSTEIN CARLOS RODOLFO        000000000300000000000000300000000000000000000000000000000000000000000000000000000000000000000000000000000000000000000000PES00010000000 00000000000000000000000000000000000000000                              000000000000000
202011040110000300000000000000000154                8000000000023062449314AVILA DE DELTROZZO INES M.    000000006300000000000006300000000000000000000000000000000000000000000000000000000000000000000000000000000000000000000000PES00010000000 00000000000000000000000000000000000000000                              000000000000000
202011090110000300000000000000000155                8000000000023062449314AVILA DE DELTROZZO INES M.    000000000400155000000000400155000000000000000000000000000000000000000000000000000000000000000000000000000000000000000000PES00010000000 00000000000000000000000000000000000000000                              000000000000000
202011050010000600000000000000009034                8000000000020234118820SIALLE GUILLERMO MIGUEL       000000000800000000000000000000000000000000000000000000000000000000000000000000000000000000000000000000000000000000000000PES00010000001 00000000000000000000000000000000000000000                              000000000000000
202011300010253100000000000000102266                8000000000030708574836CORREO ARGENTINO. CORREO OFICI000000000260000000000000000000000000000260000000000000000000000000000000000000000000000000000000000000000000000000000000PES00010000000 00000000000000000000000000000000000000000                              000000000000000
202011300820000300000000000000063328                8000000000030686717670MISIONES MADERAS SRL          000000000038855000000000038855000000000000000000000000000000000000000000000000000000000000000000000000000000000000000000PES00010000000 00000000000000000000000000000000000000000                              000000000000000
202011300820000300000000000000063333                8000000000030686717670MISIONES MADERAS SRL          000000000026790000000000026790000000000000000000000000000000000000000000000000000000000000000000000000000000000000000000PES00010000000 00000000000000000000000000000000000000000                              000000000000000
202011160820000600000000000000360630                8000000000030709387282SUPERMERCADO MONTENEGRO..DE MO000000000042495000000000042495000000000000000000000000000000000000000000000000000000000000000000000000000000000000000000PES00010000000 00000000000000000000000000000000000000000                              000000000000000
202011270010000400000000000000000337                8000000000020211128152BAJO CERO REFRIGERACION DE COL000000000095976000000000000000000000000000000000000000000000000000000000000000000000000000000000000000000000000000000000PES00010000001 00000000000000000000000000000000000000000                              000000000000000
202011040010000900000000000000000184                8000000000020175142119LIMPIO +  DE ANTONIO DAVID    000000000087640000000000000000000000000000000000000000000000000000000000000000000000000000000000000000000000000000000000PES00010000001 00000000000000000000000000000000000000000                              000000000000000
202011120110000300000000000000000574                8000000000020175142119LIMPIO +  DE ANTONIO DAVID    000000000350000000000000350000000000000000000000000000000000000000000000000000000000000000000000000000000000000000000000PES00010000000 00000000000000000000000000000000000000000                              000000000000000
202011180110000300000000000000000577                8000000000020175142119LIMPIO +  DE ANTONIO DAVID    000000000060000000000000060000000000000000000000000000000000000000000000000000000000000000000000000000000000000000000000PES00010000000 00000000000000000000000000000000000000000                              000000000000000
202011260810004800000000000000002595                8000000000030518314714REFRIGERACION NORTE SRL       000000000449989000000000000000000000000000000000000000000000000000000000000000000000000000000000000000000000000000000000PES00010000001 00000000000000000000000000000000000000000                              000000000000000
202011120820002100000000000000012394                8000000000020129355221MARCOS VIZOSO LIBROS          000000000072000000000000072000000000000000000000000000000000000000000000000000000000000000000000000000000000000000000000PES00010000000 00000000000000000000000000000000000000000                              000000000000000
202011130820002200000000000000051424                8000000000020129355221MARCOS VIZOSO LIBROS          000000000018000000000000018000000000000000000000000000000000000000000000000000000000000000000000000000000000000000000000PES00010000000 00000000000000000000000000000000000000000                              000000000000000
202011040110000200000000000000000055                8000000000020206097958VC DE HECTOR MARCELO VASQUEZ C000000004675900000000004675900000000000000000000000000000000000000000000000000000000000000000000000000000000000000000000PES00010000000 00000000000000000000000000000000000000000                              000000000000000
202011010010000600000000000000031828                8000000000030710076789VIGIA ELECTRONICA DE ALERTA S.000000000460000000000000000000000000000000000000000000000000000000000000000000000000000000000000000000000000000000000000PES00010000001 00000000000000000000000000000000000000000                              000000000000000
202011110010000200000000000000000077                8000000000030711932980PR SRL                        000000004386000000000000000000000000000000000000000000000000000000000000000000000000000000000000000000000000000000000000PES00010000001 00000000000000000000000000000000000000000                              000000000000000
202011120110000200000000000000000581                8000000000027273912903IDEART DE SILVIA A RUIZ       000000000140000000000000140000000000000000000000000000000000000000000000000000000000000000000000000000000000000000000000PES00010000000 00000000000000000000000000000000000000000                              000000000000000
202011160060000300000000000000000276                8000000000020066991181FERRETERIA LOZA DE NICOLAS F L000000000190000000000000190000000000000000000000000000000000000000000000000000000000000000000000000000000000000000000000PES00010000000 00000000000000000000000000000000000000000                              000000000000000
202011040010001000000000000000004538                8000000000020146819681TECNORT DE ING. WALTER BORDON 000000000387200000000000000000000000000000000000000000000000000000000000000000000000000000000000000000000000000000000000PES00010000001 00000000000000000000000000000000000000000                              000000000000000
202002130010001000000000000000004647                8000000000020146819681TECNORT DE ING. WALTER BORDON 000000000387200000000000000000000000000000000000000000000000000000000000000000000000000000000000000000000000000000000000PES00010000001 00000000000000000000000000000000000000000                              000000000000000
202011170110000200000000000000000024                8000000000020226170031FORTINA MIGUEL MARCELO        000000000160000000000000160000000000000000000000000000000000000000000000000000000000000000000000000000000000000000000000PES00010000000 00000000000000000000000000000000000000000                              000000000000000
202011110110000200000000000000000045                8000000000020211123290AHUAD RODOLFO JOSE (SERVICIOS 000000000910000000000000910000000000000000000000000000000000000000000000000000000000000000000000000000000000000000000000PES00010000000 00000000000000000000000000000000000000000                              000000000000000
202011260110000200000000000000000047                8000000000020211123290AHUAD RODOLFO JOSE (SERVICIOS 000000001080000000000001080000000000000000000000000000000000000000000000000000000000000000000000000000000000000000000000PES00010000000 00000000000000000000000000000000000000000                              000000000000000
202011030810000200000000000000003072                8000000000030714623911LUCRECIA EDITORIAL DE LUESCI S000000000006000000000000000000000000000000000000000000000000000000000000000000000000000000000000000000000000000000000000PES00010000001 00000000000000000000000000000000000000000                              000000000000000
202011040810000200000000000000003076                8000000000030714623911LUCRECIA EDITORIAL DE LUESCI S000000000140498000000000000000000000000000000000000000000000000000000000000000000000000000000000000000000000000000000000PES00010000001 00000000000000000000000000000000000000000                              000000000000000
202011060810000200000000000000003079                8000000000030714623911LUCRECIA EDITORIAL DE LUESCI S000000000006000000000000000000000000000000000000000000000000000000000000000000000000000000000000000000000000000000000000PES00010000001 00000000000000000000000000000000000000000                              000000000000000
202011120810000200000000000000003082                8000000000030714623911LUCRECIA EDITORIAL DE LUESCI S000000000006000000000000000000000000000000000000000000000000000000000000000000000000000000000000000000000000000000000000PES00010000001 00000000000000000000000000000000000000000                              000000000000000
202011130810000200000000000000003083                8000000000030714623911LUCRECIA EDITORIAL DE LUESCI S000000000003000000000000000000000000000000000000000000000000000000000000000000000000000000000000000000000000000000000000PES00010000001 00000000000000000000000000000000000000000                              000000000000000
202011250010000200000000000000000677                8000000000033711531829SERVICIOS INTEGRALES SANTIAGO 000000003025000000000000000000000000000000000000000000000000000000000000000000000000000000000000000000000000000000000000PES00010000001 00000000000000000000000000000000000000000                              000000000000000
202009110810000200000000000000005134                8000000000030714146099CLIX SA                       000000000320000000000000000000000000000000000000000000000000000000000000000000000000000000000000000000000000000000000000PES00010000001 00000000000000000000000000000000000000000                              000000000000000
202011040110000200000000000000000061                8000000000020242776349MURILLO MARTIN MIGUEL         000000000250000000000000250000000000000000000000000000000000000000000000000000000000000000000000000000000000000000000000PES00010000000 00000000000000000000000000000000000000000                              000000000000000
202011230110000200000000000000000179                8000000000027234114803SERVICIOS TECNICOS-MARCELA FAB000000000644000000000000644000000000000000000000000000000000000000000000000000000000000000000000000000000000000000000000PES00010000000 00000000000000000000000000000000000000000                              000000000000000
202011040010000500000000000000001017                8000000000020072031408COPISTERIA SIGMA-MANUEL LAITAN000000000252999000000000000000000000000000000000000000000000000000000000000000000000000000000000000000000000000000000000PES00010000001 00000000000000000000000000000000000000000                              000000000000000
202011160010000500000000000000001018                8000000000020072031408COPISTERIA SIGMA-MANUEL LAITAN000000000274549000000000000000000000000000000000000000000000000000000000000000000000000000000000000000000000000000000000PES00010000001 00000000000000000000000000000000000000000                              000000000000000
202011100110000200000000000000000090                8000000000020230427837PRODUCTORA MASUEL ***JM HERRER000000000150000000000000150000000000000000000000000000000000000000000000000000000000000000000000000000000000000000000000PES00010000000 00000000000000000000000000000000000000000                              000000000000000
202011020010000500000000000000009350                8000000000027184764747BILOG DE FANTINI ORTIZ MARIA C000000000350000000000000000000000000000000000000000000000000000000000000000000000000000000000000000000000000000000000000PES00010000001 00000000000000000000000000000000000000000                              000000000000000
202011020110000200000000000000000131                8000000000020114020185PEREZ RAUL MIGUEL RAMON       000000000610000000000000610000000000000000000000000000000000000000000000000000000000000000000000000000000000000000000000PES00010000000 00000000000000000000000000000000000000000                              000000000000000
202011160110000200000000000000000133                8000000000020114020185PEREZ RAUL MIGUEL RAMON       000000000395000000000000395000000000000000000000000000000000000000000000000000000000000000000000000000000000000000000000PES00010000000 00000000000000000000000000000000000000000                              000000000000000
202011240110000200000000000000000134                8000000000020114020185PEREZ RAUL MIGUEL RAMON       000000001100000000000001100000000000000000000000000000000000000000000000000000000000000000000000000000000000000000000000PES00010000000 00000000000000000000000000000000000000000                              000000000000000
202011040110000500000000000000000092                8000000000020147541997SUPER NOVA SERVICIOS PUBLICITA000000000600000000000000600000000000000000000000000000000000000000000000000000000000000000000000000000000000000000000000PES00010000000 00000000000000000000000000000000000000000                              000000000000000
202011020110000200000000000000000005                8000000000020163085993IAGATTI MARIO FRANCISCO       000000004000000000000004000000000000000000000000000000000000000000000000000000000000000000000000000000000000000000000000PES00010000000 00000000000000000000000000000000000000000                              000000000000000
202011060110000100000000000000000026                8000000000020293770116ORELLANA JUAN CARLOS          000000000480000000000000480000000000000000000000000000000000000000000000000000000000000000000000000000000000000000000000PES00010000000 00000000000000000000000000000000000000000                              000000000000000
202011300110000100000000000000000028                8000000000020293770116ORELLANA JUAN CARLOS          000000001510000000000001510000000000000000000000000000000000000000000000000000000000000000000000000000000000000000000000PES00010000000 00000000000000000000000000000000000000000                              000000000000000
202007130110000100000000000000000464                8000000000020376818447SERVICE BELGRANO DE JONATAN A 000000000190000000000000190000000000000000000000000000000000000000000000000000000000000000000000000000000000000000000000PES00010000000 00000000000000000000000000000000000000000                              000000000000000
202009070110000100000000000000000524                8000000000020376818447SERVICE BELGRANO DE JONATAN A 000000000190000000000000190000000000000000000000000000000000000000000000000000000000000000000000000000000000000000000000PES00010000000 00000000000000000000000000000000000000000                              000000000000000
202010100110000100000000000000000553                8000000000020376818447SERVICE BELGRANO DE JONATAN A 000000000190000000000000190000000000000000000000000000000000000000000000000000000000000000000000000000000000000000000000PES00010000000 00000000000000000000000000000000000000000                              000000000000000
202011110110000100000000000000000577                8000000000020376818447SERVICE BELGRANO DE JONATAN A 000000000210000000000000210000000000000000000000000000000000000000000000000000000000000000000000000000000000000000000000PES00010000000 00000000000000000000000000000000000000000                              000000000000000
202011040060000600000000000000000236                8000000000020263687516CAFE BELGRANO                 000000000016000000000000016000000000000000000000000000000000000000000000000000000000000000000000000000000000000000000000PES00010000000 00000000000000000000000000000000000000000                              000000000000000
202011130060000600000000000000000238                8000000000020263687516CAFE BELGRANO                 000000000014000000000000014000000000000000000000000000000000000000000000000000000000000000000000000000000000000000000000PES00010000000 00000000000000000000000000000000000000000                              000000000000000
202011180060000600000000000000000239                8000000000020263687516CAFE BELGRANO                 000000000051000000000000051000000000000000000000000000000000000000000000000000000000000000000000000000000000000000000000PES00010000000 00000000000000000000000000000000000000000                              000000000000000
202007070010000200000000000000003779                8000000000030710799500U24 DE SANTIAGO EMERGENCIAS SR000000009821250000000009821250000000000000000000000000000000000000000000000000000000000000000000000000000000000000000000PES00010000000 00000000000000000000000000000000000000000                              000000000000000
202011090010000200000000000000004037                8000000000030710799500U24 DE SANTIAGO EMERGENCIAS SR000000012381600000000000000000000000012381600000000000000000000000000000000000000000000000000000000000000000000000000000PES00010000000 00000000000000000000000000000000000000000                              000000000000000
202011050820000300000000000000010481                8000000000027942598276JIANHUA GUO                   000000000030500000000000030500000000000000000000000000000000000000000000000000000000000000000000000000000000000000000000PES00010000000 00000000000000000000000000000000000000000                              000000000000000
202011040110000100000000000000000006                8000000000027401688264MORE ALEJANDRA EMANUELLE      000000001000000000000001000000000000000000000000000000000000000000000000000000000000000000000000000000000000000000000000PES00010000000 00000000000000000000000000000000000000000                              000000000000000
202011130810002200000000000000000013                8000000000020231616811INSUTEL DE RAFAEL CARLOS EDUAR000000000990000000000000000000000000000000000000000000000000000000000000000000000000000000000000000000000000000000000000PES00010000001 00000000000000000000000000000000000000000                              000000000000000
202011050110000200000000000000000039                8000000000020377367961CORONEL PABLO AGUSTIN         000000000013000000000000013000000000000000000000000000000000000000000000000000000000000000000000000000000000000000000000PES00010000000 00000000000000000000000000000000000000000                              000000000000000
202011090110000200000000000000000069                8000000000027279079324BARQUET GABRIELA NATALIA      000000002216700000000002216700000000000000000000000000000000000000000000000000000000000000000000000000000000000000000000PES00010000000 00000000000000000000000000000000000000000                              000000000000000
202011050110000500000000000000000052                8000000000020321322507MUÑOZ JAVIER ALBERTO          000000000035000000000000035000000000000000000000000000000000000000000000000000000000000000000000000000000000000000000000PES00010000000 00000000000000000000000000000000000000000                              000000000000000
202011100010000800000000000000000310                8000000000030714092975ORTOPEDIA TUCUMAN             000000002286000000000000000000000000002286000000000000000000000000000000000000000000000000000000000000000000000000000000PES00010000000 00000000000000000000000000000000000000000                              000000000000000
202011100010000800000000000000000311                8000000000030714092975ORTOPEDIA TUCUMAN             000000005274000000000000000000000000005274000000000000000000000000000000000000000000000000000000000000000000000000000000PES00010000000 00000000000000000000000000000000000000000                              000000000000000
202011020010001000000000000000021630                8000000000030690245392ETICA S.A.                    000000000202500000000000000000000000000202500000000000000000000000000000000000000000000000000000000000000000000000000000PES00010000000 00000000000000000000000000000000000000000                              000000000000000
202011020010001000000000000000021631                8000000000030690245392ETICA S.A.                    000000000202500000000000000000000000000202500000000000000000000000000000000000000000000000000000000000000000000000000000PES00010000000 00000000000000000000000000000000000000000                              000000000000000
202011300060020000000000000000040684                8000000000030500852131AIR LIQUIDE ARGENTINA SA      000000000215380000000000000000000000000215380000000000000000000000000000000000000000000000000000000000000000000000000000PES00010000000 00000000000000000000000000000000000000000                              000000000000000
202011170010820400000000000021174425                8000000000030639453738TELECOM ARGENTINA SA (O.SOCIAL000000000267808000000000057896000000000000000000000000000000000000000000000000000000000000000000000000000000000000000000PES00010000001 00000000000000000000000000000000000000000                              000000000000000
202011170010820400000000000021196775                8000000000030639453738TELECOM ARGENTINA SA (O.SOCIAL000000000205580000000000000000000000000000000000000000000000000000000000000000000000000000000000000000000000000000000000PES00010000001 00000000000000000000000000000000000000000                              000000000000000
202011170010820500000000000021152937                8000000000030639453738TELECOM ARGENTINA SA (O.SOCIAL000000000181374000000000000000000000000000000000000000000000000000000000000000000000000000000000000000000000000000000000PES00010000002 00000000000000000000000000000000000000000                              000000000000000
202011050110000200000000000000000065                8000000000020167715304RUIZ FRANCISCO SANTIAGO       000000000700000000000000700000000000000000000000000000000000000000000000000000000000000000000000000000000000000000000000PES00010000000 00000000000000000000000000000000000000000                              000000000000000
202011050010001000000000000000114096                8000000000030500091181EL LIBERAL S.A.               000000000012000000000000000000000000000000000000000000000000000000000000000000000000000000000000000000000000000000000000PES00010000001 00000000000000000000000000000000000000000                              000000000000000
202011160010001000000000000000114264                8000000000030500091181EL LIBERAL S.A.               000000000012000000000000000000000000000000000000000000000000000000000000000000000000000000000000000000000000000000000000PES00010000001 00000000000000000000000000000000000000000                              000000000000000
202011170060000400000000000000663995                8000000000030500091181EL LIBERAL S.A.               000000000012000000000000012000000000000000000000000000000000000000000000000000000000000000000000000000000000000000000000PES00010000000 00000000000000000000000000000000000000000                              000000000000000
202011130010000200000000000000009421                8000000000030655433917PROSINF S.C.                  000000000082000000000000000000000000000000000000000000000000000000000000000000000000000000000000000000000000000000000000PES00010000001 00000000000000000000000000000000000000000                              000000000000000
202011180010000200000000000000009440                8000000000030655433917PROSINF S.C.                  000000000164000000000000000000000000000000000000000000000000000000000000000000000000000000000000000000000000000000000000PES00010000001 00000000000000000000000000000000000000000                              000000000000000
202011050010002900000000000000444270                8000000000033675098749EDESE S.A.                    000000005726301000000000274030000000000000000000000000000000000000000000000000000000000000000000000000000000000000000000PES00010000001 00000000000000000000000000000000000000000                              000000000000000
202011100010010600000000000001453654                8000000000030657865725GASNOR-                       000000000039213000000000003491000000000000000000000000000000000000000000000000000000000000000000000000000000000000000000PES00010000001 00000000000000000000000000000000000000000                              000000000000000
202011030110010500000000000000009621                8000000000030657865725GASNOR-                       000000000108555000000000008099000000000000000000000000002318000000000000000000000000000000000000000000000000000000000000PES00010000001 00000000000000000000000000000000000000000                              000000000000000
202011260010000300000000000000000141                8000000000030620895683ELECTROCENTRO S.R.L.          000000000213086000000000000000000000000000000000000000000000000000000000000000000000000000000000000000000000000000000000PES00010000001 00000000000000000000000000000000000000000                              000000000000000
202011120010001900000000000000002913                8000000000030707713840PAPELERIA BASBUS-DECAN S.C.   000000012288000000000000000000000000000000000000000000000000000000000000000000000000000000000000000000000000000000000000PES00010000001 00000000000000000000000000000000000000000                              000000000000000
202011190060000200000000000000000203                8000000000020076896586SABER, CLAUDIO ESTEBAN        000000000140000000000000140000000000000000000000000000000000000000000000000000000000000000000000000000000000000000000000PES00010000000 00000000000000000000000000000000000000000                              000000000000000
202011270060002900000000000017092163                8000000000033675098749EDESE - OBRA SOCIAL           000000000029439000000000007635000000000000000000000000002593000000000000000000000000000000000000000000000000000000000000PES00010000001 00000000000000000000000000000000000000000                              000000000000000
202011020010004000000000000000000035                8000000000030641871547DASU - OBRA SOCIAL            000000003500000000000000000000000000000000000000000000000000000000000000000000000000000000000000000000000000000000000000PES00010000001 00000000000000000000000000000000000000000                              000000000000000
202011080010047100000000000001520402                8000000000030639453738TELECOM ARGENTINA (ARNET)FARMA000000000877920000000000000000000000000000000000000000021240000000000000000000000000000000000000000000000000000000000000PES00010000001 00000000000000000000000000000000000000000                              000000000000000
202010010010000400000000000000000248                8000000000030609762426PARQUE DE LA PAZ S.A.         000000000392000000000000000000000000000000000000000000000000000000000000000000000000000000000000000000000000000000000000PES00010000001 00000000000000000000000000000000000000000                              000000000000000
202011020010000400000000000000000253                8000000000030609762426PARQUE DE LA PAZ S.A.         000000000392000000000000000000000000000000000000000000000000000000000000000000000000000000000000000000000000000000000000PES00010000001 00000000000000000000000000000000000000000                              000000000000000
202011170010001700000000000000000881                8000000000034546198105DASPU                         000000001322312000000000000000000000001322312000000000000000000000000000000000000000000000000000000000000000000000000000PES00010000000 00000000000000000000000000000000000000000                              000000000000000
202011050110002100000000000000003438                8000000000030653135544SUMA (MAR DEL PLATA)          000000000680150000000000000000000000000680150000000000000000000000000000000000000000000000000000000000000000000000000000PES00010000000 00000000000000000000000000000000000000000                              000000000000000
202011060010000500000000000000000005                8000000000027226171687LUCCA NELA P.                 000000034830000000000000000000000000034830000000000000000000000000000000000000000000000000000000000000000000000000000000PES00010000000 00000000000000000000000000000000000000000                              000000000000000
202011260110000200000000000000000108                8000000000023317399049FARES BERNARDO                000000002500000000000000000000000000002500000000000000000000000000000000000000000000000000000000000000000000000000000000PES00010000000 00000000000000000000000000000000000000000                              000000000000000
202011300110000200000000000000000027                8000000000020261616190CONESA ALEJANDRO J.           000000008704300000000000000000000000008704300000000000000000000000000000000000000000000000000000000000000000000000000000PES00010000000 00000000000000000000000000000000000000000                              000000000000000
202011260150000200000000000000000069                8000000000023207870994CENTRO ODONTOLOGICO DE IMPLANT000000001196430000000000000000000000001196430000000000000000000000000000000000000000000000000000000000000000000000000000PES00010000000 00000000000000000000000000000000000000000                              000000000000000
202011180010010100000000000000001238                8000000000027100198717CANTOS FONSECA                000000008190000000000000000000000000008190000000000000000000000000000000000000000000000000000000000000000000000000000000PES00010000000 00000000000000000000000000000000000000000                              000000000000000
202011300110000200000000000000000100                8000000000027336348493CUELLAR YOHANA                000000002400000000000000000000000000002400000000000000000000000000000000000000000000000000000000000000000000000000000000PES00010000000 00000000000000000000000000000000000000000                              000000000000000
202011300110000200000000000000000036                8000000000027339920090PAGLIONI ANA BELEN            000000000288000000000000000000000000000288000000000000000000000000000000000000000000000000000000000000000000000000000000PES00010000000 00000000000000000000000000000000000000000                              000000000000000
