202011270010000200000000000000008549                8000000000030715587013GLENS S A                     000000000288657000000000000000000000000000000000000000000000000000000000000000000000000000000000000000000000000000000000PES00010000001 00000000000000000000000000000000000000000                              000000000000000
202011270010000200000000000000008554                8000000000030715587013GLENS S A                     000000004471244000000000000000000000000000000000000000000000000000000000000000000000000000000000000000000000000000000000PES00010000001 00000000000000000000000000000000000000000                              000000000000000
202010050030004300000000000000000010                8000000000030708832541MAGLIONE SRL                  000000000847979000000000000000000000000000000000000000000000000000000000000000000000000000000000000000000000000000000000PES00010000001 00000000000000000000000000000000000000000                              000000000000000
202008260010001900000000000000282293                8000000000030708832541MAGLIONE SRL                  000000000613373000000000000000000000000000000000000000000000000000000000000000000000000000000000000000000000000000000000PES00010000001 00000000000000000000000000000000000000000                              000000000000000
202010050010004300000000000000000277                8000000000030708832541MAGLIONE SRL                  000000004942172000000000000000000000000000000000000000000000000000000000000000000000000000000000000000000000000000000000PES00010000001 00000000000000000000000000000000000000000                              000000000000000
202010050010004300000000000000000278                8000000000030708832541MAGLIONE SRL                  000000000847979000000000000000000000000000000000000000000000000000000000000000000000000000000000000000000000000000000000PES00010000001 00000000000000000000000000000000000000000                              000000000000000
202010050010004300000000000000000279                8000000000030708832541MAGLIONE SRL                  000000001800344000000000000000000000000000000000000000000000000000000000000000000000000000000000000000000000000000000000PES00010000001 00000000000000000000000000000000000000000                              000000000000000
202010050010004300000000000000000280                8000000000030708832541MAGLIONE SRL                  000000000277553000000000000000000000000000000000000000000000000000000000000000000000000000000000000000000000000000000000PES00010000001 00000000000000000000000000000000000000000                              000000000000000
202010050010004300000000000000000281                8000000000030708832541MAGLIONE SRL                  000000001339964000000000000000000000000000000000000000000000000000000000000000000000000000000000000000000000000000000000PES00010000001 00000000000000000000000000000000000000000                              000000000000000
202010050010004300000000000000000282                8000000000030708832541MAGLIONE SRL                  000000000414851000000000000000000000000000000000000000000000000000000000000000000000000000000000000000000000000000000000PES00010000001 00000000000000000000000000000000000000000                              000000000000000
202010050010004300000000000000000283                8000000000030708832541MAGLIONE SRL                  000000000414851000000000000000000000000000000000000000000000000000000000000000000000000000000000000000000000000000000000PES00010000001 00000000000000000000000000000000000000000                              000000000000000
202010050010004300000000000000000284                8000000000030708832541MAGLIONE SRL                  000000000414851000000000000000000000000000000000000000000000000000000000000000000000000000000000000000000000000000000000PES00010000001 00000000000000000000000000000000000000000                              000000000000000
202010050010004300000000000000000285                8000000000030708832541MAGLIONE SRL                  000000000414851000000000000000000000000000000000000000000000000000000000000000000000000000000000000000000000000000000000PES00010000001 00000000000000000000000000000000000000000                              000000000000000
202010050010004300000000000000000286                8000000000030708832541MAGLIONE SRL                  000000000414851000000000000000000000000000000000000000000000000000000000000000000000000000000000000000000000000000000000PES00010000001 00000000000000000000000000000000000000000                              000000000000000
202010050010004300000000000000000287                8000000000030708832541MAGLIONE SRL                  000000000414851000000000000000000000000000000000000000000000000000000000000000000000000000000000000000000000000000000000PES00010000001 00000000000000000000000000000000000000000                              000000000000000
202010050010004300000000000000000289                8000000000030708832541MAGLIONE SRL                  000000000414851000000000000000000000000000000000000000000000000000000000000000000000000000000000000000000000000000000000PES00010000001 00000000000000000000000000000000000000000                              000000000000000
202010050010004300000000000000000337                8000000000030708832541MAGLIONE SRL                  000000000752137000000000000000000000000000000000000000000000000000000000000000000000000000000000000000000000000000000000PES00010000001 00000000000000000000000000000000000000000                              000000000000000
202010070010004300000000000000000558                8000000000030708832541MAGLIONE SRL                  000000000738407000000000000000000000000000000000000000000000000000000000000000000000000000000000000000000000000000000000PES00010000001 00000000000000000000000000000000000000000                              000000000000000
202010130010004300000000000000000989                8000000000030708832541MAGLIONE SRL                  000000000733023000000000000000000000000000000000000000000000000000000000000000000000000000000000000000000000000000000000PES00010000001 00000000000000000000000000000000000000000                              000000000000000
202010140010004300000000000000001132                8000000000030708832541MAGLIONE SRL                  000000000069732000000000000000000000000000000000000000000000000000000000000000000000000000000000000000000000000000000000PES00010000001 00000000000000000000000000000000000000000                              000000000000000
202010280010004300000000000000002102                8000000000030708832541MAGLIONE SRL                  000000000235785000000000000000000000000000000000000000000000000000000000000000000000000000000000000000000000000000000000PES00010000001 00000000000000000000000000000000000000000                              000000000000000
202010290010004300000000000000002252                8000000000030708832541MAGLIONE SRL                  000000000235856000000000000000000000000000000000000000000000000000000000000000000000000000000000000000000000000000000000PES00010000001 00000000000000000000000000000000000000000                              000000000000000
202010290010004300000000000000002273                8000000000030708832541MAGLIONE SRL                  000000000073176000000000000000000000000000000000000000000000000000000000000000000000000000000000000000000000000000000000PES00010000001 00000000000000000000000000000000000000000                              000000000000000
202010300010004300000000000000002333                8000000000030708832541MAGLIONE SRL                  000000002097475000000000000000000000000000000000000000000000000000000000000000000000000000000000000000000000000000000000PES00010000001 00000000000000000000000000000000000000000                              000000000000000
202011030010004300000000000000002536                8000000000030708832541MAGLIONE SRL                  000000000331184000000000000000000000000000000000000000000000000000000000000000000000000000000000000000000000000000000000PES00010000001 00000000000000000000000000000000000000000                              000000000000000
202011050010004300000000000000002710                8000000000030708832541MAGLIONE SRL                  000000000219020000000000000000000000000000000000000000000000000000000000000000000000000000000000000000000000000000000000PES00010000001 00000000000000000000000000000000000000000                              000000000000000
202011050010004300000000000000002726                8000000000030708832541MAGLIONE SRL                  000000000070516000000000000000000000000000000000000000000000000000000000000000000000000000000000000000000000000000000000PES00010000001 00000000000000000000000000000000000000000                              000000000000000
202011060010004300000000000000002831                8000000000030708832541MAGLIONE SRL                  000000000509301000000000000000000000000000000000000000000000000000000000000000000000000000000000000000000000000000000000PES00010000001 00000000000000000000000000000000000000000                              000000000000000
202011070010004300000000000000002882                8000000000030708832541MAGLIONE SRL                  000000000059556000000000000000000000000000000000000000000000000000000000000000000000000000000000000000000000000000000000PES00010000001 00000000000000000000000000000000000000000                              000000000000000
202011090010004300000000000000002997                8000000000030708832541MAGLIONE SRL                  000000000138874000000000000000000000000000000000000000000000000000000000000000000000000000000000000000000000000000000000PES00010000001 00000000000000000000000000000000000000000                              000000000000000
202011100010004300000000000000003048                8000000000030708832541MAGLIONE SRL                  000000000217813000000000000000000000000000000000000000000000000000000000000000000000000000000000000000000000000000000000PES00010000001 00000000000000000000000000000000000000000                              000000000000000
202011100010004300000000000000003129                8000000000030708832541MAGLIONE SRL                  000000000150144000000000000000000000000000000000000000000000000000000000000000000000000000000000000000000000000000000000PES00010000001 00000000000000000000000000000000000000000                              000000000000000
202011110010004300000000000000003158                8000000000030708832541MAGLIONE SRL                  000000000378827000000000000000000000000000000000000000000000000000000000000000000000000000000000000000000000000000000000PES00010000001 00000000000000000000000000000000000000000                              000000000000000
202011110010004300000000000000003182                8000000000030708832541MAGLIONE SRL                  000000000554634000000000000000000000000000000000000000000000000000000000000000000000000000000000000000000000000000000000PES00010000001 00000000000000000000000000000000000000000                              000000000000000
202011130010004300000000000000003369                8000000000030708832541MAGLIONE SRL                  000000000432449000000000000000000000000000000000000000000000000000000000000000000000000000000000000000000000000000000000PES00010000001 00000000000000000000000000000000000000000                              000000000000000
202011240010004300000000000000004040                8000000000030708832541MAGLIONE SRL                  000000000126128000000000000000000000000000000000000000000000000000000000000000000000000000000000000000000000000000000000PES00010000001 00000000000000000000000000000000000000000                              000000000000000
202010050010004900000000000000000137                8000000000030708832541MAGLIONE SRL                  000000000225673000000000000000000000000000000000000000000000000000000000000000000000000000000000000000000000000000000000PES00010000001 00000000000000000000000000000000000000000                              000000000000000
202010050010004900000000000000000287                8000000000030708832541MAGLIONE SRL                  000000000356756000000000000000000000000000000000000000000000000000000000000000000000000000000000000000000000000000000000PES00010000001 00000000000000000000000000000000000000000                              000000000000000
202010050010004900000000000000000309                8000000000030708832541MAGLIONE SRL                  000000000098344000000000000000000000000000000000000000000000000000000000000000000000000000000000000000000000000000000000PES00010000001 00000000000000000000000000000000000000000                              000000000000000
202010050010004900000000000000000311                8000000000030708832541MAGLIONE SRL                  000000000764144000000000000000000000000000000000000000000000000000000000000000000000000000000000000000000000000000000000PES00010000001 00000000000000000000000000000000000000000                              000000000000000
202010050010004900000000000000000314                8000000000030708832541MAGLIONE SRL                  000000000434311000000000000000000000000000000000000000000000000000000000000000000000000000000000000000000000000000000000PES00010000001 00000000000000000000000000000000000000000                              000000000000000
202010290010004900000000000000000885                8000000000030708832541MAGLIONE SRL                  000000000218395000000000000000000000000000000000000000000000000000000000000000000000000000000000000000000000000000000000PES00010000001 00000000000000000000000000000000000000000                              000000000000000
202010070010004900000000000000001181                8000000000030708832541MAGLIONE SRL                  000000001082531000000000000000000000000000000000000000000000000000000000000000000000000000000000000000000000000000000000PES00010000001 00000000000000000000000000000000000000000                              000000000000000
202010070010004900000000000000001186                8000000000030708832541MAGLIONE SRL                  000000000129775000000000000000000000000000000000000000000000000000000000000000000000000000000000000000000000000000000000PES00010000001 00000000000000000000000000000000000000000                              000000000000000
202010070010004900000000000000001195                8000000000030708832541MAGLIONE SRL                  000000001514443000000000000000000000000000000000000000000000000000000000000000000000000000000000000000000000000000000000PES00010000001 00000000000000000000000000000000000000000                              000000000000000
202010070010004900000000000000001199                8000000000030708832541MAGLIONE SRL                  000000000706075000000000000000000000000000000000000000000000000000000000000000000000000000000000000000000000000000000000PES00010000001 00000000000000000000000000000000000000000                              000000000000000
202010070010004900000000000000001201                8000000000030708832541MAGLIONE SRL                  000000000150485000000000000000000000000000000000000000000000000000000000000000000000000000000000000000000000000000000000PES00010000001 00000000000000000000000000000000000000000                              000000000000000
202010070010004900000000000000001226                8000000000030708832541MAGLIONE SRL                  000000000801062000000000000000000000000000000000000000000000000000000000000000000000000000000000000000000000000000000000PES00010000001 00000000000000000000000000000000000000000                              000000000000000
202010130010004900000000000000002484                8000000000030708832541MAGLIONE SRL                  000000000553096000000000000000000000000000000000000000000000000000000000000000000000000000000000000000000000000000000000PES00010000001 00000000000000000000000000000000000000000                              000000000000000
202010130010004900000000000000002502                8000000000030708832541MAGLIONE SRL                  000000000550802000000000000000000000000000000000000000000000000000000000000000000000000000000000000000000000000000000000PES00010000001 00000000000000000000000000000000000000000                              000000000000000
202010130010004900000000000000002590                8000000000030708832541MAGLIONE SRL                  000000000079662000000000000000000000000000000000000000000000000000000000000000000000000000000000000000000000000000000000PES00010000001 00000000000000000000000000000000000000000                              000000000000000
202010130010004900000000000000002750                8000000000030708832541MAGLIONE SRL                  000000001442944000000000000000000000000000000000000000000000000000000000000000000000000000000000000000000000000000000000PES00010000001 00000000000000000000000000000000000000000                              000000000000000
202010280010004900000000000000007291                8000000000030708832541MAGLIONE SRL                  000000000257075000000000000000000000000000000000000000000000000000000000000000000000000000000000000000000000000000000000PES00010000001 00000000000000000000000000000000000000000                              000000000000000
202010280010004900000000000000007298                8000000000030708832541MAGLIONE SRL                  000000000275578000000000000000000000000000000000000000000000000000000000000000000000000000000000000000000000000000000000PES00010000001 00000000000000000000000000000000000000000                              000000000000000
202010280010004900000000000000007307                8000000000030708832541MAGLIONE SRL                  000000000296759000000000000000000000000000000000000000000000000000000000000000000000000000000000000000000000000000000000PES00010000001 00000000000000000000000000000000000000000                              000000000000000
202010290010004900000000000000007514                8000000000030708832541MAGLIONE SRL                  000000000149817000000000000000000000000000000000000000000000000000000000000000000000000000000000000000000000000000000000PES00010000001 00000000000000000000000000000000000000000                              000000000000000
202010290010004900000000000000007866                8000000000030708832541MAGLIONE SRL                  000000000071166000000000000000000000000000000000000000000000000000000000000000000000000000000000000000000000000000000000PES00010000001 00000000000000000000000000000000000000000                              000000000000000
202010300010004900000000000000008140                8000000000030708832541MAGLIONE SRL                  000000000788663000000000000000000000000000000000000000000000000000000000000000000000000000000000000000000000000000000000PES00010000001 00000000000000000000000000000000000000000                              000000000000000
202010300010004900000000000000008149                8000000000030708832541MAGLIONE SRL                  000000001032111000000000000000000000000000000000000000000000000000000000000000000000000000000000000000000000000000000000PES00010000001 00000000000000000000000000000000000000000                              000000000000000
202010300010004900000000000000008156                8000000000030708832541MAGLIONE SRL                  000000000050300000000000000000000000000000000000000000000000000000000000000000000000000000000000000000000000000000000000PES00010000001 00000000000000000000000000000000000000000                              000000000000000
202010300010004900000000000000008214                8000000000030708832541MAGLIONE SRL                  000000000077878000000000000000000000000000000000000000000000000000000000000000000000000000000000000000000000000000000000PES00010000001 00000000000000000000000000000000000000000                              000000000000000
202010310010004900000000000000008304                8000000000030708832541MAGLIONE SRL                  000000000113982000000000000000000000000000000000000000000000000000000000000000000000000000000000000000000000000000000000PES00010000001 00000000000000000000000000000000000000000                              000000000000000
202011020010004900000000000000008495                8000000000030708832541MAGLIONE SRL                  000000000081515000000000000000000000000000000000000000000000000000000000000000000000000000000000000000000000000000000000PES00010000001 00000000000000000000000000000000000000000                              000000000000000
202011020010004900000000000000008649                8000000000030708832541MAGLIONE SRL                  000000000236291000000000000000000000000000000000000000000000000000000000000000000000000000000000000000000000000000000000PES00010000001 00000000000000000000000000000000000000000                              000000000000000
202011020010004900000000000000008714                8000000000030708832541MAGLIONE SRL                  000000000108842000000000000000000000000000000000000000000000000000000000000000000000000000000000000000000000000000000000PES00010000001 00000000000000000000000000000000000000000                              000000000000000
202011020010004900000000000000008726                8000000000030708832541MAGLIONE SRL                  000000000099389000000000000000000000000000000000000000000000000000000000000000000000000000000000000000000000000000000000PES00010000001 00000000000000000000000000000000000000000                              000000000000000
202011020010004900000000000000008741                8000000000030708832541MAGLIONE SRL                  000000000434100000000000000000000000000000000000000000000000000000000000000000000000000000000000000000000000000000000000PES00010000001 00000000000000000000000000000000000000000                              000000000000000
202011030010004900000000000000008899                8000000000030708832541MAGLIONE SRL                  000000000175474000000000000000000000000000000000000000000000000000000000000000000000000000000000000000000000000000000000PES00010000001 00000000000000000000000000000000000000000                              000000000000000
202011030010004900000000000000008923                8000000000030708832541MAGLIONE SRL                  000000000192296000000000000000000000000000000000000000000000000000000000000000000000000000000000000000000000000000000000PES00010000001 00000000000000000000000000000000000000000                              000000000000000
202011040010004900000000000000009196                8000000000030708832541MAGLIONE SRL                  000000000153670000000000000000000000000000000000000000000000000000000000000000000000000000000000000000000000000000000000PES00010000001 00000000000000000000000000000000000000000                              000000000000000
202011040010004900000000000000009328                8000000000030708832541MAGLIONE SRL                  000000000118919000000000000000000000000000000000000000000000000000000000000000000000000000000000000000000000000000000000PES00010000001 00000000000000000000000000000000000000000                              000000000000000
202011040010004900000000000000009447                8000000000030708832541MAGLIONE SRL                  000000000055238000000000000000000000000000000000000000000000000000000000000000000000000000000000000000000000000000000000PES00010000001 00000000000000000000000000000000000000000                              000000000000000
202011040010004900000000000000009448                8000000000030708832541MAGLIONE SRL                  000000000561808000000000000000000000000000000000000000000000000000000000000000000000000000000000000000000000000000000000PES00010000001 00000000000000000000000000000000000000000                              000000000000000
202011050010004900000000000000009577                8000000000030708832541MAGLIONE SRL                  000000000199171000000000000000000000000000000000000000000000000000000000000000000000000000000000000000000000000000000000PES00010000001 00000000000000000000000000000000000000000                              000000000000000
202011050010004900000000000000009748                8000000000030708832541MAGLIONE SRL                  000000000220236000000000000000000000000000000000000000000000000000000000000000000000000000000000000000000000000000000000PES00010000001 00000000000000000000000000000000000000000                              000000000000000
202011060010004900000000000000009808                8000000000030708832541MAGLIONE SRL                  000000000622695000000000000000000000000000000000000000000000000000000000000000000000000000000000000000000000000000000000PES00010000001 00000000000000000000000000000000000000000                              000000000000000
202011060010004900000000000000009811                8000000000030708832541MAGLIONE SRL                  000000000105802000000000000000000000000000000000000000000000000000000000000000000000000000000000000000000000000000000000PES00010000001 00000000000000000000000000000000000000000                              000000000000000
202011060010004900000000000000009824                8000000000030708832541MAGLIONE SRL                  000000000259912000000000000000000000000000000000000000000000000000000000000000000000000000000000000000000000000000000000PES00010000001 00000000000000000000000000000000000000000                              000000000000000
202011060010004900000000000000009825                8000000000030708832541MAGLIONE SRL                  000000001403343000000000000000000000000000000000000000000000000000000000000000000000000000000000000000000000000000000000PES00010000001 00000000000000000000000000000000000000000                              000000000000000
202011060010004900000000000000009826                8000000000030708832541MAGLIONE SRL                  000000000279372000000000000000000000000000000000000000000000000000000000000000000000000000000000000000000000000000000000PES00010000001 00000000000000000000000000000000000000000                              000000000000000
202011060010004900000000000000009847                8000000000030708832541MAGLIONE SRL                  000000000105807000000000000000000000000000000000000000000000000000000000000000000000000000000000000000000000000000000000PES00010000001 00000000000000000000000000000000000000000                              000000000000000
202011090010004900000000000000010522                8000000000030708832541MAGLIONE SRL                  000000000089821000000000000000000000000000000000000000000000000000000000000000000000000000000000000000000000000000000000PES00010000001 00000000000000000000000000000000000000000                              000000000000000
202011090010004900000000000000010549                8000000000030708832541MAGLIONE SRL                  000000001369065000000000000000000000000000000000000000000000000000000000000000000000000000000000000000000000000000000000PES00010000001 00000000000000000000000000000000000000000                              000000000000000
202011090010004900000000000000010575                8000000000030708832541MAGLIONE SRL                  000000000213756000000000000000000000000000000000000000000000000000000000000000000000000000000000000000000000000000000000PES00010000001 00000000000000000000000000000000000000000                              000000000000000
202011090010004900000000000000010590                8000000000030708832541MAGLIONE SRL                  000000000120114000000000000000000000000000000000000000000000000000000000000000000000000000000000000000000000000000000000PES00010000001 00000000000000000000000000000000000000000                              000000000000000
202011090010004900000000000000010623                8000000000030708832541MAGLIONE SRL                  000000000784581000000000000000000000000000000000000000000000000000000000000000000000000000000000000000000000000000000000PES00010000001 00000000000000000000000000000000000000000                              000000000000000
202011090010004900000000000000010687                8000000000030708832541MAGLIONE SRL                  000000000032012000000000000000000000000000000000000000000000000000000000000000000000000000000000000000000000000000000000PES00010000001 00000000000000000000000000000000000000000                              000000000000000
202011090010004900000000000000010693                8000000000030708832541MAGLIONE SRL                  000000002914494000000000000000000000000000000000000000000000000000000000000000000000000000000000000000000000000000000000PES00010000001 00000000000000000000000000000000000000000                              000000000000000
202011100010004900000000000000010910                8000000000030708832541MAGLIONE SRL                  000000000067433000000000000000000000000000000000000000000000000000000000000000000000000000000000000000000000000000000000PES00010000001 00000000000000000000000000000000000000000                              000000000000000
202011100010004900000000000000011043                8000000000030708832541MAGLIONE SRL                  000000001069717000000000000000000000000000000000000000000000000000000000000000000000000000000000000000000000000000000000PES00010000001 00000000000000000000000000000000000000000                              000000000000000
202011120010004900000000000000011589                8000000000030708832541MAGLIONE SRL                  000000000283106000000000000000000000000000000000000000000000000000000000000000000000000000000000000000000000000000000000PES00010000001 00000000000000000000000000000000000000000                              000000000000000
202011120010004900000000000000011590                8000000000030708832541MAGLIONE SRL                  000000001258400000000000000000000000000000000000000000000000000000000000000000000000000000000000000000000000000000000000PES00010000001 00000000000000000000000000000000000000000                              000000000000000
202011120010004900000000000000011781                8000000000030708832541MAGLIONE SRL                  000000000462506000000000000000000000000000000000000000000000000000000000000000000000000000000000000000000000000000000000PES00010000001 00000000000000000000000000000000000000000                              000000000000000
202011120010004900000000000000011826                8000000000030708832541MAGLIONE SRL                  000000000452850000000000000000000000000000000000000000000000000000000000000000000000000000000000000000000000000000000000PES00010000001 00000000000000000000000000000000000000000                              000000000000000
202011130010004900000000000000011966                8000000000030708832541MAGLIONE SRL                  000000000157538000000000000000000000000000000000000000000000000000000000000000000000000000000000000000000000000000000000PES00010000001 00000000000000000000000000000000000000000                              000000000000000
202011130010004900000000000000012020                8000000000030708832541MAGLIONE SRL                  000000000149817000000000000000000000000000000000000000000000000000000000000000000000000000000000000000000000000000000000PES00010000001 00000000000000000000000000000000000000000                              000000000000000
202011130010004900000000000000012094                8000000000030708832541MAGLIONE SRL                  000000000054077000000000000000000000000000000000000000000000000000000000000000000000000000000000000000000000000000000000PES00010000001 00000000000000000000000000000000000000000                              000000000000000
202011130010004900000000000000012160                8000000000030708832541MAGLIONE SRL                  000000000083338000000000000000000000000000000000000000000000000000000000000000000000000000000000000000000000000000000000PES00010000001 00000000000000000000000000000000000000000                              000000000000000
202011130010004900000000000000012167                8000000000030708832541MAGLIONE SRL                  000000000251946000000000000000000000000000000000000000000000000000000000000000000000000000000000000000000000000000000000PES00010000001 00000000000000000000000000000000000000000                              000000000000000
