202011040010001400000000000001024078                8000000000033543746369DROGUERIA SUIZA S.H.          000000000041473000000000000000000000000000000000000000000000000000000000000000000000000000000000000000000000000000000000PES00010000001 00000000000000000000000000000000000000000                              000000000000000
202011050010001400000000000001025130                8000000000033543746369DROGUERIA SUIZA S.H.          000000001238790000000000000000000000001238790000000000000000000000000000000000000000000000000000000000000000000000000000PES00010000000 00000000000000000000000000000000000000000                              000000000000000
202011050010001400000000000001025136                8000000000033543746369DROGUERIA SUIZA S.H.          000000000252226000000000000000000000000252226000000000000000000000000000000000000000000000000000000000000000000000000000PES00010000000 00000000000000000000000000000000000000000                              000000000000000
202011050010001400000000000001025159                8000000000033543746369DROGUERIA SUIZA S.H.          000000000287248000000000000000000000000217335000000000000000000000000000000000000000000000000000000000000000000000000000PES00010000001 00000000000000000000000000000000000000000                              000000000000000
202011050010001400000000000001025169                8000000000033543746369DROGUERIA SUIZA S.H.          000000000439201000000000000000000000000439201000000000000000000000000000000000000000000000000000000000000000000000000000PES00010000000 00000000000000000000000000000000000000000                              000000000000000
202011060010001400000000000001025777                8000000000033543746369DROGUERIA SUIZA S.H.          000000000309913000000000000000000000000309913000000000000000000000000000000000000000000000000000000000000000000000000000PES00010000000 00000000000000000000000000000000000000000                              000000000000000
202011070010001400000000000001025940                8000000000033543746369DROGUERIA SUIZA S.H.          000000000169439000000000000000000000000000000000000000000000000000000000000000000000000000000000000000000000000000000000PES00010000001 00000000000000000000000000000000000000000                              000000000000000
202011090010001400000000000001026320                8000000000033543746369DROGUERIA SUIZA S.H.          000000000152223000000000000000000000000148748000000000000000000000000000000000000000000000000000000000000000000000000000PES00010000002 00000000000000000000000000000000000000000                              000000000000000
202011090010001400000000000001026475                8000000000033543746369DROGUERIA SUIZA S.H.          000000000509604000000000000000000000000509604000000000000000000000000000000000000000000000000000000000000000000000000000PES00010000000 00000000000000000000000000000000000000000                              000000000000000
202011090010001400000000000001026709                8000000000033543746369DROGUERIA SUIZA S.H.          000000000312466000000000000000000000000000000000000000000000000000000000000000000000000000000000000000000000000000000000PES00010000001 00000000000000000000000000000000000000000                              000000000000000
202011100010001400000000000001027137                8000000000033543746369DROGUERIA SUIZA S.H.          000000000092823000000000000000000000000092823000000000000000000000000000000000000000000000000000000000000000000000000000PES00010000000 00000000000000000000000000000000000000000                              000000000000000
202011100010001400000000000001027634                8000000000033543746369DROGUERIA SUIZA S.H.          000000001238790000000000000000000000001238790000000000000000000000000000000000000000000000000000000000000000000000000000PES00010000000 00000000000000000000000000000000000000000                              000000000000000
202011110010001400000000000001027747                8000000000033543746369DROGUERIA SUIZA S.H.          000000000015363000000000000000000000000000000000000000000000000000000000000000000000000000000000000000000000000000000000PES00010000001 00000000000000000000000000000000000000000                              000000000000000
202011110010001400000000000001027878                8000000000033543746369DROGUERIA SUIZA S.H.          000000000059310000000000000000000000000059310000000000000000000000000000000000000000000000000000000000000000000000000000PES00010000000 00000000000000000000000000000000000000000                              000000000000000
202011120010001400000000000001028377                8000000000033543746369DROGUERIA SUIZA S.H.          000000000061750000000000000000000000000061750000000000000000000000000000000000000000000000000000000000000000000000000000PES00010000000 00000000000000000000000000000000000000000                              000000000000000
202011120010001400000000000001028551                8000000000033543746369DROGUERIA SUIZA S.H.          000000000019638000000000000000000000000019638000000000000000000000000000000000000000000000000000000000000000000000000000PES00010000000 00000000000000000000000000000000000000000                              000000000000000
202011130010001400000000000001028970                8000000000033543746369DROGUERIA SUIZA S.H.          000000000139604000000000000000000000000139604000000000000000000000000000000000000000000000000000000000000000000000000000PES00010000000 00000000000000000000000000000000000000000                              000000000000000
202011130010001400000000000001029207                8000000000033543746369DROGUERIA SUIZA S.H.          000000000848812000000000000000000000000503652000000000000000000000000000000000000000000000000000000000000000000000000000PES00010000001 00000000000000000000000000000000000000000                              000000000000000
202011130010001400000000000001029456                8000000000033543746369DROGUERIA SUIZA S.H.          000000001303065000000000000000000000001202187000000000000000000000000000000000000000000000000000000000000000000000000000PES00010000002 00000000000000000000000000000000000000000                              000000000000000
202011140010001400000000000001029703                8000000000033543746369DROGUERIA SUIZA S.H.          000000001147497000000000000000000000000984883000000000000000000000000000000000000000000000000000000000000000000000000000PES00010000001 00000000000000000000000000000000000000000                              000000000000000
202011160010001400000000000001030084                8000000000033543746369DROGUERIA SUIZA S.H.          000000000057732000000000000000000000000000000000000000000000000000000000000000000000000000000000000000000000000000000000PES00010000001 00000000000000000000000000000000000000000                              000000000000000
202011170010001400000000000001030757                8000000000033543746369DROGUERIA SUIZA S.H.          000000000673946000000000000000000000000673946000000000000000000000000000000000000000000000000000000000000000000000000000PES00010000000 00000000000000000000000000000000000000000                              000000000000000
202011170010001400000000000001031001                8000000000033543746369DROGUERIA SUIZA S.H.          000000000795240000000000000000000000000795240000000000000000000000000000000000000000000000000000000000000000000000000000PES00010000000 00000000000000000000000000000000000000000                              000000000000000
202011180010001400000000000001031213                8000000000033543746369DROGUERIA SUIZA S.H.          000000000039310000000000000000000000000000000000000000000000000000000000000000000000000000000000000000000000000000000000PES00010000001 00000000000000000000000000000000000000000                              000000000000000
202011180010001400000000000001031363                8000000000033543746369DROGUERIA SUIZA S.H.          000000000274816000000000000000000000000000000000000000000000000000000000000000000000000000000000000000000000000000000000PES00010000002 00000000000000000000000000000000000000000                              000000000000000
202011180010001400000000000001031663                8000000000033543746369DROGUERIA SUIZA S.H.          000000000910914000000000000000000000000780144000000000000000000000000000000000000000000000000000000000000000000000000000PES00010000001 00000000000000000000000000000000000000000                              000000000000000
202011190010001400000000000001032192                8000000000033543746369DROGUERIA SUIZA S.H.          000000000222480000000000000000000000000222480000000000000000000000000000000000000000000000000000000000000000000000000000PES00010000000 00000000000000000000000000000000000000000                              000000000000000
202011190010001400000000000001032207                8000000000033543746369DROGUERIA SUIZA S.H.          000000000217335000000000000000000000000217335000000000000000000000000000000000000000000000000000000000000000000000000000PES00010000000 00000000000000000000000000000000000000000                              000000000000000
202011190010001400000000000001032240                8000000000033543746369DROGUERIA SUIZA S.H.          000000000217335000000000000000000000000217335000000000000000000000000000000000000000000000000000000000000000000000000000PES00010000000 00000000000000000000000000000000000000000                              000000000000000
202011200010001400000000000001032607                8000000000033543746369DROGUERIA SUIZA S.H.          000000000717732000000000000000000000000717732000000000000000000000000000000000000000000000000000000000000000000000000000PES00010000000 00000000000000000000000000000000000000000                              000000000000000
202011200010001400000000000001032758                8000000000033543746369DROGUERIA SUIZA S.H.          000000000102636000000000000000000000000102636000000000000000000000000000000000000000000000000000000000000000000000000000PES00010000000 00000000000000000000000000000000000000000                              000000000000000
202011210010001400000000000001033064                8000000000033543746369DROGUERIA SUIZA S.H.          000000000172778000000000000000000000000000000000000000000000000000000000000000000000000000000000000000000000000000000000PES00010000001 00000000000000000000000000000000000000000                              000000000000000
202011240010001400000000000001033334                8000000000033543746369DROGUERIA SUIZA S.H.          000000000219480000000000000000000000000219480000000000000000000000000000000000000000000000000000000000000000000000000000PES00010000000 00000000000000000000000000000000000000000                              000000000000000
202011250010001400000000000001034479                8000000000033543746369DROGUERIA SUIZA S.H.          000000000077916000000000000000000000000077916000000000000000000000000000000000000000000000000000000000000000000000000000PES00010000000 00000000000000000000000000000000000000000                              000000000000000
202011250010001400000000000001034489                8000000000033543746369DROGUERIA SUIZA S.H.          000000001143046000000000000000000000001143046000000000000000000000000000000000000000000000000000000000000000000000000000PES00010000000 00000000000000000000000000000000000000000                              000000000000000
202011250010001400000000000001034596                8000000000033543746369DROGUERIA SUIZA S.H.          000000000239700000000000000000000000000239700000000000000000000000000000000000000000000000000000000000000000000000000000PES00010000000 00000000000000000000000000000000000000000                              000000000000000
202011270010001400000000000001035823                8000000000033543746369DROGUERIA SUIZA S.H.          000000000154874000000000000000000000000000000000000000000000000000000000000000000000000000000000000000000000000000000000PES00010000001 00000000000000000000000000000000000000000                              000000000000000
202011270010001400000000000001035829                8000000000033543746369DROGUERIA SUIZA S.H.          000000000130401000000000000000000000000130401000000000000000000000000000000000000000000000000000000000000000000000000000PES00010000000 00000000000000000000000000000000000000000                              000000000000000
202011270010001400000000000001035833                8000000000033543746369DROGUERIA SUIZA S.H.          000000000250672000000000000000000000000250672000000000000000000000000000000000000000000000000000000000000000000000000000PES00010000000 00000000000000000000000000000000000000000                              000000000000000
202011270010001400000000000001035834                8000000000033543746369DROGUERIA SUIZA S.H.          000000000222047000000000000000000000000222047000000000000000000000000000000000000000000000000000000000000000000000000000PES00010000000 00000000000000000000000000000000000000000                              000000000000000
202011270010001400000000000001035836                8000000000033543746369DROGUERIA SUIZA S.H.          000000000217335000000000000000000000000217335000000000000000000000000000000000000000000000000000000000000000000000000000PES00010000000 00000000000000000000000000000000000000000                              000000000000000
202011270010001400000000000001035838                8000000000033543746369DROGUERIA SUIZA S.H.          000000000217335000000000000000000000000217335000000000000000000000000000000000000000000000000000000000000000000000000000PES00010000000 00000000000000000000000000000000000000000                              000000000000000
202011280010001400000000000001036056                8000000000033543746369DROGUERIA SUIZA S.H.          000000000041245000000000000000000000000041245000000000000000000000000000000000000000000000000000000000000000000000000000PES00010000000 00000000000000000000000000000000000000000                              000000000000000
202011300010001400000000000001036506                8000000000033543746369DROGUERIA SUIZA S.H.          000000001148893000000000000000000000001148893000000000000000000000000000000000000000000000000000000000000000000000000000PES00010000000 00000000000000000000000000000000000000000                              000000000000000
202011300010001400000000000001036718                8000000000033543746369DROGUERIA SUIZA S.H.          000000000423060000000000000000000000000423060000000000000000000000000000000000000000000000000000000000000000000000000000PES00010000000 00000000000000000000000000000000000000000                              000000000000000
202011300010001400000000000001036790                8000000000033543746369DROGUERIA SUIZA S.H.          000000000044148000000000000000000000000044148000000000000000000000000000000000000000000000000000000000000000000000000000PES00010000000 00000000000000000000000000000000000000000                              000000000000000
202011110010000500000000000000004633                8000000000023234103199TRADING DE JOSE D YANUZZI     000000000689279000000000000000000000000000000000000000000000000000000000000000000000000000000000000000000000000000000000PES00010000001 00000000000000000000000000000000000000000                              000000000000000
202010280010000100000000000000026831                8000000000030714284572DROGUERIA MONUMENTO SA        000000001307404000000000000000000000001307404000000000000000000000000000000000000000000000000000000000000000000000000000PES00010000000 00000000000000000000000000000000000000000                              000000000000000
202011160010000100000000000000027618                8000000000030714284572DROGUERIA MONUMENTO SA        000000007541900000000000000000000000007541900000000000000000000000000000000000000000000000000000000000000000000000000000PES00010000000 00000000000000000000000000000000000000000                              000000000000000
202011240010000500000000000000002709                8000000000020386396540FERRETERIA DEL SUR DE SIMAN CH000000000055500000000000000000000000000000000000000000000000000000000000000000000000000000000000000000000000000000000000PES00010000001 00000000000000000000000000000000000000000                              000000000000000
202011170820000200000000000000013608                8000000000030712265538SANTIAGO ELECTRICIDAD DE MANUE000000000044000000000000044000000000000000000000000000000000000000000000000000000000000000000000000000000000000000000000PES00010000000 00000000000000000000000000000000000000000                              000000000000000
202011170820000200000000000000013611                8000000000030712265538SANTIAGO ELECTRICIDAD DE MANUE000000000072000000000000072000000000000000000000000000000000000000000000000000000000000000000000000000000000000000000000PES00010000000 00000000000000000000000000000000000000000                              000000000000000
202011280810000400000000000000000056                8000000000030714995185GAMA ALTA SRL                 000000000237800000000000000000000000000000000000000000000000000000000000000000000000000000000000000000000000000000000000PES00010000001 00000000000000000000000000000000000000000                              000000000000000
202011020010000700000000000000268207                8000000000030698255141DROGUERIA ROSFAR SA           000000004799319000000000000000000000004799319000000000000000000000000000000000000000000000000000000000000000000000000000PES00010000000 00000000000000000000000000000000000000000                              000000000000000
202011050010000700000000000000270292                8000000000030698255141DROGUERIA ROSFAR SA           000000008052385000000000000000000000008052385000000000000000000000000000000000000000000000000000000000000000000000000000PES00010000000 00000000000000000000000000000000000000000                              000000000000000
202011090010000700000000000000271663                8000000000030698255141DROGUERIA ROSFAR SA           000000006885735000000000000000000000006885735000000000000000000000000000000000000000000000000000000000000000000000000000PES00010000000 00000000000000000000000000000000000000000                              000000000000000
202011260010000700000000000000280760                8000000000030698255141DROGUERIA ROSFAR SA           000000003145543000000000000000000000003145543000000000000000000000000000000000000000000000000000000000000000000000000000PES00010000000 00000000000000000000000000000000000000000                              000000000000000
202011260010000700000000000000280925                8000000000030698255141DROGUERIA ROSFAR SA           000000000974202000000000000000000000000974202000000000000000000000000000000000000000000000000000000000000000000000000000PES00010000000 00000000000000000000000000000000000000000                              000000000000000
202011110010000400000000000000087602                8000000000030707174702C&C MEDICAL'S S.A             000000008460000000000000000000000000008460000000000000000000000000000000000000000000000000000000000000000000000000000000PES00010000000 00000000000000000000000000000000000000000                              000000000000000
202011100820000200000000000000086147                8000000000030715610074MULTINOA SRL                  000000000008290000000000008290000000000000000000000000000000000000000000000000000000000000000000000000000000000000000000PES00010000000 00000000000000000000000000000000000000000                              000000000000000
202011160820000600000000000000007657                8000000000020114938344ELECTRICIDAD LUNA SUD DE HERIB000000000185000000000000185000000000000000000000000000000000000000000000000000000000000000000000000000000000000000000000PES00010000000 00000000000000000000000000000000000000000                              000000000000000
202010160010000300000000000000002228                8000000000030687687570SOLIDEZ EMPRESA FEDERAL DE ALT000000020531029000000020531029000000000000000000000000000000000000000000000000000000000000000000000000000000000000000000PES00010000000 00000000000000000000000000000000000000000                              000000000000000
202010160010000300000000000000002229                8000000000030687687570SOLIDEZ EMPRESA FEDERAL DE ALT000000001394205000000000000000000000000000000000000000000000000000000000000000000000000000000000000000000000000000000000PES00010000001 00000000000000000000000000000000000000000                              000000000000000
202011130010001000000000000000015052                8000000000030711534616ORIEN ARGENTINA S.A.          000000011417399000000000000000000000011417399000000000000000000000000000000000000000000000000000000000000000000000000000PES00010000000 00000000000000000000000000000000000000000                              000000000000000
202011040110000400000000000000000599                8000000000020288705373EL REY ARTICULOS DE LIMPIEZA  000000000079000000000000079000000000000000000000000000000000000000000000000000000000000000000000000000000000000000000000PES00010000000 00000000000000000000000000000000000000000                              000000000000000
202011300150000300000000000000000080                8000000000020245733799CABALLERO, SERGIO DANIEL      000000003075200000000003075200000000000000000000000000000000000000000000000000000000000000000000000000000000000000000000PES00010000000 00000000000000000000000000000000000000000                              000000000000000
202011170010000300000000000000000076                8000000000030711087377SATIVA S.R.L.                 000000016300000000000000000000000000016300000000000000000000000000000000000000000000000000000000000000000000000000000000PES00010000000 00000000000000000000000000000000000000000                              000000000000000
202011030110000700000000000000000036                8000000000020350063219BABI JOHN CHARLES             000000001844800000000001844800000000000000000000000000000000000000000000000000000000000000000000000000000000000000000000PES00010000000 00000000000000000000000000000000000000000                              000000000000000
202011030110000300000000000000000071                8000000000020120748352IMPRESIONES GUADALUPE         000000000065000000000000065000000000000000000000000000000000000000000000000000000000000000000000000000000000000000000000PES00010000000 00000000000000000000000000000000000000000                              000000000000000
202011030010023400000000000000001381                8000000000030515637210AMARILLAGAS                   000000000056887000000000000000000000000000000000000000000887000000000000000000000000000000000000000000000000000000000000PES00010000002 00000000000000000000000000000000000000000                              000000000000000
202011130010200200000000000000041861                9900000000000000000000MERCADO LIBRE / COMPRA BS DE U000000007454700000000000000000000000000000000000000000000000000000000000000000000000000000000000000000000000000000000000PES00010000001 00000000000000000000000000000000000000000                              000000000000000
202011200820000300000000000000010857                8000000000027942598276JIANHUA GUO                   000000000010999000000000010999000000000000000000000000000000000000000000000000000000000000000000000000000000000000000000PES00010000000 00000000000000000000000000000000000000000                              000000000000000
202011090150000300000000000000000060                8000000000020213396545LOPEZ NESTOR ALEJANDRO        000000000180000000000000180000000000000000000000000000000000000000000000000000000000000000000000000000000000000000000000PES00010000000 00000000000000000000000000000000000000000                              000000000000000
202011260110000100000000000000000007                8000000000027401688264MORE ALEJANDRA EMANUELLE      000000001000000000000001000000000000000000000000000000000000000000000000000000000000000000000000000000000000000000000000PES00010000000 00000000000000000000000000000000000000000                              000000000000000
202011270110000200000000000000000020                8000000000020245789476A&B REPARACIONES ELECTRONICAS 000000002000000000000002000000000000000000000000000000000000000000000000000000000000000000000000000000000000000000000000PES00010000000 00000000000000000000000000000000000000000                              000000000000000
202011240820001100000000000000002337                9900000000000000000000SALOMON LUIS ALBERTO          000000000182000000000000182000000000000000000000000000000000000000000000000000000000000000000000000000000000000000000000PES00010000000 00000000000000000000000000000000000000000                              000000000000000
202011030060000500000000000000000122                8000000000030716321319LA CASA DEL PELUCHE DE FA S.R.000000000026000000000000026000000000000000000000000000000000000000000000000000000000000000000000000000000000000000000000PES00010000000 00000000000000000000000000000000000000000                              000000000000000
202010280010000700000000000000036337                8000000000030710309384DROGUERIA SAN JUAN SRL        000000001433790000000000000000000000001433790000000000000000000000000000000000000000000000000000000000000000000000000000PES00010000000 00000000000000000000000000000000000000000                              000000000000000
202011060010000700000000000000036483                8000000000030710309384DROGUERIA SAN JUAN SRL        000000001350000000000000000000000000001350000000000000000000000000000000000000000000000000000000000000000000000000000000PES00010000000 00000000000000000000000000000000000000000                              000000000000000
202011130010000700000000000000036561                8000000000030710309384DROGUERIA SAN JUAN SRL        000000005163370000000000000000000000005163370000000000000000000000000000000000000000000000000000000000000000000000000000PES00010000000 00000000000000000000000000000000000000000                              000000000000000
202011170010000700000000000000036608                8000000000030710309384DROGUERIA SAN JUAN SRL        000000005176538000000000000000000000005176538000000000000000000000000000000000000000000000000000000000000000000000000000PES00010000000 00000000000000000000000000000000000000000                              000000000000000
202011180010000700000000000000036650                8000000000030710309384DROGUERIA SAN JUAN SRL        000000000361480000000000000000000000000361480000000000000000000000000000000000000000000000000000000000000000000000000000PES00010000000 00000000000000000000000000000000000000000                              000000000000000
202011120010000800000000000000032165                8000000000030710309384DROGUERIA SAN JUAN SRL        000000000366600000000000000000000000000366600000000000000000000000000000000000000000000000000000000000000000000000000000PES00010000000 00000000000000000000000000000000000000000                              000000000000000
202011120010000800000000000000032176                8000000000030710309384DROGUERIA SAN JUAN SRL        000000000112840000000000000000000000000112840000000000000000000000000000000000000000000000000000000000000000000000000000PES00010000000 00000000000000000000000000000000000000000                              000000000000000
202011130010000800000000000000032187                8000000000030710309384DROGUERIA SAN JUAN SRL        000000000099588000000000000000000000000099588000000000000000000000000000000000000000000000000000000000000000000000000000PES00010000000 00000000000000000000000000000000000000000                              000000000000000
202011260010000800000000000000032385                8000000000030710309384DROGUERIA SAN JUAN SRL        000000000526220000000000000000000000000526220000000000000000000000000000000000000000000000000000000000000000000000000000PES00010000000 00000000000000000000000000000000000000000                              000000000000000
202011260010000800000000000000032402                8000000000030710309384DROGUERIA SAN JUAN SRL        000000000159900000000000000000000000000159900000000000000000000000000000000000000000000000000000000000000000000000000000PES00010000000 00000000000000000000000000000000000000000                              000000000000000
202011300010000800000000000000032431                8000000000030710309384DROGUERIA SAN JUAN SRL        000000000401920000000000000000000000000401920000000000000000000000000000000000000000000000000000000000000000000000000000PES00010000000 00000000000000000000000000000000000000000                              000000000000000
202011130010001500000000000000137324                8000000000030537234845LABORATORIOS FECOFAR COOP.LTDA000000003605607000000000000000000000000000000000000000000000000000000000000000000000000000000000000000000000000000000000PES00010000001 00000000000000000000000000000000000000000                              000000000000000
202009240030030100000000000000083311                8000000000030516968431SUIZO ARGENTINA SA  EX  (DROGU00000000922830200000000000000000000000024921000000000-228282000000000000000000000000000000000000000000000000000000000000PES00010000002 00000000000000000000000000000000000000000                              000000000000000
202011300030030600000000000000727440                8000000000030516968431SUIZO ARGENTINA SA  EX  (DROGU000000001399272000000000000000000000001338426000000000000000000000000000000000000000000000000000000000000000000000000000PES00010000002 00000000000000000000000000000000000000000                              000000000000000
202011300030030600000000000000727500                8000000000030516968431SUIZO ARGENTINA SA  EX  (DROGU000000001848234000000000000000000000001796856000000000000000000000000000000000000000000000000000000000000000000000000000PES00010000002 00000000000000000000000000000000000000000                              000000000000000
202011300030030600000000000000727506                8000000000030516968431SUIZO ARGENTINA SA  EX  (DROGU000000000543374000000000000000000000000430022000000000000000000000000000000000000000000000000000000000000000000000000000PES00010000002 00000000000000000000000000000000000000000                              000000000000000
202011100030038000000000000000001376                8000000000030516968431SUIZO ARGENTINA SA  EX  (DROGU0000000003877910000000000000000000000000000000000000000-9859000000000000000000000000000000000000000000000000000000000000PES00010000001 00000000000000000000000000000000000000000                              000000000000000
202011050030110700000000000000112332                8000000000030516968431SUIZO ARGENTINA SA  EX  (DROGU000000000024798000000000000000000000000024798000000000000000000000000000000000000000000000000000000000000000000000000000PES00010000000 00000000000000000000000000000000000000000                              000000000000000
202011060030110700000000000000112381                8000000000030516968431SUIZO ARGENTINA SA  EX  (DROGU000000001712131000000000000000000000001712131000000000000000000000000000000000000000000000000000000000000000000000000000PES00010000000 00000000000000000000000000000000000000000                              000000000000000
202011090030111400000000000000523928                8000000000030516968431SUIZO ARGENTINA SA  EX  (DROGU0000000003618300000000000000000000000002836680000000000-1987000000000000000000000000000000000000000000000000000000000000PES00010000001 00000000000000000000000000000000000000000                              000000000000000
202011090030111400000000000000523989                8000000000030516968431SUIZO ARGENTINA SA  EX  (DROGU000000002045720000000000000000000000001620714000000000-10804000000000000000000000000000000000000000000000000000000000000PES00010000001 00000000000000000000000000000000000000000                              000000000000000
202011070010003100000000000002751317                8000000000030516968431SUIZO ARGENTINA SA  EX  (DROGU000000000337925000000000000000000000000000000000000000008176000000000000000000000000000000000000000000000000000000000000PES00010000002 00000000000000000000000000000000000000000                              000000000000000
