202011130010004900000000000000012178                8000000000030708832541MAGLIONE SRL                  000000001053038000000000000000000000000000000000000000000000000000000000000000000000000000000000000000000000000000000000PES00010000001 00000000000000000000000000000000000000000                              000000000000000
202011130010004900000000000000012187                8000000000030708832541MAGLIONE SRL                  000000000278465000000000000000000000000000000000000000000000000000000000000000000000000000000000000000000000000000000000PES00010000001 00000000000000000000000000000000000000000                              000000000000000
202011130010004900000000000000012194                8000000000030708832541MAGLIONE SRL                  000000000592779000000000000000000000000000000000000000000000000000000000000000000000000000000000000000000000000000000000PES00010000001 00000000000000000000000000000000000000000                              000000000000000
202011130010004900000000000000012209                8000000000030708832541MAGLIONE SRL                  000000000958923000000000000000000000000000000000000000000000000000000000000000000000000000000000000000000000000000000000PES00010000001 00000000000000000000000000000000000000000                              000000000000000
202011130010004900000000000000012229                8000000000030708832541MAGLIONE SRL                  000000000096732000000000000000000000000000000000000000000000000000000000000000000000000000000000000000000000000000000000PES00010000001 00000000000000000000000000000000000000000                              000000000000000
202011140010004900000000000000012405                8000000000030708832541MAGLIONE SRL                  000000000192492000000000000000000000000000000000000000000000000000000000000000000000000000000000000000000000000000000000PES00010000001 00000000000000000000000000000000000000000                              000000000000000
202011140010004900000000000000012455                8000000000030708832541MAGLIONE SRL                  000000000746813000000000000000000000000000000000000000000000000000000000000000000000000000000000000000000000000000000000PES00010000001 00000000000000000000000000000000000000000                              000000000000000
202011160010004900000000000000012534                8000000000030708832541MAGLIONE SRL                  000000001226693000000000000000000000000000000000000000000000000000000000000000000000000000000000000000000000000000000000PES00010000001 00000000000000000000000000000000000000000                              000000000000000
202011160010004900000000000000012654                8000000000030708832541MAGLIONE SRL                  000000001181304000000000000000000000000000000000000000000000000000000000000000000000000000000000000000000000000000000000PES00010000001 00000000000000000000000000000000000000000                              000000000000000
202011160010004900000000000000012815                8000000000030708832541MAGLIONE SRL                  000000001229505000000000000000000000000000000000000000000000000000000000000000000000000000000000000000000000000000000000PES00010000001 00000000000000000000000000000000000000000                              000000000000000
202011170010004900000000000000012937                8000000000030708832541MAGLIONE SRL                  000000000332138000000000000000000000000000000000000000000000000000000000000000000000000000000000000000000000000000000000PES00010000001 00000000000000000000000000000000000000000                              000000000000000
202011170010004900000000000000012962                8000000000030708832541MAGLIONE SRL                  000000000154986000000000000000000000000000000000000000000000000000000000000000000000000000000000000000000000000000000000PES00010000001 00000000000000000000000000000000000000000                              000000000000000
202011170010004900000000000000013159                8000000000030708832541MAGLIONE SRL                  000000000613056000000000000000000000000000000000000000000000000000000000000000000000000000000000000000000000000000000000PES00010000001 00000000000000000000000000000000000000000                              000000000000000
202011180010004900000000000000013222                8000000000030708832541MAGLIONE SRL                  000000000118556000000000000000000000000000000000000000000000000000000000000000000000000000000000000000000000000000000000PES00010000001 00000000000000000000000000000000000000000                              000000000000000
202011180010004900000000000000013317                8000000000030708832541MAGLIONE SRL                  000000000097288000000000000000000000000000000000000000000000000000000000000000000000000000000000000000000000000000000000PES00010000001 00000000000000000000000000000000000000000                              000000000000000
202011190010004900000000000000013530                8000000000030708832541MAGLIONE SRL                  000000000057761000000000000000000000000000000000000000000000000000000000000000000000000000000000000000000000000000000000PES00010000001 00000000000000000000000000000000000000000                              000000000000000
202011200010004900000000000000013982                8000000000030708832541MAGLIONE SRL                  000000000124364000000000000000000000000000000000000000000000000000000000000000000000000000000000000000000000000000000000PES00010000001 00000000000000000000000000000000000000000                              000000000000000
202011200010004900000000000000014055                8000000000030708832541MAGLIONE SRL                  000000000146637000000000000000000000000000000000000000000000000000000000000000000000000000000000000000000000000000000000PES00010000001 00000000000000000000000000000000000000000                              000000000000000
202011200010004900000000000000014157                8000000000030708832541MAGLIONE SRL                  000000000156541000000000000000000000000000000000000000000000000000000000000000000000000000000000000000000000000000000000PES00010000001 00000000000000000000000000000000000000000                              000000000000000
202011200010004900000000000000014185                8000000000030708832541MAGLIONE SRL                  000000000025258000000000000000000000000000000000000000000000000000000000000000000000000000000000000000000000000000000000PES00010000001 00000000000000000000000000000000000000000                              000000000000000
202011210010004900000000000000014286                8000000000030708832541MAGLIONE SRL                  000000000301508000000000000000000000000000000000000000000000000000000000000000000000000000000000000000000000000000000000PES00010000001 00000000000000000000000000000000000000000                              000000000000000
202011210010004900000000000000014319                8000000000030708832541MAGLIONE SRL                  000000001809853000000000000000000000000000000000000000000000000000000000000000000000000000000000000000000000000000000000PES00010000001 00000000000000000000000000000000000000000                              000000000000000
202011210010004900000000000000014322                8000000000030708832541MAGLIONE SRL                  000000000885952000000000000000000000000000000000000000000000000000000000000000000000000000000000000000000000000000000000PES00010000001 00000000000000000000000000000000000000000                              000000000000000
202011210010004900000000000000014396                8000000000030708832541MAGLIONE SRL                  000000000118225000000000000000000000000000000000000000000000000000000000000000000000000000000000000000000000000000000000PES00010000001 00000000000000000000000000000000000000000                              000000000000000
202011240010004900000000000000014439                8000000000030708832541MAGLIONE SRL                  000000000077174000000000000000000000000000000000000000000000000000000000000000000000000000000000000000000000000000000000PES00010000001 00000000000000000000000000000000000000000                              000000000000000
202011240010004900000000000000014616                8000000000030708832541MAGLIONE SRL                  000000000684081000000000000000000000000000000000000000000000000000000000000000000000000000000000000000000000000000000000PES00010000001 00000000000000000000000000000000000000000                              000000000000000
202011240010004900000000000000014626                8000000000030708832541MAGLIONE SRL                  000000000125772000000000000000000000000000000000000000000000000000000000000000000000000000000000000000000000000000000000PES00010000001 00000000000000000000000000000000000000000                              000000000000000
202011240010004900000000000000014645                8000000000030708832541MAGLIONE SRL                  000000000236082000000000000000000000000000000000000000000000000000000000000000000000000000000000000000000000000000000000PES00010000001 00000000000000000000000000000000000000000                              000000000000000
202011240010004900000000000000014654                8000000000030708832541MAGLIONE SRL                  000000000779985000000000000000000000000000000000000000000000000000000000000000000000000000000000000000000000000000000000PES00010000001 00000000000000000000000000000000000000000                              000000000000000
202011240010004900000000000000014735                8000000000030708832541MAGLIONE SRL                  000000000150427000000000000000000000000000000000000000000000000000000000000000000000000000000000000000000000000000000000PES00010000001 00000000000000000000000000000000000000000                              000000000000000
202011240010004900000000000000014829                8000000000030708832541MAGLIONE SRL                  000000001122440000000000000000000000000000000000000000000000000000000000000000000000000000000000000000000000000000000000PES00010000001 00000000000000000000000000000000000000000                              000000000000000
202011270010004900000000000000015850                8000000000030708832541MAGLIONE SRL                  000000000230418000000000000000000000000000000000000000000000000000000000000000000000000000000000000000000000000000000000PES00010000001 00000000000000000000000000000000000000000                              000000000000000
202011270010004900000000000000015885                8000000000030708832541MAGLIONE SRL                  000000000811941000000000000000000000000000000000000000000000000000000000000000000000000000000000000000000000000000000000PES00010000001 00000000000000000000000000000000000000000                              000000000000000
202011280010004900000000000000016157                8000000000030708832541MAGLIONE SRL                  000000000043454000000000000000000000000000000000000000000000000000000000000000000000000000000000000000000000000000000000PES00010000001 00000000000000000000000000000000000000000                              000000000000000
202011280010004900000000000000016207                8000000000030708832541MAGLIONE SRL                  000000001634545000000000000000000000000000000000000000000000000000000000000000000000000000000000000000000000000000000000PES00010000001 00000000000000000000000000000000000000000                              000000000000000
