03782123911014200019580319M1856/00         20091130BUSSO LUIS MARIA                                                                                    00000000000*30638285645E
03781132784164200019570910M2193/00         20100917ORELLANA LUIS ALBERTO                                                                               00000000000*30638285645E
03784044154414200019450428F10011/00        19890701ITURRE DE GUTIERREZ PABLA                                                                           00000000000*30638285645E
03781079757174200019440220M10011/01        20100329GUTIERREZ LISANDRO E.                                                                               00000000000*30638285645E
03781100199504200019521011F10018/00        19890704ARMOHA AZUCENA NELIDA                                                                               00000000000*30638285645E
03783076528334200019490527M10018/01        19890704ZEBALLOS AGUSTIN FRANCISCO                                                                          00000000000*30638285645E
03781102939254200019530228M10021/00        19890701SERRANO DANTE JESUS                                                                                 00000000000*30638285645E
03781176766094200019661010F10021/01        20111117LOPEZ VIVIANA GRACIELA                                                                              00000000000*30638285645E
03781434963784200020010530F10021/05        20010530SERRANO LUCRECIA MACARENA                                                                           00000000000*30638285645E
03783071795634200019360627M10022/00        20040401DELGADO CAMILO EVANGELISTO                                                                          00000000000*30638285645E
03784006578864200019371017F10022/01        20040401JUAREZ NICEFORA AMANDA                                                                              00000000000*30638285645E
03783081097484200019500607M10025/00        19890630SAYAGO LUIS ADRIAN                                                                                  00000000000*30638285645E
03781062996844200019500203F10025/01        19890630PECE CELIA MARGARITA                                                                                00000000000*30638285645E
03784047801364200019441230F10054/00        19890629RETTAROLI DE MARTINEZ NELIDA                                                                        00000000000*30638285645E
03783080822374300019430908M10054/01        19890629MARTINEZ JULIO CLAUDIO                                                                              00000000000*30638285645E
03783086506764200019461109M10059/00        19890701SANMARCO GUILLERMO LUIS                                                                             00000000000*30638285645E
03781365224664200019910827M10059/03        19910827SANMARCO GUILLERMO LUIS (H)                                                                         00000000000*30638285645E
03783081332504200019460311M10062/00        19901112GALLEGO ANTONIO                                                                                     00000000000*30638285645E
03784062446374200019500226F10062/01        19901112ALIAGA MATILDE LUCIANA                                                                              00000000000*30638285645E
03781053265484200019460410F10076/00        19890630BUIATTI DE CHAZARRETA GISELA                                                                        00000000000*30638285645E
03783078682924200019490726M10076/01        19890630CHAZARRETA CARLOS ALBERTO                                                                           00000000000*30638285645E
03784032414764200019340725F10086/00        19890630SEGIENOWICZ MARIA LIVIA                                                                             00000000000*30638285645E
03781081212674200019430715M10090/00        19910325LAITAN HECTOR VICENTE                                                                               00000000000*30638285645E
03783076460294200019490130M10101/00        19890817BARRIONUEVO FERNANDO                                                                                00000000000*30638285645E
03781111430214200019530818F10101/01        19890817SAPUNAR LILIA MARTA DEL V.                                                                          00000000000*30638285645E
03781387328184200019950322M10101/06        19950324BARRIONUEVO FRANCISCO                                                                               00000000000*30638285645E
03784062991434200019460411F10113/00        19890630SANGUEDOLCE JOSEFA                                                                                  00000000000*30638285645E
03781064988814200019510201F10131/00        20121106TENTI MARIA MERCEDES                                                                                00000000000*30638285645E
03783071860734300019380505M10159/00        19890630MANFREDI LUIS RICARDO                                                                               00000000000*30638285645E
03781117655294300019551109F10159/01        19890630SALVATIERRA ALDA LILIANA DEL V                                                                      00000000000*30638285645E
03783071912024200019390511M10173/00        19890628CORVALAN DANIEL ORLANDO                                                                             00000000000*30638285645E
03784047462554200019440601F10173/01        19890628DIAZ ROSA JORGELINA                                                                                 00000000000*30638285645E
03781111436194200019530719F10190/00        19890628SANCHEZ MARTA LILIANA DEL V.                                                                        00000000000*30638285645E
03781126101314200019560602M10190/01        19890628LOPEZ ENRIQUE EDUARDO                                                                               00000000000*30638285645E
03781400511694200019961211F10190/02        19961213LOPEZ MARIA JOSEFINA                                                                                00000000000*30638285645E
03783075849444200019440319M10191/00        19890630TOGO JOSE                                                                                           00000000000*30638285645E
03784051989564300019460519F10191/01        19890630MONTESINO MARIA DEL CARMEN                                                                          00000000000*30638285645E
03781057447704200019480404F10193/00        19890619CABEZAS MEYER DELICIA DEL CARM                                                                      00000000000*30638285645E
03781118333254200019550520F10197/00        19970701BAZZARELLI MARTA BEATRIZ                                                                            00000000000*30638285645E
03781377349854200019930903F10197/04        19970701KERSZBERG DANIELA MILAGROS                                                                          00000000000*30638285645E
03783046812454200019391015M10202/00        19890701ROIC LUCAS DOMINGO                                                                                  00000000000*30638285645E
03784042021424200019410110F10202/01        19890701GONZALEZ ESPECHE TERESITA                                                                           00000000000*30638285645E
03781054913884200019470306F10204/00        19891101GAILLARD DE BENITEZ CELIA                                                                           00000000000*30638285645E
03781084214534200019471103M10204/01        19891101BENITEZ CARLOS ORLANDO                                                                              00000000000*30638285645E
03781326857734200019861210F10204/04        19891101BENITEZ MARIA FLORENCIA                                                                             00000000000*30638285645E
03784047675934200019440110F10205/00        19891101GOMEZ ESTELA                                                                                        00000000000*30638285645E
03783070751844200019390709M10205/01        19890630BULLAUDE JULIO ARGENTINO                                                                            00000000000*30638285645E
03783076521344200019490726M10214/00        19890701FERNANDEZ RUBEN ANGEL                                                                               00000000000*30638285645E
03784065056344200019510206F10214/01        19890701PRIVITERA DELIA NORA                                                                                00000000000*30638285645E
03783071933914200019390518M10222/00        19891101CHEEIN JULIO ISIDRO                                                                                 00000000000*30638285645E
03781050806284200019450605F10222/01        19891101FUSETTI MARIA ANTONIA                                                                               00000000000*30638285645E
03783081291224300019450818M10224/00        19890807TRUCCO ERNESTO SILVESTRE                                                                            00000000000*30638285645E
03781057258144300019451029F10224/01        19890807BARRAZA GRACIELA ROSA MARGARITA                                                                     00000000000*30638285645E
03783081354454200019460902M10231/00        19890630PALAU HECTOR RAMON                                                                                  00000000000*30638285645E
03781111231454200019540411F10231/01        19890630NELLEM MARIA ROSA                                                                                   00000000000*30638285645E
03783081365504200019470119M10240/00        19890630GARCIA RAMON ANTONIO                                                                                00000000000*30638285645E
03781129353994200019560906F10240/01        20160406CORONEL DIANA MYRIAN                                                                                00000000000*30638285645E
03781029955614200019330830F10242/00        19890828RIERA DE LUCENA ELBA DEL CARME                                                                      00000000000*30638285645E
03784057441464200019471125F10248/00        19890705MATACH TERESA DEL VALLE                                                                             00000000000*30638285645E
03784054913834200019470505F10254/00        19891101TAMER NORMA LILIANA                                                                                 00000000000*30638285645E
03784061621934200019490524F10255/00        19890630ABDALA LEIVA SARIFE                                                                                 00000000000*30638285645E
03783042593584200019371218M10255/01        19890630MACHIN WALTER RENALDO                                                                               00000000000*30638285645E
03781387808134200019950903F10255/02        19950905MACHIN MARIA DEL PILAR                                                                              00000000000*30638285645E
03784054916044200019470304F10256/00        19890630VICTORIA MARIA ADRIANA                                                                              00000000000*30638285645E
03781114930524200019541228M10257/00        19890629BULACIO HECTOR RUBEN                                                                                00000000000*30638285645E
03781135118164200019571021F10257/01        19890629GONZALEZ LAURENTINA DEL CARMEN                                                                      00000000000*30638285645E
03781330927554200019870925M10257/02        19890629BULACIO RUBEN IGNACIO                                                                               00000000000*30638285645E
03781410938054200019980414F10257/05        19980414BULACIO VIRGINIA DE LAS NIEVES                                                                      00000000000*30638285645E
03781504096234200020100529F10257/06        20110304BULACIO TIZIANA                                                                                     00000000000*30638285645E
03784059378654200019481022F10269/00        19891129PINTO VILLEGAS SARA LELIA                                                                           00000000000*30638285645E
03781080992374200019470219M10269/01        19891129ALCAIDE ENRIQUE AGUSTIN                                                                             00000000000*30638285645E
03783083548744200019480629M10272/00        19890703GALLO LUIS ROGER                                                                                    00000000000*30638285645E
03784092826984300019390703F10272/01        19890703BARRAZA FLAVIA MARGARITA                                                                            00000000000*30638285645E
03781484080114200020070917F10272/02        20110401GALLO MIRANDA SOFIA AYELEN                                                                          00000000000*30638285645E
03781100106474200019520303F10278/00        19890630CAZAUX MERCEDES GRACIELA                                                                            00000000000*30638285645E
03781100189904200019511119M10278/01        19890630CASTIGLIONE ANTONIO VIRGILIO                                                                        00000000000*30638285645E
03781120744574200019580112F10280/00        20081018YOSHITAKE DE FERNANDEZ MARIA CRISTINA                                                               00000000000*30638285645E
03781132915324200019580112M10280/01        20100504FERNANDEZ LUIS GONZALO                                                                              00000000000*30638285645E
03784041550254200019391002F10284/00        20081018GIMENEZ DE AGUERO MAFALDA DEL CARMEN                                                                00000000000*30638285645E
03781050197714200019450306F10285/00        19890630SABER DE MUÑOZ GRACIELA TERESITA                                                                    00000000000*30638285645E
03781042733564200019380812M10285/01        19890630MUÑOZ GUILLERMO JOSE                                                                                00000000000*30638285645E
03781061335244400019490902F10288/00        19970706CASABELLA  ANA CECILIA                                                                              00000000000*30638285645E
03781081761064400019460515M10288/30        20100330ARANDA CARLOS  ROBERTO                                                                              00000000000*30638285645E
03784062990264200019500722F10292/00        19890701ALFARO INES ROSENDA                                                                                 00000000000*30638285645E
03783071942354200019400225M10310/00        19890701JIMENEZ DANTE RENE                                                                                  00000000000*30638285645E
03781047461904200019440823F10334/00        19890906ADUR DE FARRAN AIDA MIRTA                                                                           00000000000*30638285645E
03783069672994200019441020M10334/01        19890906FARRAN SERLE MIGUEL ANGEL                                                                           00000000000*30638285645E
03783071627314200019330110M10351/00        19890630TOLOZA ATILIO AUDINO                                                                                00000000000*30638285645E
03781041585334300019400226F10351/01        19890630GAMIETEA PETRA GABRIELA                                                                             00000000000*30638285645E
03783081280764200019431016M10362/00        19891205TOLOZA ALDO BRAULIO                                                                                 00000000000*30638285645E
03784044276904200019421021F10362/01        19891205ARIAS GLORIA ISABEL                                                                                 00000000000*30638285645E
03783080479094200019500820M10365/00        19890630PAZ CARRIZO JOSE DANIEL                                                                             00000000000*30638285645E
03784058615354200019481107F10365/01        19890630CACERES ELBA AMALIA                                                                                 00000000000*30638285645E
03781059560594200019490827F10366/00        19890806PAEZ TITA DEL ROSARIO                                                                               00000000000*30638285645E
03784053264704200019460604F10368/00        19891101UMAÑO DE ROMERO LETICIA                                                                             00000000000*30638285645E
03783063815324200019370210M10368/01        19891101ROMERO LUIS ATILIO                                                                                  00000000000*30638285645E
03783081095274206019500227M10370/00        19890630KALIÑUK JUAN CARLOS                                                                                 00000000000*30638285645E
03784046491364206019440605F10370/01        19890630CIANFERONI ANA BEATRIZ                                                                              00000000000*30638285645E
03781084751084200019501122M10380/00        19890630DIAZ WALTER RAFAEL                                                                                  00000000000*30638285645E
03781062520824200019501207F10380/01        19890630CORIA ROSA RAMONA                                                                                   00000000000*30638285645E
03783071863804200019380307M10381/00        19900308PAZ HECTOR FRANCISCO                                                                                00000000000*30638285645E
03781023579804300019390708F10381/01        19900308JUAREZ NELBA ISABEL                                                                                 00000000000*30638285645E
03783085321364200019510328M10382/00        19891101MATTAR RAMON CESAR DEL VALLE                                                                        00000000000*30638285645E
03781100198234300019520605F10382/01        19891101PIRRO DOLI DEL VALLE                                                                                00000000000*30638285645E
03781102943994200019530511F10407/00        19890630GULOTTA DE MAGUNA MARTA ROSALIA                                                                     00000000000*30638285645E
03781087916954200019480719M10407/01        19890630MAGUNA RODOLFO ARNOLDO                                                                              00000000000*30638285645E
03781331371584200019871024F10407/04        19890630MAGUNA ANA BELEN                                                                                    00000000000*30638285645E
03781135110324200019570329F10412/00        20020710ITURRE MARTA CONSOLACION                                                                            00000000000*30638285645E
03781137750844200019570811M10412/01        20020710TOSCANO JULIO CESAR                                                                                 00000000000*30638285645E
03781360459074200019920113F10412/04        20020710TOSCANO MARIA FLORENCIA                                                                             00000000000*30638285645E
03781114931724200019540510M10417/00        19891221TURC CARLOS ORLANDO                                                                                 00000000000*30638285645E
03781123911334200019560606F10432/00        19961009PALLIOTTO DIANA                                                                                     00000000000*30638285645E
03783078689324200019491107M10433/00        20080915MUNARRIZ EDGARDO ANGEL                                                                              00000000000*30638285645E
03781057440754200019470905F10433/01        20081015MALDONADO MARTHA GLADIS                                                                             00000000000*30638285645E
03781102942394300019530403M10435/00        19990518BELLUOMINI ALDO                                                                                     00000000000*30638285645E
03781129346384200019590118F10445/00        19891110NABARRO BELTRAN SYLVIA DEL CAR                                                                      00000000000*30638285645E
03781120749924300019560115M10445/01        19891110GER ROBERTO LUIS                                                                                    00000000000*30638285645E
03781337490684200019880415F10445/04        19891110GER CARMEN JORGELINA                                                                                00000000000*30638285645E
03781337490674200019880415F10445/05        19891110GER CARMEN VICTORIA                                                                                 00000000000*30638285645E
03781116543794200019550505F10448/00        19890630DIODATO MARIA ESTELA LILIANA                                                                        00000000000*30638285645E
03781129348354200019560514F10449/00        19981020NIETO MARIA MARCELA                                                                                 00000000000*30638285645E
03781054142234200019480805M10449/01        19981020FABRE TOMAS                                                                                         00000000000*30638285645E
03781100191014200019520127F10452/00        19890630IBARRA DE PEREZ SUSANA                                                                              00000000000*30638285645E
03783085044624300019510303M10460/00        19890630DIAZ MARIO ALBERTO                                                                                  00000000000*30638285645E
03781423881924300020000205F10460/06        20000205DIAZ SOFIA AGUSTINA                                                                                 00000000000*30638285645E
03781436222524300020010802F10460/07        20010802DIAZ VIRGINIA                                                                                       00000000000*30638285645E
03781126959494200019561004F10466/00        19890630REYNOSO ROSA MYRIAM                                                                                 00000000000*30638285645E
03781113272434300019540510M10473/00        19891030JUAREZ RAUL ALBERTO                                                                                 00000000000*30638285645E
03781109366614300019540113F10473/01        19891030FERREYRA AZUCENA DEL VALLE                                                                          00000000000*30638285645E
03781123720264200019590210M10478/00        20141008BERTERO CLEMAR FRANCISCO                                                                            00000000000*30638285645E
03781406036194200019970823M10478/02        20161019BERTERO CAMBRINI CLEMAR AGUSTIN                                                                     00000000000*30638285645E
03781418382294200019990415M10478/03        20161019BERTERO CAMBRINI MATIAS EXEQUIEL                                                                    00000000000*30638285645E
03781123910974200019550710F10479/00        20100525CARRANZA MARIA ELENA                                                                                00000000000*30638285645E
03784059560564206019490529F10482/00        19890630BRESCIA DE CARRIZO ELENA                                                                            00000000000*30638285645E
03783086000534206019510402M10482/01        19890630CARRIZO JUAN CARLOS                                                                                 00000000000*30638285645E
03781357412574206019910129F10482/04        19910129CARRIZO VANESA EUGENIA                                                                              00000000000*30638285645E
03784046461414200019431019F10483/00        19890912PALOMO NORMA                                                                                        00000000000*30638285645E
03781126954964300019561228F10485/00        19890630CHOREN MARTINEZ ELENA PAULINA                                                                       00000000000*30638285645E
03781076896494300019490503M10485/01        19890630CORONEL LEDESMA PEDRO                                                                               00000000000*30638285645E
03783071911984200019390529M10486/00        19890630NICOLOSSI ROLANDO HUMBERTO                                                                          00000000000*30638285645E
03784048671584200019450103F10486/01        19890630GROSSO RAQUEL JUANA                                                                                 00000000000*30638285645E
03781114939954200019541211F10486/20        20110221MAUTONE NORMA ESTER                                                                                 00000000000*30638285645E
03781113272044200019540422M10493/00        19890630MAIDANA JOSE FRANCISCO                                                                              00000000000*30638285645E
03781140543484200019600330F10493/01        19890630ROLDAN ELSA DELINA DELVALLE                                                                         00000000000*30638285645E
03784057440074200019470531F10499/00        20100518JORGE DE CUBA ALBA EMILSE                                                                           00000000000*30638285645E
03783081210614200019430423M10499/01        20100505CUBA SALVADOR                                                                                       00000000000*30638285645E
03783087879684200019471001M10502/00        19891101ABUSLAIMAN CARLOS EMILIO                                                                            00000000000*30638285645E
03781059376394200019480415F10502/01        20091229SUAREZ EVA                                                                                          00000000000*30638285645E
03783080242424200019440702M10503/00        20040701LAFI SALOMON OSCAR                                                                                  00000000000*30638285645E
03781032118824200019331107F10503/01        20040701SANTOS DORA ENRIQUETA                                                                               00000000000*30638285645E
03781126952404200019580211F10507/00        19890630CACERES DE LEDESMA ISABEL                                                                           00000000000*30638285645E
03781135112764200019570901M10507/01        19890630LEDESMA LUCAS OMAR                                                                                  00000000000*30638285645E
03781371191974200019920902F10507/06        19920902LEDESMA CACERES ANA MARIA ISABEL                                                                    00000000000*30638285645E
03781128375904200019570720M10510/00        19890630PERALTA RICARDO CORNELIO                                                                            00000000000*30638285645E
03781128375704300019590629F10510/01        19890630DI SANTO ESTHER CAROLINA                                                                            00000000000*30638285645E
03781371393754300019930216F10510/05        19930216PERALTA MICAELA DEL VALLE                                                                           00000000000*30638285645E
03783084711994200019501012M10520/00        19890630PINTO ROBERTO ENRIQUE                                                                               00000000000*30638285645E
03781116545334200019541207F10520/01        19890630VILLEGAS MARIA ELENA                                                                                00000000000*30638285645E
03781061626424200019491206F10524/00        19890726LEDESMA ANA MARIA                                                                                   00000000000*30638285645E
03781114744194300019550208M10525/00        19890630SUAREZ ELVIO ANTONIO                                                                                00000000000*30638285645E
03784024300314200019360317F10527/00        19891101TOURIÑO DE CUADROS SARA ANA                                                                         00000000000*30638285645E
03784059158764200019490121F10528/00        19890630CHAVES MARIA ENRIQUETA                                                                              00000000000*30638285645E
03784058828474200019490406F10531/00        19890713MANNO SUSANA DEL ROSARIO                                                                            00000000000*30638285645E
03781115623864200019550102F10542/00        19941205MESQUIDA DE ALVARADO ANA LIA                                                                        00000000000*30638285645E
03781079989314200019480112M10542/01        19941205ALVARADO JORGE EDUARDO                                                                              00000000000*30638285645E
03784060574164200019490604F10544/00        19890630MORENO GRACIELA ADRIANA                                                                             00000000000*30638285645E
03781102934914200019530103F10545/00        20081231VARGAS DE SAYAGO BLANCA LUCIA                                                                       00000000000*30638285645E
03781085043964200019510417M10545/01        20100807SAYAGO GUMERSINDO                                                                                   00000000000*30638285645E
03781132915144200019571026M10549/00        19890707AVILA EDGARDO                                                                                       00000000000*30638285645E
03781136030554200019570911F10549/01        19890707TISSERA CRISTINA                                                                                    00000000000*30638285645E
03781361211624200019930217F10549/03        19930217AVILA ANA CRISTEL                                                                                   00000000000*30638285645E
03781377349384200019940203M10549/04        19940203AVILA DANIEL EDGARDO                                                                                00000000000*30638285645E
03781130148064200019590417F10554/00        19890704SALVATIERRA DE MURATORE ELISA BEATRIZ                                                               00000000000*30638285645E
03781135119044200019571113M10554/01        19890704MURATORE DANIEL ALBERTO                                                                             00000000000*30638285645E
03781120746044200019580309M10561/00        19890701OLMEDO ROBERTO DANIEL                                                                               00000000000*30638285645E
03781126958294200019561208F10570/00        20100105MIANA DE BRAVO LILIANA                                                                              00000000000*30638285645E
03781100183184200019511112M10570/01        20100105BRAVO EMILIO RICARDO                                                                                00000000000*30638285645E
03781335205284200019880112M10570/03        20090106BRAVO HERNAN EMILIO                                                                                 00000000000*30638285645E
03781102945994200019530531F10572/00        19890630PAZ DE VILLALBA VICENTA                                                                             00000000000*30638285645E
03781114937364200019541115M10572/01        19890630VILLALBA RUBEN ALEJANDRINO                                                                          00000000000*30638285645E
03781341675584200019890109F10572/03        19890630VILLALBA ANA EUGENIA                                                                                00000000000*30638285645E
03781354765514200019910118M10572/04        19910118VILLALBA MARTIN ALEJANDRO                                                                           00000000000*30638285645E
03781118339074300019550713F10574/00        20101201TULA PERALTA STELLA MARIS                                                                           00000000000*30638285645E
03781117653694300019550625M10574/01        19890630RUSSO NESTOR ROGER                                                                                  00000000000*30638285645E
03781410362354300019970424F10574/02        19970424RUSSO MARIA DE LOS ANGELES                                                                          00000000000*30638285645E
03781553476054300020160314F10574/04        20170523GOMEZ RUSSO DIANA                                                                                   00000000000*30638285645E
03781105521884206019520827M10575/00        19890630TOLOZA JOSE LORENZO                                                                                 00000000000*30638285645E
03781064075774206019510210F10575/01        19890630MANSILLA HORTENSIA DEL CARMEN.                                                                      00000000000*30638285645E
03781116545014200019550422M10577/00        19891101CORBALAN MARCIAL ANSELMO                                                                            00000000000*30638285645E
03781226179074200019720427F10577/01        19891101AGUILAR MONICA ADRIANA                                                                              00000000000*30638285645E
03781395823204200019960322M10577/02        19960322CORBALAN ADRIAN EMANUEL                                                                             00000000000*30638285645E
03781426505754200020000417M10577/03        20000417CORBALAN FACUNDO LEANDRO                                                                            00000000000*30638285645E
03783072085484200019430205M10582/00        19890630URTUBEY EDGARDO DIMAS                                                                               00000000000*30638285645E
03781130148034200019590320F10584/00        20100310MORILLO DE GEREZ VIVIANA BEATR                                                                      00000000000*30638285645E
03781120752804200019560422M10584/01        20110102GEREZ RAMON ELPIDIO                                                                                 00000000000*30638285645E
03781121985834300019581223F10588/00        19890630PINEDA DE MANSILLA DORA                                                                             00000000000*30638285645E
03781335207824300019880306M10588/02        19890630MANSILLA ANDRES ROLANDO                                                                             00000000000*30638285645E
03781397032584300019960521F10588/05        19960521MANSILLA FLAVIA NATALIA                                                                             00000000000*30638285645E
03783072080674200019420904M10591/00        20020901TAGLIAVINI WALTER NOE                                                                               00000000000*30638285645E
03781068441044200019410817F10591/01        20020901CORVALAN MARTHA INES                                                                                00000000000*30638285645E
03783081304474200019451202M10593/00        19890630DIAZ RAMON ANTONIO                                                                                  00000000000*30638285645E
03781050970674200019441128F10593/01        19890630ARTICO ESTELA ROSA                                                                                  00000000000*30638285645E
03784059780604200019490318F10594/00        20091220DELGADO JOSEFA AIDA                                                                                 00000000000*30638285645E
03784016722674200019350707F10602/00        19890701PEREZ MOSCA DE MIGUEL IVE                                                                           00000000000*30638285645E
03784064988424200019501119F10604/00        19891101GAUNA SELVA MERCEDES                                                                                00000000000*30638285645E
03781100437794200019510910F10612/00        19890630BRATTI ANA MARIA                                                                                    00000000000*30638285645E
03783085014034200019470331M10622/00        19890630VEZZOSI ANSELMO JOSE                                                                                00000000000*30638285645E
03781111438684200019540130F10622/01        19890630SCOCOZZA MARIA MARCELA                                                                              00000000000*30638285645E
03781105835354200019530113M10625/00        19890630SCHIAVA RICARDO                                                                                     00000000000*30638285645E
03781120170664200019551106F10625/01        20110501ABRAM SUSANA DEL VALLE                                                                              00000000000*30638285645E
03783080915104000019450401M10627/00        20030421GONZALEZ CARLOS ESTEBAN                                                                             00000000000*30638285645E
03781105567944000019521017F10627/01        20030421REALES BERTA ANTONIA                                                                                00000000000*30638285645E
03783066127104200019490414M10628/00        19891110MARTIN RAUL AMERICO                                                                                 00000000000*30638285645E
03781105430884200019520630F10628/01        19891110ZAPATA NORA INES                                                                                    00000000000*30638285645E
03783081095264200019500310M10637/00        20100110SEGIENOWICZ JOSE RODOLFO                                                                            00000000000*30638285645E
03781062448394200019491102F10637/01        20100320MULKI DE SEGUIENOWICZ SILVIA                                                                        00000000000*30638285645E
03781100183174200019520320M10645/00        19790630RETONDO LUIS EDUARDO                                                                                00000000000*30638285645E
03781061624324200019490320F10645/01        19790630AYUNTA NILDA TERESITA                                                                               00000000000*30638285645E
03781135116004200019590703F10646/00        20100314RAÑA DE ROJO ERICA                                                                                  00000000000*30638285645E
03781107624024200019530623F10648/00        19890630CASENAVE DE SANFILIPPO ESTER C                                                                      00000000000*30638285645E
03781130017944200019590715F10652/00        20100210DEGANO CLAUDIA ALICIA                                                                               00000000000*30638285645E
03781342336744200019890312M10652/02        20111009HERRERA FELIPE IGNACIO                                                                              00000000000*30638285645E
03781136032974300019591223F10657/00        19850110SOBRERO MARIA TERESA                                                                                00000000000*30638285645E
03781146370554300019611008M10657/01        19850110MARTINEZ CARLOS RENE                                                                                00000000000*30638285645E
03781403325984200019970522M10657/02        19970522MARTINEZ HERNAN ELOY                                                                                00000000000*30638285645E
03781123919754200019580930M10661/00        19960701BASUALDO PEDRO JUVENAL                                                                              00000000000*30638285645E
03781140541144200019600121F10661/01        19960701COSCI MARIA DE LOS ANGELES                                                                          00000000000*30638285645E
03783083846564300019501101M10668/00        19890701LASTRA HUGO RODOLFO                                                                                 00000000000*30638285645E
03781428471724300020000516M10668/02        20000516LASTRA JOAQUIN HUGO                                                                                 00000000000*30638285645E
03781137750614300019600216F10671/00        20100330MALDONADO SUSANA ISABEL                                                                             00000000000*30638285645E
03781143304334300019601026M10671/01        20110928BORGNA HUGO OMAR                                                                                    00000000000*30638285645E
03781102939994200019530416M10672/00        19890701ROJO FERNANDO LUIS                                                                                  00000000000*30638285645E
03784050040264200019450507F10673/00        19891101LOPEZ DE MISHIMA BEATRIZ                                                                            00000000000*30638285645E
03781100129724200019510902F10675/00        19890630PAZ MARIA ELVIRA                                                                                    00000000000*30638285645E
03783080706824200019500710M10679/00        19890630UÑATES FRANCISCO DEL VALLE                                                                          00000000000*30638285645E
03781137759074200019591209F10679/01        19890630SUAREZ LUCIA DEL VALLE                                                                              00000000000*30638285645E
03781437050804200020010921F10679/05        20010921UÑATES ANA PAULA                                                                                    00000000000*30638285645E
03781120749634200019580420M10680/00        19890630SEQUEIRA MANUEL ANTONIO                                                                             00000000000*30638285645E
03781136032904300019580422F10680/01        20020419TOLOZA DE SEQUEIRA VIRGINIA                                                                         00000000000*30638285645E
03781137753304200019571101F10695/00        19890701PELAEZ DE OLMEDO MERCEDES                                                                           00000000000*30638285645E
03781332347144200019871115M10695/03        19890701OLMEDO LEANDRO EXEQUIEL                                                                             00000000000*30638285645E
03783081341584300019460525M10703/00        20120526UMAÑO HECTOR ALBERTO                                                                                00000000000*30638285645E
03781111587784300019540303F10703/01        20101101LEDESMA AIDA ESTHER                                                                                 00000000000*30638285645E
03781368859474300019920406M10703/03        20100309UMAÑO JAVIER ALEJANDRO                                                                              00000000000*30638285645E
03781100202014200019520909M10710/00        20081231PAZ RAMON EDGARDO DEL V.                                                                            00000000000*30638285645E
03781129340764300019590204F10710/01        20100309GOROSTIAGA SILVIA ETHEL                                                                             00000000000*30638285645E
03781282464794300019800920M10710/04        20080331PAZ MATIAS ALBERTO                                                                                  00000000000*30638285645E
03781440689294200020020415M10710/06        20100314PAZ ADOLFO EDGARDO                                                                                  00000000000*30638285645E
03781135114834200019571218M10716/00        19970318TREJO ERNESTO                                                                                       00000000000*30638285645E
03781137751564200019591209F10716/01        19970318NAVARRO ELENA ISABEL DEL VALLE                                                                      00000000000*30638285645E
03781333257764200019871220F10716/02        19970318TREJO MARIA NOEL                                                                                    00000000000*30638285645E
03781344098884200019890702M10716/03        19970318TREJO ERNESTO (H)                                                                                   00000000000*30638285645E
03781120175004200019560127F10723/00        19890717DAVID DE ABDALA RENEE NOELIA                                                                        00000000000*30638285645E
03781160070264200019620808M10723/01        19890717ABDALA CARLOS TOMAS                                                                                 00000000000*30638285645E
03781374112464200019930222F10723/03        19930222ABDALA CECILIA NOELIA                                                                               00000000000*30638285645E
03781394505834200019960110M10723/04        19960110ABDALA CARLOS TOMAS                                                                                 00000000000*30638285645E
03781129355514200019590904F10725/00        19890630PAZ RAMON MANUEL                                                                                    00000000000*30638285645E
03781169702384200019640711F10725/01        19890630NAVARRO MARIA EUGENIA                                                                               00000000000*30638285645E
03781326888654200019861227M10725/03        19890630PAZ MARIO SEBASTIAN                                                                                 00000000000*30638285645E
03781120752384200019560310F10732/00        19890706VALDEZ NILDA LIBERTAD                                                                               00000000000*30638285645E
03781130013364200019570404M10732/01        19890706NIEVA CESAR ALBERTO                                                                                 00000000000*30638285645E
03781400509424200019961114F10732/03        19961114NIEVA LUZ NAHIR                                                                                     00000000000*30638285645E
03781114930664200019540901F10733/00        20070801HERNANDEZ ELSA JOSEFINA                                                                             00000000000*30638285645E
03781086000204200019510710M10733/01        20080516SANCHEZ JARAMILLO MIGUEL ANGEL                                                                      00000000000*30638285645E
03784054913644200019470413F10734/00        19890630ROLDAN DE HERRERA AIDA NIEVES                                                                       00000000000*30638285645E
03781087911634300019480219M10734/01        19890630HERRERA GREGORIO                                                                                    00000000000*30638285645E
03784062997964200019500815F10739/00        19890630CONTATO DE ZORDO MARIA LUCRECIA                                                                     00000000000*30638285645E
03781101575244200019460905M10739/01        19890630DE ZORDO LORENZO                                                                                    00000000000*30638285645E
03781460476984200020050503F10739/04        20100603MONTAÑA DE ZORDO LUCRECIA ELIZABETH                                                                 00000000000*30638285645E
03781116548624200019550803M10742/00        19890630IBAÑEZ JOSE FRANCISCO                                                                               00000000000*30638285645E
03781103329814300019520620F10742/01        19890630CARABAJAL BLANCA FANNY JURDIT                                                                       00000000000*30638285645E
03781126951384200019561201M10749/00        19890630ALZUGARAY RICARDO ERNESTO                                                                           00000000000*30638285645E
03781125070664200019560917F10754/00        19890630PEREYRA DE ALZUGARAY NELIDA DEL VALLE                                                               00000000000*30638285645E
03781102202254200019520901M10760/00        20090511BIANCHI FEDERICO RICARDO                                                                            00000000000*30638285645E
03781119793724200019560804F10760/01        19890630CAGIGAS MARIA CRISTINA                                                                              00000000000*30638285645E
03781113275684200019540823F10763/00        19911113GIMENEZ MARIA DEL PILAR                                                                             00000000000*30638285645E
03781107925294200019530221M10763/01        19911113DOMINGUEZ SERGIO RICARDO                                                                            00000000000*30638285645E
03781100180384200019520308M10768/00        19890630PEREZ MOLINA RAUL EDUARDO                                                                           00000000000*30638285645E
03781145463404200019610921F10792/00        19890630BRAVO MIRTA GRISELDA                                                                                00000000000*30638285645E
03781352521284200019900717F10792/02        19900717ORTIZ MARIA SELVA                                                                                   00000000000*30638285645E
03781371191244200019920903M10792/03        19920903ORTIZ ALVARO JOSE                                                                                   00000000000*30638285645E
03781118336014200019550311M10796/00        19900216CERRO FRANCISCO EDUARDO                                                                             00000000000*30638285645E
03781160079764200019621231F10796/01        19900216CLUSELLA MARIA MERCEDES                                                                             00000000000*30638285645E
03781121985664200019580516F10799/00        19890601MANSILLA MARCIA LILIAN                                                                              00000000000*30638285645E
03781139696734200019600725F10802/00        19890630GALLO DE JUAREZ NANCY                                                                               00000000000*30638285645E
03781122982034200019560418M10802/01        19890630JUAREZ ANSELMO RAMON                                                                                00000000000*30638285645E
03781188002004200019521030F10803/00        19890701SANCHEZ DE PINTO MARIA INES                                                                         00000000000*30638285645E
03783076528344200019490426M10803/01        19890701PINTO JUAN DOMINGO                                                                                  00000000000*30638285645E
03781122837274206019580817M10806/00        19890701BRASSIOLO MIGUEL MARCELO                                                                            00000000000*30638285645E
03781161943054206019611129F10806/01        20100819BAUMANN EUGENIA BEATRIZ                                                                             00000000000*30638285645E
03783081210644200019430307M10807/00        20090310BELLOMO VICENTE HECTOR                                                                              00000000000*30638285645E
03781054916994200019470416F10807/01        20090310INDELICATO DELFINA YOLANDA                                                                          00000000000*30638285645E
03781129454004300019570331F10808/00        19890701PEREZ DE FREIRE GIL MIRTA                                                                           00000000000*30638285645E
03781061776504300019480911M10808/01        20110829FREIRE GIL RUBEN HECTOR                                                                             00000000000*30638285645E
03781135119354200019571123F10815/00        19890630GOMEZ GRACIELA DEL VALLE                                                                            00000000000*30638285645E
03781127216464200019590414M10815/01        19890630CACERES SERGIO RAUL                                                                                 00000000000*30638285645E
03781109369514300019540306F10825/00        19890628RAMIREZ ZULEMA BEATRIZ                                                                              00000000000*30638285645E
03781140543904200019600709M10833/00        19890630AUTALAN MANUEL HUMBERTO                                                                             00000000000*30638285645E
03781185425654200019670913F10833/01        19890630CHAVEZ PATRICIA ELEONORA                                                                            00000000000*30638285645E
03781361216544200019920405M10833/03        19920405AUTALAN EMANUEL IGNACIO                                                                             00000000000*30638285645E
03781377349094200019940211F10833/04        19940211AUTALAN DANIELA MELINA                                                                              00000000000*30638285645E
03781423481054200020000117M10833/05        20000117AUTALAN MAURO PATRICIO                                                                              00000000000*30638285645E
03781437949164200020011122M10833/06        20011122AUTALAN LUCIANO IVAN                                                                                00000000000*30638285645E
03781126821884200019581119M10844/00        19930716GALIZZI FERNANDO ANGEL (H)                                                                          00000000000*30638285645E
03781175636484200019660215F10844/01        19930716YANUCCI VIVIANA ROSA                                                                                00000000000*30638285645E
03781377369844200019940316M10844/02        19940316GALIZZI FRANCO JOSE                                                                                 00000000000*30638285645E
03781405272504200019970901M10844/04        19970901GALIZZI JOSE FERNANDO                                                                               00000000000*30638285645E
03781146373964300019610916M10846/00        19900524FARIAS HECTOR DANIEL                                                                                00000000000*30638285645E
03781374097954300019930207F10846/02        19930207FARIAS VIVIANA GABRIELA                                                                             00000000000*30638285645E
03781409396434300019980216F10846/03        19980216FARIAS MARIANA LUISINA                                                                              00000000000*30638285645E
03781135114464200019570928F10849/00        19890719HELMAN SILVIA ADRIANA                                                                               00000000000*30638285645E
03781106362764200019530228M10849/01        19890719GRAZIOLI ROBERTO HECTOR                                                                             00000000000*30638285645E
03781145439234200019610907M10851/00        19890630BORSELLINO MARCELO JULIAN                                                                           00000000000*30638285645E
03781134967014200019600225F10851/01        19890630SALVATIERRA SILVIA DEL VALLE                                                                        00000000000*30638285645E
03781375096254200019930406M10851/02        19930406BORSELLINO LUCIO                                                                                    00000000000*30638285645E
03781397943394200019960805F10851/03        19960805BORSELLINO SOFIA                                                                                    00000000000*30638285645E
03781129347894200019590326M10852/00        19890821PIANEZZOLA ALFREDO ALBERTO                                                                          00000000000*30638285645E
03781145436134300019610612F10852/01        19890821TOSCANO SILVIA NORMA                                                                                00000000000*30638285645E
03781386432344300019950224M10852/05        19950224PIANEZZOLA DIEGO SEBASTIAN                                                                          00000000000*30638285645E
03781145430914200019620916M10853/00        20151002LEDESMA FRANCISCO AGUSTIN                                                                           00000000000*30638285645E
03781160071414200019620322F10853/01        20160106PALOMO OLGA PATRICIA                                                                                00000000000*30638285645E
03781361217514200019920512M10853/03        20160106LEDESMA PATRICIA ARACELI                                                                            00000000000*30638285645E
03781404460574200019970703M10853/04        20160106LEDESMA NICOLAS EZEQUIEL                                                                            00000000000*30638285645E
03781136971004200019591027F10858/00        19890629SUAREZ DE CARDOZO SONIA RAMONA                                                                      00000000000*30638285645E
03781113272214200019540507F10859/00        19890630PAN ESTELA MARGARITA                                                                                00000000000*30638285645E
03781120750044300019580430M10861/00        20060801TREJO WALTER MARIO                                                                                  00000000000*30638285645E
03781146676164300019610523F10861/01        20070201ROBLEDO NILDA BEATRIZ                                                                               00000000000*30638285645E
03781349130964300019891022F10861/02        20070201TREJO NADIA FERNANDA                                                                                00000000000*30638285645E
03781377367474300019940225F10861/03        20070201TREJO CAROLINA SOLEDAD                                                                              00000000000*30638285645E
03781142575564200019600809M10864/00        19890630PERALTA RENE ALFREDO                                                                                00000000000*30638285645E
03781166669574200019640827F10864/01        19890630MURATORE ANGELA ANTONIA                                                                             00000000000*30638285645E
03781341956884200019890529F10864/04        19890630PERALTA MARIA BELEN                                                                                 00000000000*30638285645E
03781115967094300019550410M10872/00        19900314ROCHA CARLOS OMAR                                                                                   00000000000*30638285645E
03781147325574300019610410F10872/01        19900314MONTOYA NOEMI FLORINDA                                                                              00000000000*30638285645E
03781383653714300019940623F10872/02        19940623ROCHA GABRIELA SILVANA                                                                              00000000000*30638285645E
03781412221484300019980526M10872/03        19980526ROCHA JAVIER AGUSTIN                                                                                00000000000*30638285645E
03783062403554200019400212M10873/00        20100607KINEN ANTONIO ENRIQUE                                                                               00000000000*30638285645E
03781116541144200019550326F10873/01        20150824TERRERA ROLDAN MARTA GRACIELA                                                                       00000000000*30638285645E
03781120747764200019560307M10874/00        19830201UÑATES JULIO ARGENTINO                                                                              00000000000*30638285645E
03781142724784200019601208F10874/01        19830201TOLEDO GRACIELA DEL VALLE                                                                           00000000000*30638285645E
03781338877524200019881104F10874/04        19881104UÑATES VALERIA SOLEDAD                                                                              00000000000*30638285645E
03781142723314300019601217M10876/00        19890630PEREZ HECTOR WALTER                                                                                 00000000000*30638285645E
03781218977044300019700930F10876/01        19890630GOMEZ GLADYS LILIANA                                                                                00000000000*30638285645E
03781387374924200019950715M10876/02        19950715PEREZ FACUNDO JAVIER                                                                                00000000000*30638285645E
03781446179964300020030219M10876/03        20030219PEREZ ALVARO M.                                                                                     00000000000*30638285645E
03781143506494200019601218M10881/00        19890728FARES VICTOR ALFREDO                                                                                00000000000*30638285645E
03781160073644200019621125F10881/01        19890728GRAND MARIA SILVIA                                                                                  00000000000*30638285645E
03781374110084200019930305F10881/03        19930305FARES MARIA JOSEFINA                                                                                00000000000*30638285645E
03781401692664200019970128F10881/04        19970128FARES MARIA DELIA                                                                                   00000000000*30638285645E
03781413435604200019980609F10881/05        19980609FARES MARIA GUILLERMINA                                                                             00000000000*30638285645E
03781162773604200019630711M10887/00        19940126GUNTHER DANIEL HORACIO                                                                              00000000000*30638285645E
03781102938154200019521209F10888/00        20091207PECE MARTA GRACIELA                                                                                 00000000000*30638285645E
03781142728394300019610109F10891/00        19890711PEREZ DE GARCIA ELVECIA ELIZAB                                                                      00000000000*30638285645E
03781129359524200019571015M10893/00        19890710SANTOS JOSE RAMON                                                                                   00000000000*30638285645E
03781145430504200019610331F10893/01        19890710RODRIGUEZ MARIA DELFINA                                                                             00000000000*30638285645E
03781328598464200019870621M10893/03        19890710SANTOS PABLO MAXIMILIANO                                                                            00000000000*30638285645E
03781337494554200019880708F10893/04        19890710SANTOS MARIA ALEJANDRA                                                                              00000000000*30638285645E
03781402858004200019970312F10893/05        19970312SANTOS MARIA BELEN                                                                                  00000000000*30638285645E
03781142721834200019601004M10894/00        19890629ZERDA HUGO RAUL                                                                                     00000000000*30638285645E
03781939993874200019540607F10894/01        19890629MOREIRA MARIA DE LOURDES                                                                            00000000000*30638285645E
03781142660164300019600920M10897/00        19890630WOTTITZ CARLOS AUGUSTO                                                                              00000000000*30638285645E
03781145257894300019620917F10897/01        19890630IÑIGUEZ MARIA EUGENIA                                                                               00000000000*30638285645E
03781338822904300019880810M10897/02        19890630WOTTITZ MATIAS EZEQUIEL                                                                             00000000000*30638285645E
03781359175464300019910619M10897/03        19910619WOTTITZ MAXIMILIANO                                                                                 00000000000*30638285645E
03781116548644200019550217M10901/00        19890701PAZ MANUEL MARTIN                                                                                   00000000000*30638285645E
03781111437884200019540214F10901/01        19890701QUIROGA NOEMI DEL CARMEN                                                                            00000000000*30638285645E
03781060445314200019490330F10902/00        19890604LOPEZ DE ARAYA CLARA ELENA                                                                          00000000000*30638285645E
03781126956404200019560907F10905/00        19830801NAVARRO MARIA ROSA                                                                                  00000000000*30638285645E
03783071710694200019341212M10908/00        19890817GIRIBALDI JOSE EDUARDO                                                                              00000000000*30638285645E
03784041549364300019400907F10908/01        19890817MONTENEGRO MARIA JOSEFINA                                                                           00000000000*30638285645E
03781135119064200019600210F10909/00        20110408CASTIGLIONE MARIA INES                                                                              00000000000*30638285645E
03781108588954200019531130F10909/01        20110513TOIA CARLOS ALBERTO                                                                                 00000000000*30638285645E
03784099879664200019410816F10912/00        19890704SAYAGO BLANCA AZUCENA                                                                               00000000000*30638285645E
03781164792674200019630508F10917/00        19890928MARTINEZ DE GIRAUDO SANDRA                                                                          00000000000*30638285645E
03781120171604200019580115M10917/01        19890928GIRAUDO DANTE FRANCISCO JOSE                                                                        00000000000*30638285645E
03781374112304300019930119F10917/05        19930119GIRAUDO MARIA MILAGROS                                                                              00000000000*30638285645E
03781102432254200019520527F10922/00        19890630CARRERAS MARIA CRISTINA                                                                             00000000000*30638285645E
03781076896334200019490720M10922/01        19890630DARGOLTZ JORGE EDMUNDO                                                                              00000000000*30638285645E
03783078681924200019491215M10924/00        19890701LOPEZ LUIS EDUARDO                                                                                  00000000000*30638285645E
03781126954554200019580626F10924/01        20120711CARDENAS GLORIA CARMEN ANGELICA                                                                     00000000000*30638285645E
03781160174404300019620510F10925/00        19901030BRUNET DE NABAC ADRIANA DEL VALLE                                                                   00000000000*30638285645E
03781132913114300019590830M10925/01        19901030NABAC WADI JORGE                                                                                    00000000000*30638285645E
03781129349824300019570521M10927/00        19890630RUIZ ANTONIO REYNALDO                                                                               00000000000*30638285645E
03781163089194300019630225F10927/01        19890630LAMADRID AMALIA TERESITA R.                                                                         00000000000*30638285645E
03781129346894200019590520M10928/00        19890630PRADOS CARLOS ENRIQUE                                                                               00000000000*30638285645E
03781147542524200019620112F10928/01        19890630JUAREZ GRACIELA MABEL                                                                               00000000000*30638285645E
03781382259224200019940315F10928/03        19940315PRADOS CAROLINA DEL PILAR                                                                           00000000000*30638285645E
03781407539724200019971010M10928/04        19971010PRADOS CARLOS GABRIEL                                                                               00000000000*30638285645E
03781120754204200019580116M10933/00        19890630PINEDA FELIX RODOLFO                                                                                00000000000*30638285645E
03781118339774200019550922F10935/00        19890630BARGAS DE CEJAS ROSA BEATRIZ                                                                        00000000000*30638285645E
03783085043514200019510324M10935/01        19890630CEJAS HECTOR ALFREDO                                                                                00000000000*30638285645E
03781383658654200019940812F10935/06        19940812CEJAS ALEJANDRA VERONICA DEL VALLE                                                                  00000000000*30638285645E
03781170585284200019641120F10938/00        19890712LUGONES MARIA VIRGINIA                                                                              00000000000*30638285645E
03781397035024200019960623M10938/03        19960623FERNANDEZ CLAUDIO NAHUEL                                                                            00000000000*30638285645E
03781452714644200020040108F10938/04        20040108SUAREZ SAYWA VIRGINIA                                                                               00000000000*30638285645E
03781122982734200019560820M10939/00        19890629CARDOZO RAMON DE JESUS                                                                              00000000000*30638285645E
03781328596664200019870430F10939/03        19890629CARDOZO ANAHI IRUPE                                                                                 00000000000*30638285645E
03781109366274200019531020F10944/00        19890630LUNA DE LOPEZ MARIA CRISTINA                                                                        00000000000*30638285645E
03781118331734200019550824M10944/01        19890630LOPEZ OSCAR ALBERTO                                                                                 00000000000*30638285645E
03781343144264200019890329M10944/03        19890630LOPEZ MARTIN IGNACIO                                                                                00000000000*30638285645E
03781130144634200019580524F10949/00        19790630BURGOS LUCIA MARGARITA                                                                              00000000000*30638285645E
03781126357204200019581015F10951/00        19890701ZUAIN SARA LILIANA                                                                                  00000000000*30638285645E
03781357416544200019910429F10951/03        19910429ISAC YAMILE                                                                                         00000000000*30638285645E
03781125070444200019580103F10953/00        19890630ORTIZ VILMA LILIANA                                                                                 00000000000*30638285645E
03781123549804200019560930M10956/00        19890701PALMA GERONIMO                                                                                      00000000000*30638285645E
03781335196034200019880118F10956/03        19890701PALMA SILVIA SUSANA                                                                                 00000000000*30638285645E
03781529691094200020121227M10956/05        20131127PALMA MATHEO NICOLAS                                                                                00000000000*30638285645E
03781111432534200019531023F10959/00        20101220MENEGHINI BIBIANA TRINIDAD                                                                          00000000000*30638285645E
03781087914554200019480626M10959/01        19870401ABALOVICH EDUARDO ANTONIO                                                                           00000000000*30638285645E
03784053983184200019461119F10961/00        19931004DANIEL DE VIZCARRA MARIA ESPERANZA                                                                  00000000000*30638285645E
03781121892034200019580620M10962/00        19890626LENCINA NESTOR HORACIO                                                                              00000000000*30638285645E
03781160075804200019621229F10962/01        19890626DIAZ SILVIA DEL VALLE                                                                               00000000000*30638285645E
03781478535064200020061113F10962/02        20070222LENCINA SOL                                                                                         00000000000*30638285645E
03781129352134200019590427M10963/00        19890701ALLALL TOMAS DANIEL                                                                                 00000000000*30638285645E
03781145431044200019610507F10963/01        20110201PERALTA MIRTA DEL VALLE                                                                             00000000000*30638285645E
03781343299774200019890617F10963/02        20110301ALLALL MARIA ESPERANZA                                                                              00000000000*30638285645E
03781407538844200019971107F10963/04        20111008ALLALL PAULA DANIELA                                                                                00000000000*30638285645E
03783083840644200019500308M10973/00        19890630GOITEA IBER HUGO                                                                                    00000000000*30638285645E
03781117483594300019550828F10973/01        19890630ESCOBAR ANA MARGARITA                                                                               00000000000*30638285645E
03781387331714200019950522M10973/03        19950522GOITEA JAVIER AGUSTIN                                                                               00000000000*30638285645E
03783084710524200019500829M10974/00        19891101GOMEZ CARLOS POMPEYO                                                                                00000000000*30638285645E
03781175233104200019650923F10974/01        19891101PALENCIA MARIA LUISA                                                                                00000000000*30638285645E
03781338821464200019880701M10974/04        19891101GOMEZ CARLOS MARIO                                                                                  00000000000*30638285645E
03781129350114200019570530M10978/00        19900216SALTO HECTOR JAVIER                                                                                 00000000000*30638285645E
03781120742014200019560201M10985/00        19890914POGGI CARLOS MANUEL                                                                                 00000000000*30638285645E
03781110617594200019540302F10985/01        19890914LIRIA LUCIA ISABEL                                                                                  00000000000*30638285645E
03783081211304200019430712M10986/00        19900306ALVARADO KOFLER MANUEL CARLOS                                                                       00000000000*30638285645E
03781100181004200019511117F10986/01        19900306MENDEZ MARIA DE LAS MERCEDES                                                                        00000000000*30638285645E
03783065096254300019390606M10987/00        20090322MARTILOTTI RAFAEL EUGENIO                                                                           00000000000*30638285645E
03781100197404300019511016F10987/01        20090810LETURIA MARIA LETICIA                                                                               00000000000*30638285645E
03781100177094200019510822M10995/00        19890630TARGA JUAN CARLOS                                                                                   00000000000*30638285645E
03784062447514200019500214F10995/01        19890630VILLALBA OLGA ZULEMA                                                                                00000000000*30638285645E
03781361219614200019920529M10995/06        20130409TARGA JUAN MANUEL                                                                                   00000000000*30638285645E
03781136030994200019590627M10998/00        19891101LUQUE LUIS ENRIQUE                                                                                  00000000000*30638285645E
03781387332924200019950531F10998/02        19950531LUQUE TOSELLI SOFIA                                                                                 00000000000*30638285645E
03781143003424200019610508M11002/00        19891101LUACES MARTINEZ ALBERTO DANIEL                                                                      00000000000*30638285645E
03781375105544200019930701F11002/05        19930701LUACES MARTINEZ ROCIO VIRGINIA                                                                      00000000000*30638285645E
03781120741714200019551026F11002/30        20161017SAGANIAS NORA INES                                                                                  00000000000*30638285645E
03781160988574300019621108M11007/00        19890815CORDERO RICARDO DERMIDIO                                                                            00000000000*30638285645E
03781422450464300019991029M11007/02        19991029CORDERO FIGUEROA RICARDO E.                                                                         00000000000*30638285645E
03781449250074300020030710F11007/03        20030710CORDERO FIGUEROA LARA ABIGAIL                                                                       00000000000*30638285645E
03781460487924300020050718F11007/04        20050718CORDERO FIGUEROA GUADALUPE C.                                                                       00000000000*30638285645E
03781140540514200019600221M11008/00        19960101LUTFI DARIO JOSE                                                                                    00000000000*30638285645E
03781126860134300019580105F11008/01        19960101FRANZZINI MARIA SALOME                                                                              00000000000*30638285645E
03781353445534200019900816F11008/05        19960101LUTFI MARIA LAURA                                                                                   00000000000*30638285645E
03781140546334200019600929M11009/00        19950411PASTE JOSE FRANCISCO                                                                                00000000000*30638285645E
03781209599464200019690912F11009/01        20121015KVAPIL MARIA ELENA                                                                                  00000000000*30638285645E
03781428477624200020000529F11009/02        20000529PASTE KVAPIL MARIA DE LOS M.                                                                        00000000000*30638285645E
03781456633464200020040628M11009/03        20040628PASTE KVAPIL IGNACIO JOSE                                                                           00000000000*30638285645E
03783087899984200019480323M11014/00        19891123NUÑEZ RAMON RODOLFO                                                                                 00000000000*30638285645E
03781062993044200019500320F11014/01        19891123STONE DE NUÑEZ SARA ELOISA                                                                          00000000000*30638285645E
03781335205034200019871218F11014/06        19891123NUÑEZ MARIA MERCEDES                                                                                00000000000*30638285645E
03783081371694206019460514M11019/00        20001023RODRIGUEZ VICTOR ALFREDO                                                                            00000000000*30638285645E
03781102949654200019530801M11020/00        20091214BEJARANO RUBEN MARIO                                                                                00000000000*30638285645E
03781114932474300019541216F11020/01        20110321MINE MARGARITA SECUNDINA                                                                            00000000000*30638285645E
03781404459904200019970625F11020/04        20121204BEJARANO LUCRECIA GUILLERMINA                                                                       00000000000*30638285645E
03781482111574300020070703F11020/05        20070911BEJARANO NARELLA AGOSTINA                                                                           00000000000*30638285645E
03781499401684200020091202F11020/06        20100113BEJARANO BIANCA BRUNELLA                                                                            00000000000*30638285645E
03781162770634200019630216M11022/00        19890630GAUNA RAUL ALBERTO                                                                                  00000000000*30638285645E
03781340609284200019881224F11022/02        19890630GAUNA FLORENCIA BELEN                                                                               00000000000*30638285645E
03781373141984200019930208F11022/03        19930208GAUNA ERIKA LUCIANA                                                                                 00000000000*30638285645E
03781145464844200019610901M11024/00        19890630GODOY JORGE ANTONIO                                                                                 00000000000*30638285645E
03781170587884200019640212F11024/01        19890630SUAREZ MARIA GRACIELA MABEL                                                                         00000000000*30638285645E
03781130010384300019570424M11028/00        19890630FARIAS CARLOS ALBERTO                                                                               00000000000*30638285645E
03781142663574300019601114F11028/01        19890630SAAD DELIA ISABEL                                                                                   00000000000*30638285645E
03781484084224300020080916M11028/05        20090107GUZMAN JUAN CRUZ RICARDO                                                                            00000000000*30638285645E
03781163094564200019630816M11034/00        19890630PALACIO MANUEL OSCAR DEL VALLE                                                                      00000000000*30638285645E
03781137754114200019600124M11042/00        20071223LOPEZ GUSTAVO JOSE                                                                                  00000000000*30638285645E
03781404459334200019970617F11042/02        20071223LOPEZ LAURA ANABEL                                                                                  00000000000*30638285645E
03781404459344200019970617F11042/03        20071223LOPEZ LUCIA ALEJANDRA                                                                               00000000000*30638285645E
03781404459354200019970617F11042/04        20071223LOPEZ LURDES ANDREA                                                                                 00000000000*30638285645E
03781142724664300019601013M11048/00        19890818NEME HECTOR GUSTAVO                                                                                 00000000000*30638285645E
03781160027284300019620410F11048/01        19890818VALDEZ CLAUDIA MARINA                                                                               00000000000*30638285645E
03781422670924300019991129F11048/02        19991129NEME JULIETA ISABEL                                                                                 00000000000*30638285645E
03781147326684200019620205F11052/00        19890704GONZALEZ CELIA CARLOTA                                                                              00000000000*30638285645E
03781136034114200019600224M11052/01        19890704PULLARELLO ANGEL ANTONIO                                                                            00000000000*30638285645E
03781344096974200019890419M11052/02        19890704PULLARELLO IGNACIO ANTONIO                                                                          00000000000*30638285645E
03781147549354200019620410M11053/00        19890630PECE AZAR FRANCISCO JOSE                                                                            00000000000*30638285645E
03781163090834200019630716M11054/00        20061201PAPPALARDO LUIS ANTONIO                                                                             00000000000*30638285645E
03781180371984200019660923F11054/01        20100630RAMENDO OLGA JULIA DEL VALLE                                                                        00000000000*30638285645E
03781413629444200019980818M11054/03        20100630PAPPALARDO LUIS ANTONIO                                                                             00000000000*30638285645E
03781432235174200020010115F11054/04        20100630PAPPALARDO VALERIA MARIA                                                                            00000000000*30638285645E
03781164801404200019650202F11056/00        19890630KAIRUZ DE LUNA ROSA ALICIA                                                                          00000000000*30638285645E
03781167824524200019630909M11056/01        19890630LUNA ABDON RAUL                                                                                     00000000000*30638285645E
03781397034364200019960616M11056/02        19960616LUNA KAIRUZ FELIPE RAUL                                                                             00000000000*30638285645E
03783081341274200019451202M11062/00        19890629TABOADA VICTOR RAUL                                                                                 00000000000*30638285645E
03781160031354200019610509F11062/01        19890629VALLCANERAS MARIA A.                                                                                00000000000*30638285645E
03783075181174300019380525M11064/00        19890712ESCURRA FELIX ARGENTINO                                                                             00000000000*30638285645E
03784045153094300019430703F11064/01        19890712PHIPPS PILAR LEONOR                                                                                 00000000000*30638285645E
03784052092714200019451109F11065/00        20091222MOYANO CARMEN FIDELIA                                                                               00000000000*30638285645E
03781129349884200019590107F11070/00        19890630GISBERT CLAUDIA IRENE                                                                               00000000000*30638285645E
03781326855334200019861022M11070/02        19890630PALOMO FRANCISCO                                                                                    00000000000*30638285645E
03781346933834200019890912M11070/03        19890912PALOMO AGUSTIN                                                                                      00000000000*30638285645E
03784065058054200019510610F11072/00        19860611SPOSETTI MIRTA NOEMI                                                                                00000000000*30638285645E
03781352107104200019900428M11072/02        19900428JUAREZ SPOSETTI HUGO MATIAS                                                                         00000000000*30638285645E
03781368858704200019920406F11072/03        19920406JUAREZ SPOSETTI  MIRTA GIULIANA                                                                     00000000000*30638285645E
03781120752024200019560527M11073/00        19890630LUGONES MARCELO RAMON                                                                               00000000000*30638285645E
03781126951394200019580905F11073/01        19890630CESCA ALICIA ANGELICA                                                                               00000000000*30638285645E
03781180907164200019660512F11075/00        20100615GUZMAN SUSANA MARGARITA                                                                             00000000000*30638285645E
03781498451164200020090915F11075/02        20130215GUZMAN SOFIA  AYELEN                                                                                00000000000*30638285645E
03781163089974200019630509M11076/00        20100626GEREZ ERNESTO ARMANDO                                                                               00000000000*30638285645E
03781167863654200019630808F11076/01        20100626ROLDAN ALICIA NELIDA                                                                                00000000000*30638285645E
03781352517234200019900306F11076/03        20080927GEREZ EDNA CECILIA                                                                                  00000000000*30638285645E
03781144871344200019610823M11078/00        20081104DELGADO EDGARDO OMAR                                                                                00000000000*30638285645E
03781161944364300019630126F11078/01        20090506AUTALAN  LUISA BEATRIZ                                                                              00000000000*30638285645E
03781397032164200019960522F11078/03        20120820DELGADO RITA                                                                                        00000000000*30638285645E
03781454448834200020040205M11078/04        20090506DELGADO FRANCO DAVID                                                                                00000000000*30638285645E
03783080657874200019480208M11079/00        19891101BARRAZA ANGEL OSCAR                                                                                 00000000000*30638285645E
03781061620044200019450421F11079/01        19891101ARCE MIRTA SOLANA                                                                                   00000000000*30638285645E
03781116547614200019550605F11083/00        19890630CHARA DE TOLOZA NATIVIDAD                                                                           00000000000*30638285645E
03781081397054300019450708M11083/01        19890630TOLOZA CARLOS ORLANDO                                                                               00000000000*30638285645E
03781426505874300020000414M11083/02        20000414TOLOZA BRUNO WALTER                                                                                 00000000000*30638285645E
03781129893594200019580417M11086/00        19891107BARRAZA ROQUE ROLANDO                                                                               00000000000*30638285645E
03781166669184300019630819F11086/01        19891107PEREYRA NOEMI DEL CARMEN                                                                            00000000000*30638285645E
03781117776604200019560408F11088/00        19890630HERRERA DE CAMPOS IRMA DEL V.                                                                       00000000000*30638285645E
03781084269714200019501211M11088/01        20170208CAMPOS JORGE DURBAL                                                                                 00000000000*30638285645E
03781145622364300019610328M11094/00        19890630SALVATIERRA DARDO EMILIO                                                                            00000000000*30638285645E
03781184947084300019671010F11094/01        19890630HERMOSO GLADYS MAGALI                                                                               00000000000*30638285645E
03781398981134300019960820F11094/03        19960820SALVATIERRA EMILIA MARISOL                                                                          00000000000*30638285645E
03781161360144200019620129M11096/00        19890630TOLOZA RAMON RUBEN                                                                                  00000000000*30638285645E
03781204194914200019680901F11096/01        19890630FERNANDEZ NORMA DANIELA                                                                             00000000000*30638285645E
03781361219554200019920528M11096/03        19920528TOLOZA CARLOS RUBEN                                                                                 00000000000*30638285645E
03781142575614206019610109M11098/00        19850701LUNA ROQUE RAMON                                                                                    00000000000*30638285645E
03781181855704206019661119F11098/01        19850701IRIBARNE SARA ETELVINA                                                                              00000000000*30638285645E
03781043152914200019400302M11103/00        19850724LIMA RAUL JORGE                                                                                     00000000000*30638285645E
03781062448684200019500617F11103/01        19850724GONZALEZ ROSARIO DEL CARMEN                                                                         00000000000*30638285645E
03781137755234200019591226F11104/00        20100726CORONEL ANA ELIZABETH                                                                               00000000000*30638285645E
03783083601394200019500706M11110/00        20091013BARRIO CARLOS                                                                                       00000000000*30638285645E
03781100208954200019510719F11110/01        20100730VAULET DELIA INES                                                                                   00000000000*30638285645E
03781137849004200019591226F11111/00        20100612PALOMARES DE FEIJOO MARIA L.                                                                        00000000000*30638285645E
03781126955054200019581025M11111/01        20100828FEIJOO CARLOS EUGENIO                                                                               00000000000*30638285645E
03781353448044200019901005M11111/05        20100828FEIJOO SANTIAGO                                                                                     00000000000*30638285645E
03781398990074200019960918M11111/06        20100828FEIJOO GONZALO                                                                                      00000000000*30638285645E
03781132913364200019590908M11115/00        19890717COSTA MAYULI WALTER DANIEL                                                                          00000000000*30638285645E
03781400509414200019961113M11115/05        19961113COSTA JUAN SEBASTIAN                                                                                00000000000*30638285645E
03783079908354200019461013M11121/00        19890630CASALINO MARIO EDUARDO                                                                              00000000000*30638285645E
03781101724124300019511031F11121/01        19890630TARANTO ELSA BEATRIZ                                                                                00000000000*30638285645E
03781289009514200019820210M11121/04        19890630CASALINO MARIO ALEJANDRO                                                                            00000000000*30638285645E
03781163089084300019630509M11128/00        19890630CORONEL MARCOS LUIS                                                                                 00000000000*30638285645E
03781341831984200019890206M11128/03        19890630CORONEL MARCOS AGUSTIN                                                                              00000000000*30638285645E
03781167720274200019640303F11129/00        19890630MAIDANA LUCIA DEL VALLE                                                                             00000000000*30638285645E
03781404459064200019970529F11129/04        19970529MAIDANA ANA MARIA FLORENCIA                                                                         00000000000*30638285645E
03781172369624200019650508F11130/00        19890630ARCE MARIA ELISA                                                                                    00000000000*30638285645E
03781142725724200019601112F11135/00        19890630BUSTOS NAVARRO PATRICIA S.                                                                          00000000000*30638285645E
03783071502234300019301126M11136/00        19890630SORIA RAUL HECTOR                                                                                   00000000000*30638285645E
03781034914854300019361115F11136/01        19890630BERDAGUER MARIA TERESA                                                                              00000000000*30638285645E
03781126956984300019570109M11159/00        19870927ROSAS DOMINGO ALBERTO                                                                               00000000000*30638285645E
03781210679804300019690922F11159/01        19870927MUKDSI ELENA MARIA                                                                                  00000000000*30638285645E
03781420745974300019990817M11159/02        19990817ROSAS JULIAN ALBERTO                                                                                00000000000*30638285645E
03781437053594300020011029F11159/03        20011029ROSAS MARTINA                                                                                       00000000000*30638285645E
03781172369424200019650130F11162/00        19950711PILAN MARIA TERESITA                                                                                00000000000*30638285645E
03781517007664200019971227M11162/02        19971227OLMOS PILAN ALEJANDRO                                                                               00000000000*30638285645E
03781432236474200020010219F11162/03        20010219OLMOS PILAN LUISINA                                                                                 00000000000*30638285645E
03781143775174200019610115M11166/00        19890630SOKOLIC LUIS AGUSTIN                                                                                00000000000*30638285645E
03781137751254200019571012F11166/01        19890630CUEVAS NORMA GRACIELA                                                                               00000000000*30638285645E
03781338823144200019880803M11166/02        19890630SOKOLIC PABLO AGUSTIN                                                                               00000000000*30638285645E
03781384826034200019940907F11166/03        19940907SOKOLIC VIRGINIA PAULA                                                                              00000000000*30638285645E
03781163097414200019620910F11169/00        19890703OCHOA MARIA DEL CARMEN                                                                              00000000000*30638285645E
03781129352974200019590127M11185/00        19860101SILVETI JORGE LUIS                                                                                  00000000000*30638285645E
03781373127894200019921217F11185/03        19921217SILVETI ANA LUCIA                                                                                   00000000000*30638285645E
03781434969274200020010825M11185/04        20010825SILVETI JUAN MANUEL                                                                                 00000000000*30638285645E
03781502149164200020100503F11185/05        20100512SILVETI  GUILLERMINA                                                                                00000000000*30638285645E
03781529690654200020130108F11185/06        20130115SILVETI MARIA GRAZIA                                                                                00000000000*30638285645E
03781551757574200020151127F11185/07        20151130SILVETI MARIA PAZ                                                                                   00000000000*30638285645E
03781317391294200019850816F11185/20        20110120GURMENDI MARIA NOELIA                                                                               00000000000*30638285645E
03781062996074200019500926F11186/00        19940607VILLARREAL JULIA AZUCENA                                                                            00000000000*30638285645E
03781105459064300019530129M11190/00        19890703PEREZ RAUL EDUARDO                                                                                  00000000000*30638285645E
03781140547964200019600515F11192/00        19890817RAMIREZ DE LUNA MAGDALENA                                                                           00000000000*30638285645E
