03794092445034200019290409F1022/00         19960808MOLINA DE PEREZ FILOMENA                                                                            00000000000*30638285645G
03791142722484300019600824F1026/00         19960905SALTO MARIA OLGA                                                                                    00000000000*30638285645G
03795000689244300019290727F1034/00         19970127CUEVA DE PEÑA ROSARIO                                                                               00000000000*30638285645G
03791087841854200019390724F1035/00         19970101MARINUCCI DE PERICAS NORMA                                                                          00000000000*30638285645G
03791071937684200019391012M1035/01         19970101PERICAS MARIO ENRIQUE                                                                               00000000000*30638285645G
03791052549114200019460120F1042/00         19970408BERGA DE KANTER MARIA DE L.                                                                         00000000000*30638285645G
03791093070474200019281225F1046/00         19971101LOUTFI DE BARCHINI ELISA                                                                            00000000000*30638285645G
03794047461964300019440502F1047/00         19971201MOYANO ELSA BONIFACIA                                                                               00000000000*30638285645G
03791205646874200019681129F1054/00         19980701MURAD DE MUJICA NORMA LEONOR                                                                        00000000000*30638285645G
03791178899634200019661116M1054/01         19980701MUJICA CARLOS ALDO A.                                                                               00000000000*30638285645G
03791387806714200019950826M1054/02         19980701MUJICA FRANCISCO                                                                                    00000000000*30638285645G
03791419376144200019990510M1054/03         19990510MUJICA FACUNDO                                                                                      00000000000*30638285645G
03791429897974200020000928F1054/04         20000928MUJICA DELFINA                                                                                      00000000000*30638285645G
03791142119534300019610901F1066/00         19990501YASBEC JOZAMI CLAUDIA SOL                                                                           00000000000*30638285645G
03791371190114300019920829M1066/02         19990501CARFI SANTIAGO N.                                                                                   00000000000*30638285645G
03791203078254200019680818M1078/00         20000112DIP OSCAR HUMBERTO                                                                                  00000000000*30638285645G
03791180300124200019661109F1078/01         20000112FECHA LIA DEL VALLE                                                                                 00000000000*30638285645G
03791395839054200019960501M1078/02         20000112DIP OSCAR EZEQUIEL                                                                                  00000000000*30638285645G
03791409398654200019980211M1078/03         20000112DIP ADRIAN MAXIMILIANO                                                                              00000000000*30638285645G
03791163091834200019630821M1080/00         20000119ZOVICH ROBERTO RAUL                                                                                 00000000000*30638285645G
03791222438424200019711222F1080/01         20000119FREDIANI VANESSA MARIELA                                                                            00000000000*30638285645G
03791384030674200019941019M1080/02         20000119ZOVICH ALEJANDRO                                                                                    00000000000*30638285645G
03791418382504200019990403M1080/03         20000119ZOVICH GERMAN                                                                                       00000000000*30638285645G
03791123123124200020031229F1080/04         20031229ZOVICH JOSEFINA                                                                                     00000000000*30638285645G
03791234109194200019731024F1082/00         20000201MONICCI PARENTE FLORENCIA                                                                           00000000000*30638285645G
03791230422594200019721107F1084/00         20020301GRAZIANI JULIA ELENA                                                                                00000000000*30638285645G
03791000325894300020061108M1084/02         20061108CASTELLINI DIEGO BAUTISTA                                                                           00000000000*30638285645G
03791000789544200020091103F1084/03         20091111CASTELLINI SOL                                                                                      00000000000*30638285645G
03791122983914200019560425M1085/00         20000301OLIVERA PABLO MARTINIANO                                                                            00000000000*30638285645G
03791213409814300019700101F1085/01         20000301DIAZ KARINA ROSSANA                                                                                 00000000000*30638285645G
03791054147334200019490311M1086/00         20000401PALAVECINO ROLENDIO                                                                                 00000000000*30638285645G
03791206494434200019690311M1092/00         20000403CHEDID PABLO                                                                                        00000000000*30638285645G
03791071678404200019340111M1094/00         20000502GUIMARD FEDERICO HECTOR                                                                             00000000000*30638285645G
03791234118114200019731012F1100/00         20000502SANTIAGO ANDREA CARLA                                                                               00000000000*30638285645G
03791176714634300019670308M1100/01         20020201BOLLO ALEJANDRO MARIO                                                                               00000000000*30638285645G
03791428959684300020001201M1100/02         20001201BOLLO FRANCO                                                                                        00000000000*30638285645G
03791456925934300020040802F1100/03         20040802BOLLO MARTINA                                                                                       00000000000*30638285645G
03791476622234300020071220M1100/04         20071220BOLLO BENJAMIN                                                                                      00000000000*30638285645G
03791231942224200019721222M1114/00         20000502CHEDID RAMIRO                                                                                       00000000000*30638285645G
03791185877414200019670907F1140/00         20000901BRAVO MARIANA LORENA                                                                                00000000000*30638285645G
03791238252064200019740512F1143/00         20000927PAZ MARIA VERONICA                                                                                  00000000000*30638285645G
03791434297764200020010510F1143/02         20010510POBLET VIDELA CARMELA                                                                               00000000000*30638285645G
03791459551154200020050304F1143/03         20050304POBLET VIDELA FAUSTINA                                                                              00000000000*30638285645G
03791247286884300019750730M1144/00         20001001GOMEZ ABRAM JAVIER AGUSTIN                                                                          00000000000*30638285645G
03791271859284300019790401F1144/01         20070701HERRERA VANINA SOLEDAD                                                                              00000000000*30638285645G
03791460484534300020050730M1144/02         20070701GOMEZ  ABRAM AGUSTIN ALEJANDRO                                                                      00000000000*30638285645G
03791523789904300020120514M1144/03         20120518GOMEZ ABRAM VALENTIN                                                                                00000000000*30638285645G
03791177791724200019660129F1155/00         20001201SANCHEZ SANDRA EDITH                                                                                00000000000*30638285645G
03791047260814200019430909F1157/00         20010102MATACH MARTHA DELICIA                                                                               00000000000*30638285645G
03791060817294200019490330M1161/00         20010102ALVAREZ MANUEL AUGUSTO                                                                              00000000000*30638285645G
03791257094584200019761223F1170/00         20010301LEDESMA CHAZARRETA DOLORES                                                                          00000000000*30638285645G
03791464903074200020060419M1170/02         20060419RODRIGUEZ LEDESMA JUAN BAUTISTA                                                                     00000000000*30638285645G
03793071836314200019330505M1176/00         20010401FREDIANI GUIDO PEDRO SANTOS                                                                         00000000000*30638285645G
03794017822994200019320327F1176/01         20010401FUENTES HEBE LUZ                                                                                    00000000000*30638285645G
03791071811194200019360701M1184/00         20010531MAZZOLENI ALDO YTALO                                                                                00000000000*30638285645G
03791120757654200019560323F1190/00         20040105ECHEGARAY AMALIA INES                                                                               00000000000*30638285645G
03791184951604200019670812F1191/00         20010701YOCCA DE MALDONADO MARIA M.                                                                         00000000000*30638285645G
03791170586414200019640628M1191/01         20010701MALDONADO LUIS RICARDO                                                                              00000000000*30638285645G
03791399106514200019960906M1191/03         20010701MALDONADO YOCCA RODRIGO                                                                             00000000000*30638285645G
03791430848194200020010108F1191/04         20010701MALDONADO YOCCA CAMILA MARIA                                                                        00000000000*30638285645G
03791211127254200019691126M1193/00         20010701CRUELLAS PABLO ALFREDO                                                                              00000000000*30638285645G
03791444439344300020020926F1193/02         20020926CRUELLAS CIRELLI MACARENA                                                                           00000000000*30638285645G
03791485555174200020071221M1193/03         20071221CRUELLAS CIRELLI GERONIMO                                                                           00000000000*30638285645G
03791142727554200019610125M1206/00         20011001CASTILLO SOLA CESAR ALEJANDRO                                                                       00000000000*30638285645G
03791229231254200019740321F1221/00         20020102RIVAS MARIA FERNANDA                                                                                00000000000*30638285645G
03791205641954200019681008M1221/01         20020102MANSILLA PABLO DANIEL                                                                               00000000000*30638285645G
03791446023534200020030129M1221/02         20030129MANSILLA RIVAS JEREMIAS                                                                             00000000000*30638285645G
03791458549724200020041226M1221/03         20041226MANSILLA RIVAS MATEO                                                                                00000000000*30638285645G
03791477325544200020070116F1221/04         20070116MANSILLA RIVAS LUCIA                                                                                00000000000*30638285645G
03791060575644200019500203F1223/00         20020102GOMEZ MARIA LUISA                                                                                   00000000000*30638285645G
03791165914734200019630501M1225/00         20020102SAAB ELIAS MIGUEL                                                                                   00000000000*30638285645G
03791124133254200019560813M1226/00         20020201LUNA GUSTAVO JORGE                                                                                  00000000000*30638285645G
03791123530824200019560527F1226/01         20020201RASCHI MONICA LILIANA                                                                               00000000000*30638285645G
03791416975794200019990308F1226/04         20020201LUNA CANDELA LUCIA                                                                                  00000000000*30638285645G
03791176773384200019660320M1235/00         20020301RISSO PATRON SEGUNDO DANIEL                                                                         00000000000*30638285645G
03791210226554200019691108F1235/01         20020301SMITH PAOLA ALEJANDRA                                                                               00000000000*30638285645G
03791361210694200019920131M1235/02         20020301RISSO PATRON JONAS DANIEL                                                                           00000000000*30638285645G
03791377345384200019931218M1235/03         20020301RISSO PATRON IVAN JOEL                                                                              00000000000*30638285645G
03791404459844200019970619M1235/04         20020301RISSO PATRON RAMIRO ALEJANDRO                                                                       00000000000*30638285645G
03791425215224200020000313M1235/05         20020301RISSO PATRON ISAIAS BENJAMIN                                                                        00000000000*30638285645G
03791495808724200020090604M1235/06         20090616RISSO PATRON FELIPE AGUSTIN                                                                         00000000000*30638285645G
03791142724314200019600906M1239/00         20020401CUEVAS MIGUEL ADOLFO                                                                                00000000000*30638285645G
03791160989214200019620624F1239/01         20020401DIVEN JOZAMI MYRIAM ALICIA                                                                          00000000000*30638285645G
03791384832574200019941116F1239/03         20020401CUEVAS JOSEFINA ANDREA                                                                              00000000000*30638285645G
03791102930224200019520823M1243/00         20020401COSTAS MAXIMILIANO ARTURO                                                                           00000000000*30638285645G
03791114934304200019540924F1243/01         20020401VIDAL DE COSTAS SARA MERCEDES                                                                       00000000000*30638285645G
03791147873714200019611220F1247/00         20020401ASFORA DE HUBNER MONICA SUSANA                                                                      00000000000*30638285645G
03791133784914200019571013M1247/01         20020401HUBNER ARTURO CLAUDIO                                                                               00000000000*30638285645G
03791387373634200019950607M1247/04         20020401HUBNER ALEJANDRO ARTURO                                                                             00000000000*30638285645G
03791416474724200019981110M1247/05         20020401HUBNER MARIANO TOMAS                                                                                00000000000*30638285645G
03791087883044220019470501M1253/00         20020502VIVAS MANUEL EDUARDO                                                                                00000000000*30638285645G
03791110038824200019540309M1254/00         20020501SUAREZ MARIO FERNANDO                                                                               00000000000*30638285645G
03791123914314300019560912F1254/01         20020501CARRILLO DE SUAREZ MIRTA MAGAL                                                                      00000000000*30638285645G
03791050197744200019450806F1256/00         20020601URIONDO BLANCA INES                                                                                 00000000000*30638285645G
03791254829424200019761112M1257/00         20020601VITTAR JUAN MANUEL                                                                                  00000000000*30638285645G
03791242645304300019750304F1257/01         20020601FOULKES BARBARA                                                                                     00000000000*30638285645G
03791411584124300019980417F1257/02         20020601VITTAR FOULKES MARIA AZUL                                                                           00000000000*30638285645G
03791434979454300020010405F1257/03         20020601VITTAR FOULKES ABRIL                                                                                00000000000*30638285645G
03791081241414200019440325M1259/00         20020501TAHHAN CARLOS ALBERTO                                                                               00000000000*30638285645G
03791050003404200019450216F1259/01         20020501SEGURA DOLORES DEL VALLE                                                                            00000000000*30638285645G
03791107650284200019530405M1269/00         20020601MOLINA ERNESTO RAUL                                                                                 00000000000*30638285645G
03791109368144300019540111F1269/01         20020601NEME DE MOLINA GRACIELA ESTELA                                                                      00000000000*30638285645G
03794036378524200019370802F1270/00         20020701GARCIA MATILDE                                                                                      00000000000*30638285645G
03791033903624200019360805F1274/00         20020701PONS PILAR JOAQUINA                                                                                 00000000000*30638285645G
03791222432724200019711014M1277/00         20020801DARGOLTZ CARLOS JUAN                                                                                00000000000*30638285645G
03791234107444200019731003F1277/01         20020801IBIETA VANESA BEATRIZ                                                                               00000000000*30638285645G
03791451613934200020030926M1277/02         20030926DARGOLTZ LAUTARO                                                                                    00000000000*30638285645G
03791482129914200020070822M1277/03         20070829DARGOLTZ SALVADOR                                                                                   00000000000*30638285645G
03791135119654200019591210M1296/00         20021101LETURIA FERNANDO MARCELO                                                                            00000000000*30638285645G
03791167336964200019640520F1296/01         20021101GALLO SANDRA LILIANA DE                                                                             00000000000*30638285645G
03791369949654200019920629M1296/02         20021101LETURIA FERNANDO MARCELO                                                                            00000000000*30638285645G
03791384832954200019941210M1296/03         20021101LETURIA GABRIEL ALEJANDRO                                                                           00000000000*30638285645G
03791111439064200019540413F1297/00         20021101FERNANDEZ SUNILDA EUGENIA                                                                           00000000000*30638285645G
03791160078924200019621029M1313/00         20030201ROLDAN RAUL ADOLFO                                                                                  00000000000*30638285645G
03791184947504200019670321F1313/01         20030201SORIA MARIA FLORENCIA                                                                               00000000000*30638285645G
03791387331564200019950419M1313/03         20030201ROLDAN ADOLFO                                                                                       00000000000*30638285645G
03791178898694200019661006M1317/00         20030201HAUTEBERQUE RENE GUSTAVO                                                                            00000000000*30638285645G
03791216310204200019700430F1317/01         20030201AUAD ANA MARIA                                                                                      00000000000*30638285645G
03791142536364200020030828F1317/02         20030828HAUTEBERQUE ANA GUADALUPE                                                                           00000000000*30638285645G
03791461578904200020060102F1317/03         20060102HAUTEBERQUE LUCIA FELICITAS                                                                         00000000000*30638285645G
03791132599644200019600129M1320/00         20030201SOLER CARLOS ALBERTO                                                                                00000000000*30638285645G
03791164177974200019630803F1320/01         20030201DARCHUK MIRYAN TERESITA                                                                             00000000000*30638285645G
03791394524484200019960226F1320/04         20030201SOLER CINTIA DAIANA                                                                                 00000000000*30638285645G
03791175142354200019650611F1329/00         20030501AVILA MARIO EFRAIN                                                                                  00000000000*30638285645G
03791369940024200019920512M1329/04         20030501AVILA AUGUSTO MARTIN                                                                                00000000000*30638285645G
03791077973104200019490423M1335/00         20030501TABOADA CORRAL MARIO ENRIQUE                                                                        00000000000*30638285645G
03791276779454200019690811F1335/01         20030501IBAÑEZ CLARA JOSEFINA                                                                               00000000000*30638285645G
03791407538644200019970826F1335/02         20030501TABOADA GUADALUPE FLORENCIA                                                                         00000000000*30638285645G
03791164570064200019630329F1338/00         20030601ALEGRE SILVIA BETTINA DEL VALLE                                                                     00000000000*30638285645G
03791059427204200019490426F1340/00         20030701AGUERO MARIA WALDINA                                                                                00000000000*30638285645G
03794048234144200019431007F1343/00         20030601LANZA ROSA FILOMENA                                                                                 00000000000*30638285645G
03791167719444200019640709M1344/00         20030801CASTIGLIONE JUAN CARLOS                                                                             00000000000*30638285645G
03791180905334200019661030F1344/01         20030801CENICE BOTARGUES ALEJANDRA                                                                          00000000000*30638285645G
03791386429564200019950116F1344/02         20030801CASTIGLIONE AGUSTINA MARIA                                                                          00000000000*30638285645G
03791432431834200020010426M1344/03         20030801CASTIGLIONE LORENZO                                                                                 00000000000*30638285645G
03791177629614200019670221M1345/00         20030801NIETO RAMON CEFERINO                                                                                00000000000*30638285645G
03791226612704300019720410F1345/01         20030801BOLLA GLADIS ISABEL                                                                                 00000000000*30638285645G
03791382258444200019940228M1345/02         20030801NIETO RAMON ALBERTO                                                                                 00000000000*30638285645G
03791429881664300020000918M1345/03         20030801NIETO LUCAS FERNANDO                                                                                00000000000*30638285645G
03791102946804200019521219F1352/00         20030901CISNEROS ELVIA GLADI                                                                                00000000000*30638285645G
03791229224304200019730413F1362/00         20031201RIVAS MARIANA BEATRIZ                                                                               00000000000*30638285645G
03791457078544200020040902M1362/02         20040902CARDENAS JUAN BAUTISTA                                                                              00000000000*30638285645G
03791476009884200020061116M1362/03         20061116CARDENAS RIVAS GONZALO AGUSTIN                                                                      00000000000*30638285645G
03791498456294200020090924M1362/04         20091111CARDENAS RIVAS NICOLAS SANTIAGO                                                                     00000000000*30638285645G
03791265700034200019780321F1364/00         20031101TENCHINI EUGENIA SOLEDAD                                                                            00000000000*30638285645G
03791241984014200019741031M1364/01         20031101DE LA LLAMA GONZALO JAVIER                                                                          00000000000*30638285645G
03791455337264200020040323M1364/02         20040323DE LA LLAMA LEANDRO IGNACIO                                                                         00000000000*30638285645G
03791510871324200020110407F1364/03         20110413DE LA LLAMA TENCHINI MILAGROS                                                                       00000000000*30638285645G
03791223011994200019720409F1367/00         20010501MAZZOLENI KARINA ALEJANDRA                                                                          00000000000*30638285645G
03791383658924300019940729M1367/02         20010501SERRANO IVAN ALEJANDRO                                                                              00000000000*30638285645G
03791230415814200019730127M1368/00         20020301CASTRO SANTIAGO                                                                                     00000000000*30638285645G
03791242777364200019750121F1369/00         20020701SUAREZ GARCIA ANA ISABEL                                                                            00000000000*30638285645G
03791530000004200020130927M1369/02         20131004NUÑEZ FRANCISCO BENJAMIN                                                                            00000000000*30638285645G
03791226181854200019720624M1370/00         20021101MARTINEZ CLAUDIO AUGUSTO                                                                            00000000000*30638285645G
03791102931374200019520909F1374/00         19960930CONTATO ROSA MARIA                                                                                  00000000000*30638285645G
03791184717904200019670430F1375/00         20020102SAAB JOSEFINA MARGARITA                                                                             00000000000*30638285645G
03791451637264200020031113F1375/02         20031113PEDENOVI MARTINA                                                                                    00000000000*30638285645G
03791475038314200020060828M1375/03         20060828PEDENOVI TOMAS BAUTISTA                                                                             00000000000*30638285645G
03791265701644200019780329M1376/00         19891130NOIR HUGO RAMON                                                                                     00000000000*30638285645G
03791293769704200019821114F1376/01         20080101YOCCA SILVANA VALERIA                                                                               00000000000*30638285645G
03791520748684200020120116F1376/02         20120120NOIR YOCCA JUSTINA                                                                                  00000000000*30638285645G
03791541989494200020141121F1376/03         20141201NOIR YOCCA SOFIA                                                                                    00000000000*30638285645G
03791081393484300019470708M1378/00         20040701JIMENEZ MIGUEL RAMON                                                                                00000000000*30638285645G
03791102961964300019520909F1378/01         20040701LUNA MABEL ESTHER                                                                                   00000000000*30638285645G
03791230424594200019721229M1379/00         20040701SORIA JUAN BENJAMIN                                                                                 00000000000*30638285645G
03791255018894200019761116F1380/00         20070701PAZ MARIA DE LOS ANGELES                                                                            00000000000*30638285645G
03791186622424200019671212F1381/00         20000401AGUERO PATRICIA MERCEDES                                                                            00000000000*30638285645G
03791126351984200019561221F1394/00         20040801BARRON MIRTA SILVIA                                                                                 00000000000*30638285645G
03791116540314200019550403M1394/01         20040801SMITH RAFAEL ALBERTO                                                                                00000000000*30638285645G
03791397935004200019961101M1394/04         20040801SMITH ESPER FRANCO JOSE                                                                             00000000000*30638285645G
03791278111614200019790711M1395/00         20041101MAROZZI JAVIER SEBASTIAN                                                                            00000000000*30638285645G
03791122781518000019580208F1398/00         20041101ROSSI PATRICIA RUTH                                                                                 00000000000*30638285645G
03791140546954200019591218F1400/00         20050101VIZOSO MONICA ADRIANA                                                                               00000000000*30638285645G
03791047262324200019431104F1404/00         20050201RUSE PAEZ DELIA ESMILDA                                                                             00000000000*30638285645G
03791114359014200019541105M1405/00         20050201LASCA RICARDO DANIEL                                                                                00000000000*30638285645G
03791140545384200019600809F1405/01         20050201JUNCAL ISABEL MYRIAN                                                                                00000000000*30638285645G
03791397944664200019960709F1405/03         20050201LASCA JUNCAL ANA ISABEL                                                                             00000000000*30638285645G
03791275035044200019790411M1411/00         19960814BERDAGUER PABLO LUIS                                                                                00000000000*30638285645G
03791062990894200019500304F1412/00         20050401IBAÑEZ DE TOBAR NORA ISABEL                                                                         00000000000*30638285645G
03791273268054200019790610M1420/00         19891101VITTAR SEBASTIAN                                                                                    00000000000*30638285645G
03791294865564200019820512M1422/00         19890630CASTIGLIONE RAFAEL ALBERTO                                                                          00000000000*30638285645G
03791297167984200019821026F1422/01         20080201ALPERIN DEBORA INES                                                                                 00000000000*30638285645G
03791506771144200020101021F1422/02         20101026CASTIGLIONE ALPERIN HELENA                                                                          00000000000*30638285645G
03791540131554200020140630M1422/03         20140701CASTIGLIONE ALPERIN FELIPE                                                                          00000000000*30638285645G
03791109366784200019530602F1427/00         20050801HERRERA MARTA GRACIELA                                                                              00000000000*30638285645G
03791118336914200019550721F1428/00         20051001BASBUS SUSANA BEATRIZ                                                                               00000000000*30638285645G
03791111432004200019540420M1429/00         20051001PAGANI RAUL ALBERTO                                                                                 00000000000*30638285645G
03791126950354200019561212M1435/00         20060301BASBUS GUILLERMO ENRIQUE                                                                            00000000000*30638285645G
03791123338094200019580408F1436/00         20060301ROMANO MARISA ADRIANA                                                                               00000000000*30638285645G
03791243469264200019750321F1437/00         19901112GALLEGO MARIA DE LOS ANGELES                                                                        00000000000*30638285645G
03791282460034200019800609F1438/00         19890630CASTIGLIONE NATALIA DEL VALLE                                                                       00000000000*30638285645G
03791511527134200020110429M1438/02         20110513NORIEGA CASTIGLIONE BAUTISTA                                                                        00000000000*30638285645G
03791534604214200020130822F1438/03         20130906NORIEGA CASTIGLIONE EMILIA                                                                          00000000000*30638285645G
03791553483624200020160330F1438/04         20160413NORIEGA CASTIGLIONE JULIETA                                                                         00000000000*30638285645G
03791163085274200019621122M1440/00         20060401ZAIEK MARTIN                                                                                        00000000000*30638285645G
03791213411984200019700325F1440/01         20060401PETRUNGARO MARIA SUSANA DE LAS                                                                      00000000000*30638285645G
03791375103014200019930604F1440/02         20060401ZAIEK MARIA EVA                                                                                     00000000000*30638285645G
03791386432854200019950303F1440/03         20060401ZAIEK MARIA MILAGROS                                                                                00000000000*30638285645G
03791406038514200019970915F1440/04         20060401ZAIEK MARIA LUZ                                                                                     00000000000*30638285645G
03791425219344200020000308M1440/05         20060401ZAIEK CAMILO JOAQUIN                                                                                00000000000*30638285645G
03791085044014200019501110M1443/00         20010601BUXEDA JOSE LUIS                                                                                    00000000000*30638285645G
03791083846834200019510102M1452/00         20060901JENSEN ELLI CARLOS FRANCISCO                                                                        00000000000*30638285645G
03791064991114200019510113F1452/01         20060901MONTENEGRO BLANCA SUSANA                                                                            00000000000*30638285645G
03791298940194200019821213M1453/00         19890707UMAÑO DANIEL ALBERTO                                                                                00000000000*30638285645G
03791126354344300019580822F1456/00         20061001SANTILLAN SILVIA ELIZABET                                                                           00000000000*30638285645G
03791249822724200019751031M1457/00         19890630BULLAUDE ALDO                                                                                       00000000000*30638285645G
03791166605524300019630918F1461/00         20061201BADAMI ROSA MARINA                                                                                  00000000000*30638285645G
03791226182264200019720605F1463/00         20061201LOPEZ MARTINEZ MONICA                                                                               00000000000*30638285645G
03791168607554300019641002M1464/00         20070101RUIZ RENE EDUARDO                                                                                   00000000000*30638285645G
03791120188314200019580210F1466/00         20070201CARRERA STELLA MARIA RAMONA                                                                         00000000000*30638285645G
03791284445264200019800927F1467/00         19960321DUFFAU NATALIA A.                                                                                   00000000000*30638285645G
03791255018624200019761104F1469/00         20070301ZIRPOLO BLANES ROSA MARIA                                                                           00000000000*30638285645G
03791201513114200019680123M1469/01         20080501GIGENA JORGE MARIANO                                                                                00000000000*30638285645G
03791490446274200020080912F1469/02         20080922GIGENA ZIRPOLO MARIA EMILIA                                                                         00000000000*30638285645G
03791139695784200019610105M1471/00         20070301UÑATES MAYULI RICARDO                                                                               00000000000*30638285645G
03791163087204200019630327F1471/01         20070301CABELLO SILVIA GRACIELA                                                                             00000000000*30638285645G
03791407820864200019971128M1471/04         20070301UÑATES CABELLO ALFONSO B.                                                                           00000000000*30638285645G
03791284448204200019801201M1472/00         19911024BELLUOMINI ADRIAN NICOLAS                                                                           00000000000*30638285645G
03791475037794200020060815F1474/00         20070401SOLIVELLAS MARTINEZ MAITENA                                                                         00000000000*30638285645G
03791172368024200019650128M1475/00         20070301CORNELLI NESTOR ROLANDO                                                                             00000000000*30638285645G
03791160077144200019630119F1475/01         20070301MORALES DE CORNELLI ALICIA                                                                          00000000000*30638285645G
03791375105784200019930707F1475/03         20070301CORNELLI MARIA FERNANDA                                                                             00000000000*30638285645G
03791398988584200019960326F1475/04         20070301CORNELLI MARIA AGUSTINA                                                                             00000000000*30638285645G
03791254678844200019760826M1476/00         20070401ROMITI MAXIMILIANO MARTIN                                                                           00000000000*30638285645G
03791259462204200019770428F1476/01         20070401ZALAZAR MARIA FERNANDA                                                                              00000000000*30638285645G
03791387338564200019950915F1476/02         20070401ROMITI ANDREA ANTONELA                                                                              00000000000*30638285645G
03791428077994200020000624M1476/03         20070401ROMITI JOAQUIN ADRIAN                                                                               00000000000*30638285645G
03791140438284300019600728F1477/00         20070401VILLAVICENCIO MIRTHA INES                                                                           00000000000*30638285645G
03791433607334300019960511M1477/02         20070401JIMENEZ EMANUEL                                                                                     00000000000*30638285645G
03791209004264200019690804F1479/00         20070401SALOMON SILVIA ALICIA                                                                               00000000000*30638285645G
03791291425045000019811027F1482/00         20070401BARRIONUEVO MARTA MARIA                                                                             00000000000*30638285645G
03791083841994200019501117M1483/00         20070501ALPERIN JOSE ROLANDO                                                                                00000000000*30638285645G
03791109821154300019540108F1483/01         20070501MITRE DE ALPERIN LAURA                                                                              00000000000*30638285645G
03791176870184300019660425M1484/00         20070501FALCO MARIO EDGARDO                                                                                 00000000000*30638285645G
03791180904904300019670301F1484/01         20070501ALVAREZ KELLY ANALIA                                                                                00000000000*30638285645G
03791383669184300019940712M1484/03         20070501FALCO NICOLAS  EDGARDO                                                                              00000000000*30638285645G
03791423887314300020000113M1484/04         20070501FALCO MATIAS AGUSTIN                                                                                00000000000*30638285645G
03791209596654200019690721M1485/00         20070501MULKI DANIEL GERMAN                                                                                 00000000000*30638285645G
03791257098174200019770311F1486/00         20070501DAPELLO CLAUDIA PATRICIA                                                                            00000000000*30638285645G
03791264390604200019780415M1486/01         20070501ROMERO ESTEBAN JOAQUIN                                                                              00000000000*30638285645G
03791000458974200020080911M1486/02         20080915ROMERO DAPELLO JOAQUIN OSCAR                                                                        00000000000*30638285645G
03791508713484200020110124F1486/03         20110223ROMERO DAPELLO MERCEDES                                                                             00000000000*30638285645G
03791078945784200020140703F1486/04         20140704ROMERO DAPELLO PILAR                                                                                00000000000*30638285645G
03791288709104200019810608F1487/00         20070501SANGUEDOLCE MARIA DEL ROSARIO                                                                       00000000000*30638285645G
03791172366734200019650115F1488/00         20070501LARES ELBA DEL VALLE                                                                                00000000000*30638285645G
03791292366724200019811218F1492/00         20070601WERENITZKY LAURA                                                                                    00000000000*30638285645G
03791545680234200020141230M1492/02         20150102CERRO WERENITZKYSALVADOR                                                                            00000000000*30638285645G
03791243766964200019750731F1496/00         20070601NAZARIO DE MUHN PATRICIA                                                                            00000000000*30638285645G
03791216324014300019701104M1496/01         20070601MUHN OSCAR ALFREDO                                                                                  00000000000*30638285645G
03791444428594300020021018M1496/02         20070601MUHN OSCAR MARTIN                                                                                   00000000000*30638285645G
03791461563284300020051123M1496/03         20070601MUHN SANTIAGO EMILIO                                                                                00000000000*30638285645G
03791514472504200020111111M1496/04         20111111MUHN BENJAMIN                                                                                       00000000000*30638285645G
03791180370544200019660518M1499/00         20070601CINQUEGRANI ANTONIO                                                                                 00000000000*30638285645G
03791207328014200019690417F1499/01         20070601CARBONEL MARIA MARTA                                                                                00000000000*30638285645G
03791374109244200019930407F1499/02         20070601CINQUEGRANI ORNELLA                                                                                 00000000000*30638285645G
03791387373404200019950614F1499/03         20070601CINQUEGRANI FIORELLA                                                                                00000000000*30638285645G
03791413436034200019980626M1499/04         20070601CINQUEGRANI ANTONIO                                                                                 00000000000*30638285645G
03791440688084200020020225F1499/05         20070601CINQUEGRANI ARIANNA                                                                                 00000000000*30638285645G
03791341670484300019881010F1501/00         20070701GINER CARLA VANESA                                                                                  00000000000*30638285645G
03791479361104200020070323M1501/02         20070701WOTTITZ GINER JOACHIM                                                                               00000000000*30638285645G
03791504714084300020100726M1501/03         20100817WOTTITZ GINER THOMAS                                                                                00000000000*30638285645G
03791553476544300020160304F1501/04         20160307WOTTITZ GINER ALMA                                                                                  00000000000*30638285645G
03791289002904200019810725M1506/00         19931015IBARRA JUAN                                                                                         00000000000*30638285645G
03791120746634200019560323F1507/00         20070801GAUNA LILIANA DEL VALLE                                                                             00000000000*30638285645G
03791289002174200019810722F1510/00         19910423BARCHINI MARCELA FLORENCIA                                                                          00000000000*30638285645G
03791000189764200020090409M1510/02         20090413JOZAMI  FRANCISCO                                                                                   00000000000*30638285645G
03791000108794200020121214M1510/03         20121217JOZAMI AUGUSTO                                                                                      00000000000*30638285645G
03791058798274200019490809F1511/00         20070901PAZ FRIAS SIRIACA                                                                                   00000000000*30638285645G
03791226188914200019720807M1515/00         20070901BRANDAN ROGER ALBERTO                                                                               00000000000*30638285645G
03791177194234200019660114F1515/01         20070901ZALAZAR MARTA SUSANA                                                                                00000000000*30638285645G
03791425216974200020000317M1515/02         20070901BRANDAN ZALAZAR ALVARO                                                                              00000000000*30638285645G
03791474065394200020060616F1515/03         20070901BRANDAN ZALAZAR AVRIL                                                                               00000000000*30638285645G
03791100199514200019521204M1520/00         19910424BARCHINI RAUL ENRIQUE                                                                               00000000000*30638285645G
03791137926744300019591104F1520/01         19910423MENINI MARCELA JOSEFINA                                                                             00000000000*30638285645G
03791287444684200019810511M1521/00         19890630MAGUNA JOSE IGNACIO                                                                                 00000000000*30638285645G
03791178944204200019661225M1524/00         20071001LOPEZ ADRIAN OSVALDO                                                                                00000000000*30638285645G
03791229284394300019720828F1524/01         20071001MARIN ROSANA VIRGINIA                                                                               00000000000*30638285645G
03791432237004300020010326F1524/02         20071001LOPEZ ANTONIA                                                                                       00000000000*30638285645G
03791447995244300020030522M1524/03         20071001LOPEZ IMANOL                                                                                        00000000000*30638285645G
03791114932264200019540811F1529/00         20071101SILVENSES AMELIA DEL VALLE                                                                          00000000000*30638285645G
03791203079474200019680412F1530/00         20071101ALZOGARAY ANGELA GRACIELA                                                                           00000000000*30638285645G
03791464892054200020060316F1530/02         20071001ALZOGARAY ANGELINA                                                                                  00000000000*30638285645G
03791257093254200019761205M1532/00         20071201NOIR PEDRO ANTONIO                                                                                  00000000000*30638285645G
03791210865154200019670331F1533/00         20071201ZANATTA GABRIELA TERESA                                                                             00000000000*30638285645G
03791181570934300019691015M1533/01         20071201CIOCCOLANI PEDRO FRANCISCO                                                                          00000000000*30638285645G
03791377349594200019940131F1533/02         20071201CIOCCOLANI ZANATTA SOLANA                                                                           00000000000*30638285645G
03791394501454200019960201F1533/03         20071201CIOCCOLANI ZANATTA AGOSTINA                                                                         00000000000*30638285645G
03791489747094300020080716M1533/04         20080721CIOCCOLANI ZANATTA FRANCISCO                                                                        00000000000*30638285645G
03791147549594200019620527M1535/00         20080101MARTINETTI GUSTAVO RAUL                                                                             00000000000*30638285645G
03791205060094200019680716M1536/00         20080101JORGE GUSTAVO ORLANDO                                                                               00000000000*30638285645G
03791216329704200019710127F1536/01         20080101CHARY SILVIA KARINA                                                                                 00000000000*30638285645G
03791457092994200020041022M1536/02         20080101JORGE CONSTANTINO                                                                                   00000000000*30638285645G
03791478534144200020070118M1536/03         20080101JORGE SALVADOR                                                                                      00000000000*30638285645G
03791509391144200020110504M1536/04         20110511JORGE BENICIO                                                                                       00000000000*30638285645G
03791286772534200019810305M1537/00         20070401FORTE MARIO FEDERICO                                                                                00000000000*30638285645G
03791245785284200019750325F1538/00         20010701COLUCCI MARIA GUADALUPE                                                                             00000000000*30638285645G
03791431291384300020001123F1538/02         20010701SALAZAR MARTINA                                                                                     00000000000*30638285645G
03791451636494300020030811M1538/03         20030811SALAZAR GASTON                                                                                      00000000000*30638285645G
03791474079164200020060725F1543/00         20080301AGUERO VALENTINA INES                                                                               00000000000*30638285645G
03791147546844200019620315M1544/00         20080301DANNA CARLOS JOSE                                                                                   00000000000*30638285645G
03791238867394200019740313M1545/00         20080301MUHN MARCELO ARIEL                                                                                  00000000000*30638285645G
03791241982654300019741026F1545/01         20080301GARCIA ANA SOLEDAD                                                                                  00000000000*30638285645G
03791400507984300019961008F1545/02         20080301MUHN VALENTINA                                                                                      00000000000*30638285645G
03791464879584300020060303M1545/03         20080301MUHN MATHIAS                                                                                        00000000000*30638285645G
03791286772874200019810228M1549/00         20080401FILIPPA JAVIER ROLANDO                                                                              00000000000*30638285645G
03791281392744200019801019F1555/00         19890630OROSCO MARIA EMILSE                                                                                 00000000000*30638285645G
03791307120734200019840114M1558/00         19890704MURATORE GERMAN DANIEL                                                                              00000000000*30638285645G
03791313118674200019850422M1561/00         20080701BARRIO FELIPE                                                                                       00000000000*30638285645G
03793070641074200019370323M20008/00        20030401MAZZAMUTO JUAN CARLOS                                                                               00000000000*30638285645G
03794036346664200019380621F20008/01        20030401MASINO ANA MARIA                                                                                    00000000000*30638285645G
03793037931064200019181112M20165/00        19890630ABATE NUNZIO OSCAR                                                                                  00000000000*30638285645G
03792002119754200019600811F211975/00       20160811FANSU                                                                                               00000000000*30638285645G
